:020000040800F2
:1000000000C00020E54C0008A9270008AB27000825
:10001000AD270008AF270008B12700080000000046
:10002000000000000000000000000000B3270008EE
:10003000B527000800000000B7270008B92700080E
:100040002D4D00082D4D00082D4D00082D4D0008A8
:100050002D4D00082D4D00082D4D00082D4D000898
:100060002D4D00082D4D00082D4D00082D4D000888
:100070002D4D0008C12700082D4D00082D4D00080A
:10008000D12700082D4D00082D4D00082D4D0008EA
:100090002D4D00082D4D00082D4D00082D4D000858
:1000A0002D4D0008E12700082D4D00082D4D0008BA
:1000B0002D4D00082D4D00082D4D00082D4D000838
:1000C0002D4D00082D4D00082D4D00082D4D000828
:1000D0002D4D00082D4D0008F127000801280008CB
:1000E0002D4D00082D4D00082D4D00082D4D000808
:1000F0002D4D00082D4D00082D4D00082D4D0008F8
:100100002D4D00082D4D00082D4D00082D4D0008E7
:100110002D4D00082D4D00082D4D00082D4D0008D7
:100120002D4D00082D4D00082D4D00082D4D0008C7
:1001300000000000000000000000000000000000BF
:1001400000000000000000000000000000000000AF
:10015000000000000000000000000000000000009F
:10016000000000000000000000000000000000008F
:10017000000000000000000000000000000000007F
:10018000000000000000000000000000000000006F
:10019000000000000000000000000000000000005F
:1001A000000000000000000000000000000000004F
:1001B000000000000000000000000000000000003F
:1001C000000000000000000000000000000000002F
:1001D000000000000000000000000000000000001F
:0401E0005FF8E0F1F3
:1001E80010B5054C237833B9044B13B10448AFF369
:1001F80000800123237010BDD809002000000000F2
:1002080064C6000808B5034B1BB103490348AFF3A4
:10021800008008BD00000000DC09002064C600085A
:10022800844641EA000313F0030349D1403A23D33B
:100238000B6803604B6843608B688360CB68C3605E
:100248000B6903614B6943618B698361CB69C36146
:100258000B6A03624B6A43628B6A8362CB6AC3622E
:100268000B6B03634B6B43638B6B8363CB6BC36316
:1002780040304031403ADBD230320BD30B68036058
:100288004B6843608B688360CB68C3601030103163
:10029800103AF3D20C3205D351F8043B40F8043B32
:1002A800043AF9D2043208D0D2071CBF11F8013B36
:1002B80000F8013B01D30B8803806046704700BFFC
:1002C800082A13D38B07B1D010F00303AED0C3F1C3
:1002D8000403D21ADB071CBF11F8013B00F8013BED
:1002E800A4D331F8023B20F8023B9FE7043AD9D364
:1002F800013A11F8013B00F8013BF9D20B78037081
:100308004B7843708B7883706046704781F000416A
:1003180002E000BF83F0004330B54FEA41044FEAE2
:10032800430594EA050F08BF90EA020F1FBF54EA7D
:10033800000C55EA020C7FEA645C7FEA655C00F019
:10034800E2804FEA5454D4EB5555B8BF6D420CDDEA
:100358002C4480EA020281EA030382EA000083EA6D
:10036800010180EA020281EA0303362D88BF30BD0D
:1003780011F0004F4FEA01314FF4801C4CEA113163
:1003880002D0404261EB410113F0004F4FEA0333C2
:100398004CEA133302D0524263EB430394EA050F4D
:1003A80000F0A780A4F10104D5F1200E0DDB02FABC
:1003B8000EFC22FA05F2801841F1000103FA0EF250
:1003C800801843FA05F359410EE0A5F120050EF116
:1003D800200E012A03FA0EFC28BF4CF0020C43FA47
:1003E80005F3C01851EBE37101F0004507D54FF054
:1003F800000EDCF1000C7EEB00006EEB0101B1F5A4
:10040800801F1BD3B1F5001F0CD349085FEA3000E9
:100418004FEA3C0C04F101044FEA445212F5800FF4
:1004280080F09A80BCF1004F08BF5FEA500C50F191
:10043800000041EB045141EA050130BD5FEA4C0C74
:10044800404141EB0101013C28BFB1F5801FE9D2D1
:1004580091F0000F04BF01460020B1FA81F308BFF4
:100468002033A3F10B03B3F120020CDA0C3208DDC0
:1004780002F1140CC2F10C0201FA0CF021FA02F19B
:100488000CE002F11402D8BFC2F1200C01FA02F10B
:1004980020FA0CFCDCBF41EA0C019040E41AA2BF30
:1004A80001EB0451294330BD6FEA04041F3C1CDAF8
:1004B8000C340EDC04F11404C4F1200220FA04F018
:1004C80001FA02F340EA030021FA04F345EA0301C2
:1004D80030BDC4F10C04C4F1200220FA02F001FA84
:1004E80004F340EA0300294630BD21FA04F0294606
:1004F80030BD94F0000F83F4801306BF81F480119F
:100508000134013D4EE77FEA645C18BF7FEA655C11
:1005180029D094EA050F08BF90EA020F05D054EAE3
:10052800000C04BF1946104630BD91EA030F1EBFE8
:100538000021002030BD5FEA545C05D140004941EC
:1005480028BF41F0004130BD14F580043CBF01F5DF
:10055800801130BD01F0004545F0FE4141F47001C5
:100568004FF0000030BD7FEA645C1ABF19461046A0
:100578007FEA655C1CBF0B46024650EA013406BFA1
:1005880052EA033591EA030F41F4002130BD00BF60
:1005980090F0000F04BF0021704730B54FF480641D
:1005A80004F132044FF000054FF0000150E700BF9E
:1005B80090F0000F04BF0021704730B54FF48064FD
:1005C80004F1320410F0004548BF40424FF00001EA
:1005D8003EE700BF42004FEAE2014FEA31014FEA2D
:1005E80002701FBF12F07F4393F07F4F81F060517C
:1005F800704732F07F4208BF704793F07F4F04BFC7
:1006080041F40021704730B54FF4607401F00045A3
:1006180021F000411CE700BF50EA010208BF704703
:1006280030B54FF000050AE050EA010208BF7047F4
:1006380030B511F0004502D5404261EB41014FF45D
:10064800806404F132045FEA915C3FF4D8AE4FF065
:1006580003025FEADC0C18BF03325FEADC0C18BF48
:10066800033202EBDC02C2F1200300FA03FC20FA99
:1006780002F001FA03FE40EA0E0021FA02F11444E6
:10068800BDE600BF70B54FF0FF0C4CF4E06C1CEAFF
:1006980011541DBF1CEA135594EA0C0F95EA0C0F70
:1006A80000F0DEF82C4481EA030621EA4C5123EAE3
:1006B8004C5350EA013518BF52EA033541F4801112
:1006C80043F4801338D0A0FB02CE4FF00005E1FBC5
:1006D80002E506F00042E0FB03E54FF00006E1FB0F
:1006E80003569CF0000F18BF4EF0010EA4F1FF0452
:1006F800B6F5007F64F5407404D25FEA4E0E6D4192
:1007080046EB060642EAC62141EA55514FEAC520A2
:1007180040EA5E504FEACE2EB4F1FD0C88BFBCF51E
:10072800E06F1ED8BEF1004F08BF5FEA500E50F1CF
:10073800000041EB045170BD06F0004646EA010195
:1007480040EA020081EA0301B4EB5C04C2BFD4EBC7
:100758000C0541EA045170BD41F480114FF0000EC0
:10076800013C00F3AB8014F1360FDEBF002001F02E
:10077800004170BDC4F10004203C35DA0C341BDCA8
:1007880004F11404C4F1200500FA05F320FA04F07A
:1007980001FA05F240EA020001F0004221F00041AE
:1007A80010EBD37021FA04F642EB06015EEA430E21
:1007B80008BF20EAD37070BDC4F10C04C4F1200551
:1007C80000FA04F320FA05F001FA04F240EA020004
:1007D80001F0004110EBD37041F100015EEA430ED5
:1007E80008BF20EAD37070BDC4F1200500FA05F2F5
:1007F8004EEA020E20FA04F301FA05F243EA020374
:1008080021FA04F001F0004121FA04F220EA020082
:1008180000EBD3705EEA430E08BF20EAD37070BDC8
:1008280094F0000F0FD101F00046400041EB0101A8
:1008380011F4801F08BF013CF7D041EA060195F08A
:10084800000F18BF704703F00046520043EB030344
:1008580013F4801F08BF013DF7D043EA0603704731
:1008680094EA0C0F0CEA135518BF95EA0C0F0CD03C
:1008780050EA410618BF52EA4306D1D181EA030182
:1008880001F000414FF0000070BD50EA410606BF7C
:100898001046194652EA430619D094EA0C0F02D1C1
:1008A80050EA013613D195EA0C0F05D152EA033606
:1008B8001CBF104619460AD181EA030101F0004124
:1008C80041F0FE4141F470014FF0000070BD41F06D
:1008D800FE4141F4780170BD70B54FF0FF0C4CF447
:1008E800E06C1CEA11541DBF1CEA135594EA0C0F66
:1008F80095EA0C0F00F0A7F8A4EB050481EA030EB3
:1009080052EA03354FEA013100F088804FEA033399
:100918004FF0805545EA131343EA12634FEA022267
:1009280045EA111545EA10654FEA00260EF0004128
:100938009D4208BF964244F1FD0404F5407402D27A
:100948005B084FEA3202B61A65EB03055B084FEA0B
:1009580032024FF480104FF4002CB6EB020E75EB08
:10096800030E22BFB61A754640EA0C005B084FEA30
:100978003202B6EB020E75EB030E22BFB61A7546AD
:1009880040EA5C005B084FEA3202B6EB020E75EBF8
:10099800030E22BFB61A754640EA9C005B084FEA70
:1009A8003202B6EB020E75EB030E22BFB61A75467D
:1009B80040EADC0055EA060E18D04FEA051545EA6C
:1009C80016754FEA06164FEAC30343EA52734FEA15
:1009D800C2025FEA1C1CC0D111F4801F0BD141EA8E
:1009E80000014FF000004FF0004CB6E711F4801FF3
:1009F80004BF01430020B4F1FD0C88BFBCF5E06FD3
:100A08003FF6AFAEB5EB030C04BFB6EB020C5FEAE2
:100A1800500C50F1000041EB045170BD0EF0004E37
:100A28004EEA113114EB5C04C2BFD4EB0C0541EA69
:100A3800045170BD41F480114FF0000E013C90E666
:100A480045EA060E8DE60CEA135594EA0C0F08BF2A
:100A580095EA0C0F3FF43BAF94EA0C0F0AD150EA29
:100A680001347FF434AF95EA0C0F7FF425AF1046BC
:100A780019462CE795EA0C0F06D152EA03353FF4E4
:100A8800FDAE1046194622E750EA410618BF52EA61
:100A980043067FF4C5AE50EA41047FF40DAF52EA35
:100AA80043057FF4EBAE12E74FF0FF3C06E000BFD2
:100AB8004FF0010C02E000BF4FF0010C4DF804CDDF
:100AC8004FEA410C7FEA6C5C4FEA430C18BF7FEA9F
:100AD8006C5C1BD001B050EA410C0CBF52EA430CCD
:100AE80091EA030F02BF90EA020F0020704710F14D
:100AF800000F91EA030F58BF994208BF90422CBFDC
:100B0800D8176FEAE37040F0010070474FEA410CD4
:100B18007FEA6C5C02D150EA013C07D14FEA430CF2
:100B28007FEA6C5CD6D152EA033CD3D05DF8040B63
:100B3800704700BF8446104662468C461946634695
:100B480000E000BF01B5FFF7B7FF002848BF10F16C
:100B5800000F01BD4DF808EDFFF7F4FF0CBF0120B1
:100B680000205DF808FB00BF4DF808EDFFF7EAFF2D
:100B780034BF012000205DF808FB00BF4DF808EDE8
:100B8800FFF7E0FF94BF012000205DF808FB00BFDD
:100B98004DF808EDFFF7CEFF94BF012000205DF867
:100BA80008FB00BF4DF808EDFFF7C4FF34BF012074
:100BB80000205DF808FB00BF4FEA410C7FEA6C5C3F
:100BC80002D150EA013C0AD14FEA430C7FEA6C5C3F
:100BD80002D152EA033C02D14FF0000070474FF0B7
:100BE800010070474FEA410212F5001215D211D5E3
:100BF8006FF47873B3EB625212D94FEAC12343F012
:100C0800004343EA505311F0004F23FA02F018BF93
:100C1800404270474FF00000704750EA013005D15C
:100C280011F0004008BF6FF0004070474FF000001F
:100C3800704700BF4FEA4102B2F1E04324BFB3F569
:100C4800001CDCF1FE5C0DD901F0004C4FEAC0023B
:100C58004CEA5070B2F1004F40EB830008BF20F01F
:100C68000100704711F0804F21D113F13872BCBFD9
:100C780001F00040704741F480114FEA5252C2F12E
:100C88001802C2F1200C10FA0CF320FA02F018BF77
:100C980040F001004FEAC1234FEAD32303FA0CFCCA
:100CA80040EA0C0023FA02F34FEA4303CCE77FEA59
:100CB800625307D150EA01331EBF4FF0FE4040F4A3
:100CC8004000704701F0004040F0FE4040F4000052
:100CD800704700BF80F0004002E000BF81F0004193
:100CE80042001FBF5FEA410392EA030F7FEA226CCA
:100CF8007FEA236C6AD04FEA1262D2EB1363C1BF5A
:100D0800D218414048404140B8BF5B42192B88BFC8
:100D1800704710F0004F40F4000020F07F4018BFEB
:100D2800404211F0004F41F4000121F07F4118BF0B
:100D3800494292EA030F3FD0A2F1010241FA03FCB3
:100D480010EB0C00C3F1200301FA03F100F000439B
:100D580002D5494260EB4000B0F5000F13D3B0F163
:100D6800807F06D340084FEA310102F10102FE2AD2
:100D780051D2B1F1004F40EBC25008BF20F0010042
:100D880040EA03007047490040EB0000013A28BFE1
:100D9800B0F5000FEDD2B0FA80FCACF1080CB2EB64
:100DA8000C0200FA0CF0AABF00EBC25052421843E2
:100DB800BCBFD0401843704792F0000F81F4000187
:100DC80006BF80F400000132013BB5E74FEA41035A
:100DD8007FEA226C18BF7FEA236C21D092EA030FC6
:100DE80004D092F0000F08BF0846704790EA010F40
:100DF8001CBF0020704712F07F4F04D1400028BF6D
:100E080040F00040704712F100723CBF00F500004E
:100E1800704700F0004343F0FE4040F40000704784
:100E28007FEA226216BF08467FEA23630146420230
:100E380006BF5FEA412390EA010F40F48000704743
:100E48004FF0000304E000BF10F0004348BF4042E9
:100E58005FEA000C08BF704743F0964301464FF025
:100E680000001CE050EA010208BF70474FF0000381
:100E78000AE000BF50EA010208BF704711F00043C2
:100E880002D5404261EB41015FEA010C02BF844692
:100E98000146002043F0B64308BFA3F18053A3F5F1
:100EA8000003BCFA8CF2083AA3EBC25310DB01FA38
:100EB80002FC634400FA02FCC2F12002BCF1004FBC
:100EC80020FA02F243EB020008BF20F0010070474D
:100ED80002F1200201FA02FCC2F1200250EA4C00A1
:100EE80021FA02F243EB020008BF20EADC707047E7
:100EF8004FF0FF0C1CEAD0521EBF1CEAD15392EAF5
:100F08000C0F93EA0C0F6FD01A4480EA010C4002D0
:100F180018BF5FEA41211ED04FF0006343EA50102A
:100F280043EA5111A0FB01310CF00040B1F5000F6C
:100F38003EBF490041EAD3715B0040EA010062F11B
:100F48007F02FD2A1DD8B3F1004F40EBC25008BF05
:100F580020F00100704790F0000F0CF0004C08BF23
:100F680049024CEA502040EA51207F3AC2BFD2F1F0
:100F7800FF0340EAC250704740F400004FF00003FE
:100F8800013A5DDC12F1190FDCBF00F00040704738
:100F9800C2F10002410021FA02F1C2F1200200FA76
:100FA80002FC5FEA310040F1000053EA4C0308BF3D
:100FB80020EADC70704792F0000F00F0004C02BF8E
:100FC800400010F4000F013AF9D040EA0C0093F009
:100FD800000F01F0004C02BF490011F4000F013B63
:100FE800F9D041EA0C018FE70CEAD15392EA0C0FD1
:100FF80018BF93EA0C0F0AD030F0004C18BF31F03C
:10100800004CD8D180EA010000F00040704790F011
:10101800000F17BF90F0004F084691F0000F91F0B5
:10102800004F14D092EA0C0F01D142020FD193EA7B
:101038000C0F03D14B0218BF084608D180EA010003
:1010480000F0004040F0FE4040F40000704740F0DF
:10105800FE4040F4400070474FF0FF0C1CEAD052AD
:101068001EBF1CEAD15392EA0C0F93EA0C0F69D009
:10107800A2EB030280EA010C49024FEA402037D074
:101088004FF0805343EA111143EA10130CF000406B
:101098008B4238BF5B0042F17D024FF4000C8B425B
:1010A80024BF5B1A40EA0C00B3EB510F24BFA3EB3B
:1010B800510340EA5C00B3EB910F24BFA3EB91030B
:1010C80040EA9C00B3EBD10F24BFA3EBD10340EA65
:1010D800DC001B0118BF5FEA1C1CE0D1FD2A3FF6AB
:1010E80050AF8B4240EBC25008BF20F00100704760
:1010F8000CF0004C4CEA50207F32C2BFD2F1FF0303
:1011080040EAC250704740F400004FF00003013A33
:1011180037E792F0000F00F0004C02BF400010F4D7
:10112800000F013AF9D040EA0C0093F0000F01F0EB
:10113800004C02BF490011F4000F013BF9D041EA0D
:101148000C0195E70CEAD15392EA0C0F08D1420240
:101158007FF47DAF93EA0C0F7FF470AF084676E713
:1011680093EA0C0F04D14B023FF44CAF08466EE7EC
:1011780030F0004C18BF31F0004CCAD130F00042BA
:101188007FF45CAF31F000437FF43CAF5FE700BF12
:101198004FF0FF3C06E000BF4FF0010C02E000BF3B
:1011A8004FF0010C4DF804CD4FEA40024FEA4103DD
:1011B8007FEA226C18BF7FEA236C11D001B052EA93
:1011C800530C18BF90EA010F58BFB2EB030088BF59
:1011D800C81738BF6FEAE17018BF40F001007047C8
:1011E8007FEA226C02D15FEA402C05D17FEA236CAA
:1011F800E4D15FEA412CE1D05DF8040B704700BFF1
:10120800844608466146FFE70FB5FFF7C9FF002887
:1012180048BF10F1000F0FBD4DF808EDFFF7F4FFC0
:101228000CBF012000205DF808FB00BF4DF808ED59
:10123800FFF7EAFF34BF012000205DF808FB00BF7C
:101248004DF808EDFFF7E0FF94BF012000205DF89E
:1012580008FB00BF4DF808EDFFF7D2FF94BF01204F
:1012680000205DF808FB00BF4DF808EDFFF7C8FF48
:1012780034BF012000205DF808FB00BF42000ED2F9
:10128800B2F1FE4F0BD34FF09E03B3EB126209D4B9
:101298004FEA002343F0004323FA02F070474FF06F
:1012A8000000704712F1610F01D1420202D14FF0E4
:1012B800FF3070474FF00000704700BF53B94AB97C
:1012C800002908BF00281CBF4FF0FF314FF0FF3046
:1012D80000F076B9ADF1080C6DE904CE00F006F81F
:1012E800DDF804E0DDE9022304B070472DE9F0479A
:1012F800089E0D4604468846002B4DD18A429446E6
:1013080068D9B2FA82F252B101FA02F3C2F12001AD
:1013180020FA01F10CFA02FC41EA030894404FEA72
:101328001C41B8FBF1F71FFA8CFE01FB178807FB7D
:101338000EF0230C43EA084398420AD91CEB030336
:1013480007F1FF3580F01E81984240F21B81023F71
:1013580063441B1AB3FBF1F001FB103300FB0EFED4
:10136800A4B244EA0344A6450AD91CEB040400F1DC
:10137800FF3380F00981A64540F2068164440238B3
:101388000021A4EB0E0440EA07401EB10023D4401C
:10139800C6E90043BDE8F0878B4208D9002E00F06B
:1013A800EE800021C6E900050846BDE8F087B3FADB
:1013B80083F100294AD1AB4202D3824200F2FC8079
:1013C800841A65EB030301209846002EE2D0C6E993
:1013D8000048DFE702B9FFDEB2FA82F2002A40F0E5
:1013E8009180A1EB0C0001214FEA1C471FFA8CFEEB
:1013F800B0FBF7F307FB1300250C45EA00450EFB8D
:1014080003F0A84208D91CEB050503F1FF3802D206
:10141800A84200F2CE8043462D1AB5FBF7F007FB31
:1014280010550EFB00FEA4B244EA0544A64508D9AF
:101438001CEB040400F1FF3502D2A64500F2B68089
:101448002846A4EB0E0440EA03409EE7C1F12007BA
:101458008B4022FA07FC4CEA030C25FA07FA4FEAFC
:101468001C49BAFBF9F820FA07F309FB18AA8D40C2
:101478001FFA8CFE1D4300FA01F308FB0EF02C0C3A
:1014880044EA0A44A04202FA01F20BD91CEB040414
:1014980008F1FF3A80F08880A04240F28580A8F1E8
:1014A80002086444241AB4FBF9F009FB104400FB59
:1014B8000EFEADB245EA0444A64508D91CEB040467
:1014C80000F1FF356CD2A6456AD90238644440EA77
:1014D8000840A0FB0295A4EB0E04AC42C846AE46F9
:1014E80056D353D0002E69D0B3EB080264EB0E0438
:1014F80022FA01F304FA07F71F43CC40C6E9007447
:10150800002147E70CFA02FCC2F1200125FA01F399
:101518004FEA1C4720FA01F195400D43B3FBF7F160
:1015280007FB11331FFA8CFE280C40EA034001FB2D
:101538000EF3834204FA02F408D91CEB000001F10F
:10154800FF382FD283422DD902396044C01AB0FB2C
:10155800F7F307FB1300ADB245EA004503FB0EF0B5
:10156800A84208D91CEB050503F1FF3816D2A8429A
:1015780014D9023B6544281A43EA014138E7314649
:10158800304607E72F46E4E61846F9E64B45A9D268
:10159800B9EB020865EB0C0E0138A3E74346EAE70E
:1015A800284694E74146D1E7D0467BE764440238B1
:1015B80047E7023B65442FE7084606E73146E9E678
:1015C800704700BFF8B504464069FFF787FB05463A
:1015D80001462068FFF784FB064620602946A0687C
:1015E800FFF786FC0746E1683046FFF781FC0146B5
:1015F8003846FFF775FB0646276961682846FFF7F6
:101608006DFB01463846FFF773FC01463046FFF78D
:1016180067FB064665600749FFF71CFE30B90649B7
:101628003046FFF70DFE18B93046F8BD014EFBE70E
:10163800014EF9E700007A4400007AC4024B1860B2
:10164800024B1960704700BFF4090020F809002018
:101658002DE9F84305460E4600F070FE1F49FFF7D6
:10166800FBFC1F49FFF744FC04463046FEF7B2FF77
:1016780006460F4629462046FFF730FBFEF7AAFF2D
:101688008046894609F054FB02460B4630463946E7
:10169800FEF7F8FFFFF7CEFA05464046494609F03F
:1016A80099FB02460B4630463946FEF7EBFFFFF73B
:1016B800C1FA064601462846FFF712FB0446094BC5
:1016C800586131462846FFF709FB074B5861074B1D
:1016D8005861074B5C61BDE8F88300BF00003443E4
:1016E800DA0F4940000A0020180A0020300A0020BA
:1016F800480A00200000000038B50268BA4B1B6891
:101708009A4200D038BDB94B1968B94B1868FFF731
:101718009FFFB84A136801331360B74A82FB03126C
:10172800D118DA17C2EBE102C2EB0212934200F0C1
:101738001F81B24B1B68586AB0F5004F01DDA0F558
:10174800803000225A62FEF733FF0022AC4BFEF7CE
:1017580099FFA3A3D3E90023FEF794FFFFF76AFAE2
:101768000546A84C6168FFF7BBFA6060A14B1C688E
:10177800A14B83FB04231A19E317C3EBE203C3EB62
:1017880003139C4200F0FE8029469F48FFF71AFF8A
:1017980004460021FFF74AFD002840F001819B4DD7
:1017A80000224FF48061284602F032FA01224FF4F9
:1017B8000061284602F02CFA954B1D682046FFF779
:1017C8005DFD6863934B1B68586AB0F5004F01DDF7
:1017D800A0F5803000225A62FEF7EAFE0022884B0C
:1017E800FEF750FF7EA3D3E90023FEF74BFFFFF778
:1017F80021FA0546834CA168FFF772FAA0607D4B79
:101808001C687D4B83FB04231A19E317C3EBE2031F
:10181800C3EB03139C4200F0D38029467E48FFF7B0
:10182800D1FE04460021FFF701FD002840F00481A5
:10183800764D00221021284602F0EAF901222021E3
:10184800284602F0E5F9724B1D682046FFF716FDA1
:10185800A863724B1B68586AB0F5004F01DDA0F50C
:10186800803000225A62FEF7A3FE0022644BFEF786
:1018780009FF5BA3D3E90023FEF704FFFFF7DAF9BA
:101888000546604CE168FFF72BFAE060594B1C688D
:10189800594B83FB04231A19E317C3EBE203C3EB89
:1018A80003139C4200F0D68029465D48FFF78AFE64
:1018B80004460021FFF7BAFC002840F0D980594DB2
:1018C80000221021284602F0A3F9012220212846EF
:1018D80002F09EF94E4B1D682046FFF7CFFCE863E7
:1018E800514B1B68586AB0F5004F01DDA0F58030F8
:1018F80000225A62FEF75CFE0022414BFEF7C2FE50
:1019080037A3D3E90023FEF7BDFEFFF793F9054699
:101918003C4C2169FFF7E4F92061364B1C68364BD3
:1019280083FB04231A19E317C3EBE203C3EB031386
:101938009C4200F0AB8029463C48FFF743FE044632
:101948000021FFF773FC002840F0AE802F4D0022E5
:101958000421284602F05CF901220821284602F0F9
:1019680057F92B4B1D682046FFF788FC2864C9E609
:10197800254B5869FEF72EFE02460B462C4802F00E
:10198800A7FDD6E62B49FFF767FBFEF723FE0246C5
:101998000B46274802F09CFD1A4B00225A60F3E6DA
:1019A8001A4D01224FF48061284602F031F90022D5
:1019B8004FF40061284602F02BF904F10044FBE6DD
:1019C8001C49FFF749FBFEF705FE02460B4618487F
:1019D80002F07EFD0B4B00229A601EE7AFF30080F9
:1019E80000000040FB210940740A0020F80900208B
:1019F800F4090020FC09002089888888BC0A002096
:101A080000001A40600A0020000A0020001001406F
:101A1800DC0B0020040B0020180A00204C0B0020CF
:101A2800300A0020000C0140940B0020480A0020D6
:101A380080C6000800007041224D0122102128466E
:101A480002F0E6F800222021284602F0E1F804F12D
:101A58000044F8E61C49FFF7FFFAFEF7BBFD024613
:101A68000B461A4802F034FD194B0022DA601BE7D6
:101A7800184D01221021284602F0CAF80022202120
:101A8800284602F0C5F804F1004423E70E49FFF7A1
:101A9800E3FAFEF79FFD02460B460F4802F018FDD9
:101AA8000B4B00221A6146E7064D01220421284605
:101AB80002F0AEF800220821284602F0A9F804F145
:101AC80000444EE7001001400000704180C6000845
:101AD800600A0020000C014088C6000872B6FEE7C4
:101AE80000B591B02822002106A803F041F900238F
:101AF80001930293039304930593012206924FF4F2
:101B0800803307930A9202220D920E934FF4E0134A
:101B18000F9306A801F040FC80B90F23019302211E
:101B28000291002303934FF480620492059301A865
:101B380001F072FE20B911B05DF804FBFFF7CEFF8B
:101B4800FFF7CCFF70B582B001F0D8FBFFF7C8FFF4
:101B580000F0A6F802F0B8FB00F0FCF800F032F94B
:101B680000F062F900F092F900F0C2F900F0F4FA1E
:101B780002F0E6FB02F0CAFB394800F07DFB394869
:101B880000F026FF384C0021204601F047FA0421D6
:101B9800204601F043FA0821204601F03FFA0C21C3
:101BA800204601F03BFA3C21304801F0B1FA3C21D3
:101BB8002F4801F0ADFA3C212E4801F0A9FA3C214A
:101BC8002D4801F0A5FA2D482D4981604FF07E522D
:101BD800C2602C4B03612C488160C26003612B48B2
:101BE8008160C26003612A488160C260036129483C
:101BF80000F01CFD4FF47A7001F0A4FB4FF4E130C3
:101C080000F046FB00F062FB00F06EFB00F07AFB90
:101C180000F086FB204B1B78002BFBD000F0B2FDB8
:101C280000F02CFD00F094FD0190BDF90660C6F1AE
:101C38007E06BDF90400C0F17E00FEF7B9FC04463B
:101C48000D463046FEF7B4FC22462B4609F01AF939
:101C5800FEF7F0FF00F100401049FFF7EFFCD9E76D
:101C6800C40E0020740A0020DC0B0020BC0A0020EF
:101C7800040B00204C0B0020940B0020000A0020CD
:101C88003333333F00002041180A0020300A002077
:101C9800480A0020080F00206A0D00200000F041CB
:101CA8002DE9F04188B00024049405940694079423
:101CB800254B9A6942F020029A619A6902F0200243
:101CC8000092009A9A6942F010029A619A6902F0A9
:101CD80010020192019A9A6942F004029A619A6983
:101CE80002F004020292029A9A6942F008029A618A
:101CF8009B6903F008030393039BDFF85080224697
:101D080040F63C41404601F083FF114D2246302108
:101D1800284601F07DFF40F63C43049301270597D0
:101D280006940226079604A9404601F051FE302386
:101D3800049305970694079604A9284601F048FEDF
:101D480008B0BDE8F08100BF00100240001001405B
:101D5800000C014000B587B000230293039304935D
:101D68000593009301931548154A02604722426083
:101D7800836040F2E732C26003614361836100F02F
:101D880071FF90B94FF48053029302A90B4801F0F8
:101D9800C9F868B90023009301936946074801F020
:101DA8001DFA40B907B05DF804FBFFF797FEE9E7B5
:101DB800FFF794FEEEE7FFF791FEF3E7740A0020C1
:101DC800002C014000B58DB02422002103A802F0A8
:101DD800CFFF00230193029312484FF08042026024
:101DE800436083604FF6FF72C2600361836103231F
:101DF800039301230593099303A900F08BFF50B9BE
:101E080000230193029301A9064801F0E7F928B9D4
:101E18000DB05DF804FBFFF761FEF1E7FFF75EFE2A
:101E2800F6E700BFBC0A002000B58DB024220021CF
:101E380003A802F09DFF0023019302931148124A60
:101E48000260436083604FF6FF72C2600361836182
:101E58000323039301230593099303A900F05AFF71
:101E680050B900230193029301A9064801F0B6F97D
:101E780028B90DB05DF804FBFFF730FEF1E7FFF776
:101E88002DFEF6E7040B00200004004000B58DB0DD
:101E98002422002103A802F06BFF00230193029380
:101EA8001148124A0260436083604FF6FF72C260B5
:101EB800036183610323039301230593099303A912
:101EC80000F028FF50B900230193029301A90648A6
:101ED80001F084F928B90DB05DF804FBFFF7FEFDA9
:101EE800F1E7FFF7FBFDF6E74C0B00200008004088
:101EF80000B58DB02422002103A802F039FF002389
:101F0800019302931148124A0260436083604FF6BE
:101F1800FF72C26003618361032303930123059366
:101F2800099303A900F0F6FE50B900230193029328
:101F380001A9064801F052F928B90DB05DF804FB73
:101F4800FFF7CCFDF1E7FFF7C9FDF6E7940B00209A
:101F5800000C004000B583B00368134A934205D0D3
:101F6800124A934215D003B05DF804FB104B9A69EE
:101F780042F400629A619B6903F400630093009B3A
:101F880000221146192002F043F9192002F078F9CD
:101F9800E9E7074B9A6942F400529A619B6903F496
:101FA80000530193019BDEE7002C014000340140FF
:101FB8000010024000B58FB000230A930B930C93D6
:101FC8000D930368B3F1804F0BD0484A93423FD03A
:101FD800474A934256D0474A93426DD00FB05DF8B6
:101FE80004FB03F50433DA6942F00102DA61DA69C5
:101FF80002F001020192019A9A6942F004029A6180
:102008009A6902F004020292029A9A6942F008025E
:102018009A619B6903F008030393039B4FF4004301
:102028000A930AA9344801F0D3FC08230A93002331
:102038000B930C930AA9314801F0CAFC304A536843
:1020480023F4407343F0E06343F480735360C5E7BF
:102058002C4BDA6942F00202DA61DA6902F0020214
:102068000492049A9A6942F004029A619B6903F007
:1020780004030593059BC0230A930AA91E4801F08F
:10208800A7FCABE71F4BDA6942F00402DA61DA69B0
:1020980002F004020692069A9A6942F008029A61CE
:1020A8009B6903F008030793079BC0230A930AA9B7
:1020B800124801F08DFC91E7124BDA6942F00802F0
:1020C800DA61DA6902F008020892089A9A6942F01D
:1020D80004029A619B6903F004030993099B032393
:1020E8000A930AA9044801F073FC77E7000400404A
:1020F80000080040000C004000080140000C0140AE
:10210800000001400010024000B587B00023029390
:1021180003930493059302680D4B9A4202D007B0CB
:102128005DF804FB03F55C439A6942F010029A617A
:102138009B6903F010030193019B4FF470730293A2
:1021480002230393059302A9024801F041FCE6E744
:10215800003401400010014010B596B000241294DC
:102168001394149415941094119409940A940B944C
:102178000C940D940E940F942022214601A802F08D
:10218800F7FD3B483B4B036047234360846040F2C4
:10219800E733C36004614461846100F063FD002893
:1021A8004BD14FF48053129312A9314800F0BAFE74
:1021B800002845D12E4800F081FD002843D1002396
:1021C8001093119310A92A4801F008F800283DD16E
:1021D8006023099300220A920B920C920D920E92A0
:1021E8000F9209A9224800F029FE002831D10422C3
:1021F80009A91F4800F022FE70BB082209A91C4843
:1022080000F01CFE58BB0C2209A9194800F016FE64
:1022180040BB0023019302930393049305934FF467
:1022280000520692089301A9114801F015F8E0B987
:102238000F48FFF769FF16B010BDFFF74FFCB0E776
:10224800FFF74CFCB6E7FFF749FCB8E7FFF746FC99
:10225800BEE7FFF743FCCAE7FFF740FCCDE7FFF70F
:102268003DFCD0E7FFF73AFCD3E7FFF737FCDFE7A1
:10227800DC0B00200034014008B5034B18600B222A
:10228800024902F0DFFC08BD680C00205C0C00204D
:1022980008B5B0F5E13F03D0B0F5165F09D008BD29
:1022A8004FF0FF33032207490748006802F037FA66
:1022B800F5E74FF0FF33032202490348006802F0B4
:1022C8002EFAECE708000020680C002008B54FF053
:1022D800FF33032202490348006802F020FA08BDD0
:1022E8000C000020680C002008B54FF0FF330322D3
:1022F80002490348006802F012FA08BD04000020F1
:10230800680C002008B54FF0FF3303220249034848
:10231800006802F004FA08BD00000020680C0020E4
:1023280008B54FF0FF33032202490348006802F062
:10233800F6F908BD10000020680C0020014B9868D1
:10234800704700BF300C002038B5164CE078A378F1
:1023580043EA0020FEF778FD4FF06051FEF7C8FD14
:102368001149FEF7C5FD114D28606079237943EACC
:102378000020FEF769FD4FF06051FEF7B9FD0A49EC
:10238800FEF7B6FD6860E079A37943EA0020FEF71E
:102398005BFD4FF06051FEF7ABFD0349FEF7A8FD6A
:1023A800A86038BD500C002000003443300C0020D9
:1023B80038B5274CE078A37843EA0020FEF744FDBF
:1023C8004FF06051FEF794FD4FF08341FEF790FD0A
:1023D800FEF700F91CA3D3E90023FEF753F9FEF733
:1023E80029FC1C4D28606079237943EA0020FEF718
:1023F8002BFD4FF06051FEF77BFD4FF08341FEF758
:1024080077FDFEF7E7F810A3D3E90023FEF73AF9C2
:10241800FEF710FC6860E079A37943EA0020FEF734
:1024280013FD4FF06051FEF763FD4FF08341FEF757
:102438005FFDFEF7CFF804A3D3E90023FEF722F9E6
:10244800FEF7F8FBA86038BD9A99999999992340A5
:10245800500C0020240C002038B5164CE078A378E6
:1024680043EA0020FEF7F0FC4FF06051FEF740FD14
:102478001149FEF73DFD114D28606079237943EA43
:102488000020FEF7E1FC4FF06051FEF731FD0A49EC
:10249800FEF72EFD6860E079A37943EA0020FEF795
:1024A800D3FC4FF06051FEF723FD0349FEF720FDF2
:1024B800A86038BD500C00200000FA44400C0020F1
:1024C80008B50D4B5A7A187A40EA02200B4B83FB69
:1024D8000030C011FEF76CF805A3D3E90023FDF71F
:1024E8001BFFFEF7A7FB064B186008BDAFF3008083
:1024F800A4703D0AD7434240500C002061606060E0
:102508003C0C002008B50A4B5B78DBB2522B09D093
:10251800532B0AD0512B02D0FFF7D2FF08BDFFF78B
:1025280047FFF9E7FFF798FFF6E7FFF70DFFF3E737
:10253800500C002010B5002410E00A2B1AD01D49B9
:102548000A5D1D4890F800C062440270581C1B4A7E
:1025580010700A5DD2B21A49CA5401340A2C21DC1F
:10256800164B1B78002BE8D1124A125DD2B2552ABD
:10257800E3D0F2E70F4A125DD2B20F4909788A42D6
:1025880005D000230D4A13700B4A1370E5E7591C58
:102598000A4A1170074A125DD2B20949CA54FFF7B4
:1025A800B1FFEEE70B220349064B186802F04AFB1D
:1025B80010BD00BF5C0C00206C0C00204C0C0020EF
:1025C800500C0020680C002084460023184603E0C5
:1025D8001CF80320504001338B42F9DB70470000A0
:1025E80008B5084B1B68834200D008BD002283F859
:1025F8003C2005490A70C8220449184602F03EFBEF
:10260800F3E700BF340E00206A0D00206C0D002097
:10261800044B1B68834200D07047034B01221A7099
:10262800FAE700BF340E00206A0D002070B504469A
:102638000D4DC82632460021284602F099FB642237
:1026480000210A4802F094FB96220021084802F073
:102658008FFB084B1C60084B00221A703246294633
:10266800204602F00BFB70BD6C0D0020700C0020A2
:10267800D40C0020340E00206A0D00202DE9F04112
:10268800002411E0642200212C4802F071FB002391
:1026980006E008EB03022A49895C284AD154013331
:1026A8009E42F6DC0134A4B2C72C34D82546244B0C
:1026B8001B5D552BF6D1631C214AD35CAA2BF1D1A3
:1026C800E31CD65EB3B2962BECD8A319C12B22DC3F
:1026D80004F106081746314602EB0800FFF774FFBD
:1026E800631DFB5C8342DDD102357B5D012BC9D0C4
:1026F800052BD7D196220021124802F039FB00237E
:1027080006E008EB03020E49895C0E4AD1540133F6
:102718009E42F6DCC6E70A4CC8252A460021204618
:1027280002F026FB084B00221A702A462146074B66
:10273800186802F0A3FABDE8F08100BF700C002011
:102748006C0D0020D40C00206A0D0020340E0020EF
:1027580082B00B4BB3F90920ADF80020B3F90B3068
:10276800ADF80230009B01930020BDF8043063F3FC
:102778000F00BDF8063063F31F4002B0704700BF7A
:10278800D40C002008B54FF0FF3306220249034855
:10279800006801F0C4FF08BD14000020340E0020BA
:1027A800FEE7FEE7FEE7FEE7FEE770477047704783
:1027B80008B500F0B5FD08BD08B5024801F0A0FB5A
:1027C80008BD00BF800E002008B5024801F098FB44
:1027D80008BD00BF3C0E002008B5024800F039F9DA
:1027E80008BD00BF740A002008B5024802F0B0F81E
:1027F80008BD00BFC40E002008B5024802F0A8F8C2
:1028080008BD00BF080F002082B00E4B9A6942F045
:1028180001029A619A6902F001020092009ADA694B
:1028280042F08052DA61DB6903F080530193019B27
:10283800054A536823F0E06343F00073536002B025
:10284800704700BF001002400000014030B4036A26
:1028580023F001030362036A4268846924F0730465
:102868000D682C4323F0020C8B6843EA0C03104DCF
:10287800A84203D005F50065A84205D123F0080356
:10288800CD682B4323F00403094DA84203D005F576
:102898000065A84205D122F440724D692A438D692A
:1028A8002A43426084614A684263036230BC7047CD
:1028B800002C014030B4036A23F480730362036A76
:1028C8004268C46924F0730C0C6844EA0C0523F4CC
:1028D80000738C6843EA0423114CA04203D004F52A
:1028E8000064A04206D123F40063CC6843EA0423C1
:1028F80023F480630A4CA04203D004F50064A0428C
:1029080007D122F440524C6942EA04128C6942EA27
:1029180004124260C5614A68C263036230BC7047F2
:10292800002C014030B4036A23F480530362036A25
:102938004468C26922F4E6420D6842EA052223F49B
:1029480000538D6843EA0533094DA84203D005F5C5
:102958000065A84204D124F480444D6944EA8514F2
:102968004460C2614A680264036230BC704700BFB9
:10297800002C014010B4036A046A24F001040462C4
:10298800846924F0F00C4CEA021223F00A030B438A
:102998008261036210BC704710B4046A24F010040A
:1029A80004628469036A24F4704C4CEA023223F00E
:1029B800A00343EA01138261036210BC7047836875
:1029C80023F070030B4343F0070383607047000054
:1029D80090F83D30DBB2012B2FD1022380F83D3037
:1029E8000268D36843F00103D3600368154A934231
:1029F80018D002F50062934214D0B3F1804F11D081
:102A0800A2F5983293420DD002F58062934209D024
:102A180002F58062934205D01A6842F001021A60FA
:102A2800002070479A6802F00702062A07D01A6841
:102A380042F001021A600020704701207047002010
:102A4800704700BF002C01407047704770477047BF
:102A5800704710B5044603681A6912F0020F11D0C6
:102A6800DA6812F0020F0DD06FF002021A6101232A
:102A7800037703689B6913F0030F70D0FFF7E6FF35
:102A88000023237723681A6912F0040F12D0DA683A
:102A980012F0040F0ED06FF004021A61022323779C
:102AA80023689B6913F4407F5FD02046FFF7CEFF71
:102AB8000023237723681A6912F0080F12D0DA6806
:102AC80012F0080F0ED06FF008021A610423237762
:102AD8002368DB6913F0030F4ED02046FFF7B6FFDB
:102AE8000023237723681A6912F0100F12D0DA68CE
:102AF80012F0100F0ED06FF010021A61082323771E
:102B08002368DB6913F4407F3DD02046FFF79EFF22
:102B18000023237723681A6912F0010F03D0DA68BB
:102B280012F0010F36D123681A6912F0800F03D012
:102B3800DA6812F0800F34D123681A6912F0400F56
:102B480003D0DA6812F0400F32D123681A6912F004
:102B5800200F03D0DA6812F0200F30D110BDFFF734
:102B680074FF2046FFF773FF8AE72046FFF76DFFE3
:102B78002046FFF76CFF9BE72046FFF766FF2046DD
:102B8800FFF765FFACE72046FFF75FFF2046FFF73A
:102B98005EFFBDE76FF001021A612046FEF7ACFD4B
:102BA800C1E76FF080021A61204600F07FFBC3E79F
:102BB8006FF040021A612046FFF74AFFC5E76FF041
:102BC80020021A61204600F070FBC7E70368244A18
:102BD800904212D002F5006290420ED0B0F1804FC0
:102BE8000BD0A2F59832904207D002F5806290424D
:102BF80003D002F58062904203D123F070034A6843
:102C08001343174A904212D002F5006290420ED048
:102C1800B0F1804F0BD0A2F59832904207D002F560
:102C28008062904203D002F58062904203D123F47F
:102C38004073CA68134323F080034A69134303604F
:102C48008B68C3620B688362054B984203D003F517
:102C58000063984201D10B69036301234361704704
:102C6800002C014040B310B5044690F83D30F3B154
:102C7800022384F83D30214651F8040BFFF7A6FFE4
:102C8800012384F8463084F83E3084F83F3084F8D5
:102C9800403084F8413084F8423084F8433084F876
:102CA800443084F8453084F83D30002010BD80F869
:102CB8003C30FFF74FF9DBE70120704740B310B510
:102CC800044690F83D30F3B1022384F83D302146A4
:102CD80051F8040BFFF77AFF012384F8463084F893
:102CE8003E3084F83F3084F8403084F8413084F82E
:102CF800423084F8433084F8443084F8453084F80E
:102D08003D30002010BD80F83C30FFF79DFEDBE72A
:102D180001207047002857D070B50D46044690F83A
:102D28003D30002B4BD0022384F83D302268936855
:102D380023F4804323F007039360214651F8040BE2
:102D4800FFF744FF21688A688B690E6A2868104378
:102D580023F4407C2CF0030CAA68AB6942EA0323F5
:102D680043EA0C0323F47C4323F0FC03EA69D5F817
:102D78000CC04CEA022C4CEA030C2A6A13032A6999
:102D880043EA021343EA0C0326F022066A686D69D7
:102D980042EA05123243886021688B6123681A620F
:102DA800012384F8463084F83E3084F83F3084F8B4
:102DB800423084F8433084F83D30002070BD80F8FC
:102DC8003C30FFF7F7F8AEE70120704730B4036AEC
:102DD80023F010030362036A4468826922F4E6421E
:102DE8000D6842EA052223F020038D6843EA0513A3
:102DF800114DA84203D005F50065A84206D123F07D
:102E08008003CD6843EA051323F040030A4DA84226
:102E180003D005F50065A84207D124F440644D6944
:102E280044EA85048D6944EA8504446082614A68FD
:102E38008263036230BC7047002C014038B590F8BB
:102E48003C30012B60D004460D46012380F83C300D
:102E58000C2A1AD8DFE802F0071919191D191919CF
:102E68003119191944000068FFF7F0FC22689369CA
:102E780043F0080393612268936923F00403936184
:102E88002268936929690B439361002084F83C0008
:102E980038BD0068FFF79AFF2268936943F400631E
:102EA80093612268936923F480639361226893692C
:102EB800296943EA01239361E7E70068FFF7FAFC11
:102EC8002268D36943F00803D3612268D36923F0E9
:102ED8000403D3612268D36929690B43D361D4E71A
:102EE8000068FFF71FFD2268D36943F40063D361CC
:102EF8002268D36923F48063D3612268D36929697E
:102F080043EA0123D361C0E70220C1E710B4846813
:102F180024F47F4C42EA03220A4342EA0C0282600C
:102F280010BC704790F83C30012B66D010B50446B1
:102F3800012380F83C30022380F83D300268936812
:102F480023F47F4323F0770393600B68602B40D012
:102F580022D8402B47D00BD9502B0ED1CA684968CC
:102F68000068FFF707FD50212068FFF728FD04E0FF
:102F7800202B0CD008D9302B09D0012384F83D3000
:102F8800002084F83C0010BD0BB1102BF5D1194678
:102F98002068FFF714FDF0E7702B0ED0B3F5005F43
:102FA800EBD1CB684A6889680068FFF7AFFF2268F1
:102FB800936843F480439360DFE7CB684A68896885
:102FC8000068FFF7A3FF2268936843F077039360D4
:102FD800D3E7CA6849680068FFF7DEFC602120680B
:102FE800FFF7EDFCC9E7CA6849680068FFF7C2FC4B
:102FF80040212068FFF7E3FCBFE70220704701F09B
:103008001F01012303FA01FC036A23EA0C0303628C
:10301800036A02FA01F10B430362704710B50446D4
:10302800084600293AD194F83E30DBB2013B18BF7C
:103038000123002B66D1002849D1022384F83E30B1
:10304800012201462068FFF7DAFF23682F4A9342DE
:1030580003D002F50062934203D15A6C42F4004255
:103068005A642368294A934241D002F50062934288
:103078003DD0B3F1804F3AD0A2F59832934236D082
:1030880002F58062934232D002F5806293422ED0DC
:103098001A6842F001021A60002032E0042908D0C0
:1030A80008290DD094F84130DBB2013B18BF012349
:1030B800BFE794F83F30DBB2013B18BF0123B8E704
:1030C80094F84030DBB2013B18BF0123B1E7042874
:1030D80005D0082807D0022384F84130B0E702233E
:1030E80084F83F30ACE7022384F84030A8E79A68B8
:1030F80002F00702062A07D01A6842F001021A6095
:10310800002010BD0120FCE70020FAE7002C014058
:1031180038B5044690F83E00C0B294F83F3094F8B1
:103128004220D2B294F843C00D46B1B9012849D122
:10313800012A48D1022384F83E3084F842307DB316
:10314800042D39D0012200212068FFF758FF012201
:1031580004212068FFF753FF27E0DBB25FFA8CFCFD
:10316800042912D0012833D1012B2CD1012A31D1C5
:10317800BCF1010F30D1022384F83E3084F83F308F
:1031880084F8423084F84330D9E7012B1CD1BCF1D4
:10319800010F1BD1022384F83F3084F84330CEE777
:1031A800012200212068FFF72AFF2268136843F0F4
:1031B80001031360002006E0012204212068FFF7C4
:1031C8001EFFF2E7012038BD0120FCE71846FAE7A8
:1031D8000120F8E71846F6E71046F4E790F83C3087
:1031E800012B34D010B4012380F83C30022380F83E
:1031F8003D3003685A689C6822F0700C0A6842EAFD
:103208000C025A600368134A934212D002F5006216
:1032180093420ED0B3F1804F0BD0A2F5983293426F
:1032280007D002F58062934203D002F58062934290
:1032380004D124F080044A6814439C60012380F878
:103248003D30002380F83C30184610BC70470220FF
:10325800704700BF002C014090F83C30012B22D071
:10326800012380F83C30CB6823F440738A68134309
:1032780023F480634A68134323F400630A68134302
:1032880023F480530A69134323F400534A69134310
:1032980023F48043CA69134302685364002380F807
:1032A8003C3018467047022070477047704700004E
:1032B80010B504460E4B18784FF47A73B3FBF0F34D
:1032C8000C4A1068B0FBF3F000F0E8FF68B90F2C67
:1032D80001D901200AE0002221464FF0FF3000F01A
:1032E80097FF054B1C60002000E0012010BD00BFC7
:1032F80020000020280000202400002008B5074AEC
:10330800136843F010031360032000F06FFF0F20D1
:10331800FFF7CEFFFFF778FA002008BD0020024033
:10332800034A1168034B1B780B441360704700BFB6
:10333800380E002020000020014B1868704700BF9D
:10334800380E002038B50446FFF7F6FF0546B4F1FD
:10335800FF3F02D0044B1B781C44FFF7EDFF401BD6
:10336800A042FAD338BD00BF2000002082B0084B2D
:103378001B68084AA2FB03235B0A00FB03F30193C3
:1033880000BF019B5A1E0192002BF9D102B0704771
:1033980028000020D34D6210002800F0F18170B59C
:1033A80082B00446036813F0010F2CD0994B5B6878
:1033B80003F00C03042B1DD0964B5B6803F00C0341
:1033C800082B12D06368B3F5803F41D0002B55D14C
:1033D80003F1804303F504331A6822F480321A603B
:1033E8001A6822F480221A6037E08A4B5B6813F46B
:1033F800803FE7D0874B1B6813F4003F03D0636816
:10340800002B00F0BF81236813F0020F75D0814BA9
:103418005B6813F00C0F5FD07E4B5B6803F00C0306
:10342800082B54D02369002B00F08A807A4B0122A4
:103438001A60FFF781FF0546764B1B6813F0020FF1
:1034480075D1FFF779FF401B0228F5D903209EE1CB
:10345800704A136843F480331360636843B3FFF71B
:103468006BFF05466B4B1B6813F4003FCBD1FFF78E
:1034780063FF401B6428F5D9032088E1B3F5A02F2A
:1034880009D0644B1A6822F480321A601A6822F450
:1034980080221A60E1E703F18043A3F53C331A6800
:1034A80042F480221A601A6842F480321A60D4E723
:1034B800FFF742FF0546574B1B6813F4003FA2D0A5
:1034C800FFF73AFF401B6428F5D903205FE1514B11
:1034D8005B6813F4803FA5D14E4B1B6813F0020FB5
:1034E80003D02369012B40F04F814A4A136823F027
:1034F800F803616943EAC1031360236813F0080FF6
:1035080033D0A369002B5CD0434B0122C3F880243D
:10351800FFF712FF05463F4B5B6A13F0020F21D1FC
:10352800FFF70AFF401B0228F5D903202FE1394A8B
:10353800136823F0F803616943EAC1031360DCE709
:10354800354B00221A60FFF7F7FE0546314B1B6822
:1035580013F0020FD1D0FFF7EFFE401B0228F5D978
:10356800032014E10120FFF701FF236813F0040F83
:1035780000F09680274BDB6913F0805F34D1254B30
:10358800DA6942F08052DA61DB6903F08053019313
:10359800019B0125214B1B6813F4807F26D0E3682B
:1035A800012B3DD0002B53D103F1804303F50433A5
:1035B8001A6A22F001021A621A6A22F004021A62D6
:1035C80033E0154B0022C3F88024FFF7B5FE05460B
:1035D800104B5B6A13F0020FC7D0FFF7ADFE401B1C
:1035E8000228F5D90320D2E00025D3E70B4A136857
:1035F80043F480731360FFF79FFE0646074B1B6872
:1036080013F4807FCBD1FFF797FE801B6428F5D990
:103618000320BCE00010024000004242007000405D
:103628005F4A136A43F001031362E36833B3FFF799
:1036380083FE06465A4B1B6A13F0020F2FD1FFF781
:103648007BFE801B41F288339842F3D903209EE029
:10365800052B09D0524B1A6A22F001021A621A6A23
:1036680022F004021A62E0E74D4B1A6A42F00402A3
:103678001A621A6A42F001021A62D6E7FFF75CFE84
:103688000646474B1B6A13F0020F08D0FFF754FE9B
:10369800801B41F288339842F3D9032077E0E5B9DB
:1036A800E369002B72D03E4A526802F00C02082AE5
:1036B80056D0022B17D03B4B00221A66FFF73CFE70
:1036C8000446374B1B6813F0007F47D0FFF734FEE2
:1036D800001B0228F5D9032059E0314AD36923F0A9
:1036E8008053D361DCE72F4B00221A66FFF724FED4
:1036F80005462B4B1B6813F0007F06D0FFF71CFE16
:10370800401B0228F5D9032041E0236AB3F5803F26
:103718001AD023494B6823F47413226A606A02435F
:1037280013434B601F4B01221A66FFF705FE044640
:103738001B4B1B6813F0007F0ED1FFF7FDFD001B2C
:103748000228F5D9032022E0154A536823F40033F0
:10375800A1680B435360DCE7002018E0002016E066
:10376800012B16D00E4B5B6803F48031226A91421C
:1037780011D103F47013626A93420ED1002006E05F
:1037880001207047012002E0012000E0002002B083
:1037980070BD0120FBE70120F9E70120F7E700BF32
:1037A800001002400000424286B0174B0FCB0DF1CB
:1037B800180C0CE90F0040F20123ADF80430134B4C
:1037C8005B6803F00C02082A02D0114806B0704763
:1037D800C3F3834218326A4412F8100C13F4803F82
:1037E8000DD00A4B5B68C3F3404318336B4413F89E
:1037F800143C074A02FB00F0B0FBF3F0E6E7054B88
:1038080003FB00F0E2E700BF90C60008001002408A
:1038180000127A0000093D00002800F0A08070B571
:103828000D460446524B1B6803F007038B420BD22C
:103838004F4A136823F007030B431360136803F020
:1038480007038B4240F08D80236813F0020F17D0D6
:1038580013F0040F04D0474A536843F4E0635360FD
:10386800236813F0080F04D0424A536843F46053A6
:103878005360404A536823F0F003A1680B43536038
:10388800236813F0010F31D06368012B20D0022B7D
:1038980025D0384A126812F0020F64D035494A68B8
:1038A80022F0030213434B60FFF746FD0646314BF7
:1038B8005B6803F00C036268B3EB820F16D0FFF766
:1038C8003BFD801B41F288339842F0D9032045E044
:1038D800284A126812F4003FE0D101203EE0254A50
:1038E800126812F0007FD9D1012037E0204B1B6805
:1038F80003F00703AB420AD91D4A136823F00703F4
:103908002B431360136803F00703AB422DD12368E0
:1039180013F0040F06D0174A536823F4E063E168F4
:103928000B435360236813F0080F07D0114A5368FC
:1039380023F46053216943EAC1035360FFF734FF5E
:103948000C4B5B68C3F303130B4AD35CD8400B4B97
:1039580018600B4B1868FFF7ABFC002070BD012006
:1039680070470120FAE70120F8E70120F6E700BFD9
:103978000020024000100240A4C6000828000020D1
:1039880024000020014B1868704700BF2800002061
:1039980008B5FFF7F7FF044B5B68C3F30223034A3C
:1039A800D35CD84008BD00BF00100240B4C6000870
:1039B80008B5FFF7E7FF044B5B68C3F3C223034A6C
:1039C800D35CD84008BD00BF00100240B4C6000850
:1039D80070B582B00024A446B0E0874DAA4210D04A
:1039E80007D9864DAA420CD005F58035AA4208D0E1
:1039F80013E0A5F58015AA4203D005F57025AA4263
:103A080007D18A68002A62D0012A5BD04361082462
:103A180003E0A5F58015AA42F3D0BEF1FF0F58D8F0
:103A28000646BEF1FF0F56D84FEA8C0233680F25C1
:103A3800954023EA050304FA02F2134333604B6806
:103A480013F0805F78D06E4B9A6942F001029A6158
:103A58009B6903F001030193019B4FEA9C02951CAB
:103A6800684B53F825600CF003039D000F23AB400F
:103A780026EA0306644B984233D003F580639842E4
:103A880000F0988003F58063984200F0958003F574
:103A98008063984200F0928003F58063984200F0BA
:103AA8008F8003F58063984219D006231AE0CC680A
:103AB800B3E7CC680434B0E7CC680834ADE7CC6829
:103AC8000C34AAE703610824A7E70024A5E7042427
:103AD800A3E7061DA5E7ACF108029200A6E70523B7
:103AE80000E00023AB4033430232464D45F8223014
:103AF8004B6813F4803F65D0444A136843EA0E03C9
:103B080013604B6813F4003F62D0404A536843EA9D
:103B18000E0353604B6813F4801F5FD03B4A9368D1
:103B280043EA0E0393604B6813F4001F5CD0374AD6
:103B3800D36843EA0E03D3600CF1010C0A6832FA29
:103B48000CF357D0012303FA0CF302EA030E33EA0D
:103B58000202F1D14A68122A3FF63FAF122A3FF615
:103B68005CAF01A555F822F00B3A0008B73A0008F7
:103B7800C13A0008D33A0008233A0008233A00085B
:103B8800233A0008233A0008233A0008233A000899
:103B9800233A0008233A0008233A0008233A000889
:103BA800233A0008233A0008233A0008BB3A0008E1
:103BB800C73A0008012395E7022393E7032391E717
:103BC80004238FE7114A136823EA0E03136098E76A
:103BD8000E4A536823EA0E0353609BE70B4A936827
:103BE80023EA0E0393609EE7084AD36823EA0E038C
:103BF800D360A1E702B070BD0000221000003110B0
:103C0800001002400000014000080140000401408B
:103C18000AB10161704709040161704730B4012499
:103C2800056CAC40C56B6C60046863604368102B1E
:103C380005D0036899600368DA6030BC7047036890
:103C48009A600368D960F8E700283AD010B40246B1
:103C580000681D4B984229D81C4B03441C49A1FB02
:103C680003131B099B0013641A4BD363022382F8C6
:103C78002130016821F47F5121F0300153689468A4
:103C88002343D46823431469234354692343946921
:103C98002343D46923430B4303600020906301232B
:103CA80082F8213082F8200010BC70470A4B034488
:103CB8000749A1FB03131B099B001364074BD3633C
:103CC800D4E70120704700BF07040240F8FFFDBF9A
:103CD800CDCCCCCC00000240F8FBFDBF0004024074
:103CE80038B5044690F82000012831D0012084F826
:103CF800200094F82100012804D0002384F8203003
:103D0800022038BD022084F821000020A063256825
:103D1800286820F0010028602046FFF77FFFE36A4B
:103D28005BB12268136843F00E03136022681368BE
:103D380043F0010313600020E3E72268136823F0CF
:103D4800040313602268136843F00A031360EDE765
:103D58000220D6E790F82130022B06D00423836393
:103D6800002380F82030012070470268136823F090
:103D78000E0313600268136823F001031360036CD9
:103D8800C16B012202FA03F34B6080F82120002363
:103D980080F820301846704708B590F82130022B7B
:103DA80003D004238363012008BD0268136823F04D
:103DB8000E0313600268136823F00103136003689D
:103DC8004B4A93424ED9783A934224D014329342C4
:103DD80030D0143293422FD0143293422FD0143261
:103DE80093422FD0143293422FD0143293422FD0C3
:103DF80002F5627293422ED0143293422DD01432BF
:103E080093422CD01432934202D04FF4803203E014
:103E18004FF4805200E00122364B5A60012380F8AB
:103E28002130002380F82030436B002B5ED0984768
:103E38000020B9E71022EFE74FF48072ECE74FF467
:103E48008052E9E74FF48032E6E74FF48012E3E767
:103E58004FF08072E0E70122DEE71022DCE74FF442
:103E68008072D9E7244A934224D01432934225D051
:103E78001432934224D01432934224D01432934201
:103E880024D01432934224D01432934224D002F521
:103E98006272934223D01432934222D01432934256
:103EA80021D01432934202D04FF4803203E04FF411
:103EB800805200E00122114B5A60AFE71022FAE766
:103EC8004FF48072F7E74FF48052F4E74FF48032F2
:103ED800F1E74FF48012EEE74FF08072EBE7012232
:103EE800E9E71022E7E74FF48072E4E700205BE798
:103EF8008000024000040240080002400000024026
:103F080038B5C36B1A6804682568016C04238B40B4
:103F1800134200F09B8015F0040F00F0978023688F
:103F280013F0200F03D1236823F0040323600368F0
:103F38009A4A934246D9783A934224D0143293420B
:103F480028D01432934227D01432934227D0143207
:103F5800934227D01432934227D01432934227D069
:103F680002F56272934226D01432934225D014325D
:103F7800934224D01432934202D04FF4802203E0BB
:103F88004FF4804200E00422854B5A60C36A03B1B3
:103F9800984738BD4022F7E74FF48062F4E74FF4C2
:103FA8008042F1E74FF48022EEE74FF48002EBE71E
:103FB8004FF08062E8E70422E6E74022E4E74FF4A6
:103FC8008062E1E7774A934224D01432934225D0A5
:103FD8001432934224D01432934224D014329342A0
:103FE80024D01432934224D01432934224D002F5C0
:103FF8006272934223D01432934222D014329342F5
:1040080021D01432934202D04FF4802203E04FF4BF
:10401800804200E00422644B5A60B7E74022FAE786
:104028004FF48062F7E74FF48042F4E74FF48022C0
:10403800F1E74FF48002EEE74FF08062EBE70422ED
:10404800E9E74022E7E74FF48062E4E702238B4088
:10405800134200F0AB8015F0020F00F0A780236830
:1040680013F0200F06D1236823F00A0323600123ED
:1040780080F821300368494A93424BD9783A9342F1
:1040880024D0143293422DD0143293422CD01432BF
:1040980093422CD0143293422CD0143293422CD019
:1040A800143293422CD002F5627293422BD0143210
:1040B80093422AD01432934229D01432934202D028
:1040C8004FF4003203E04FF4005200E00222344B78
:1040D8005A60002380F82030836A002B3FF459AFE0
:1040E800984756E72022F2E74FF40072EFE74FF4C3
:1040F8000052ECE74FF40032E9E74FF40012E6E72C
:104108004FF00072E3E70222E1E72022DFE74FF4F5
:104118000072DCE7234A934224D01432934225D01C
:104128001432934224D01432934224D0143293424E
:1041380024D01432934224D01432934224D002F56E
:104148006272934223D01432934222D014329342A3
:1041580021D01432934202D04FF4003203E04FF4DE
:10416800005200E00222104B5A60B2E72022FAE720
:104178004FF40072F7E74FF40052F4E74FF40032BF
:10418800F1E74FF40012EEE74FF00072EBE702227E
:10419800E9E72022E7E74FF40072E4E780000240F5
:1041A800000402400800024000000240082303FA0D
:1041B80001F111423FF4EDAE15F0080F3FF4E9AEFE
:1041C800236823F00E032360026CC16B012303FAFA
:1041D80002F24A60836380F82130002380F820309F
:1041E800036B002B3FF4D5AE9847D2E6074AD36855
:1041F80023F4E0631B041B0C000200F4E06003439B
:1042080043F0BF6343F40033D360704700ED00E030
:1042180000B5194BDB68C3F30223C3F1070CBCF1EB
:10422800040F28BF4FF0040C03F1040EBEF1060F73
:1042380018D9033B4FF0FF3E0EFA0CFC21EA0C01A3
:1042480099400EFA03F322EA0303194300280BDB13
:104258000901C9B200F1604000F5614080F800131F
:104268005DF804FB0023E5E700F00F000901C9B27F
:10427800024B1954F4E700BF00ED00E014ED00E034
:10428800002807DB00F01F02400901239340024A7F
:1042980042F82030704700BF00E100E00138B0F17B
:1042A800807F0BD24FF0E0235861054AF02182F855
:1042B80023100020986107221A6170470120704777
:1042C80000ED00E07047000000B583B00E4B5A695E
:1042D80042F001025A615B6903F001030193019BFB
:1042E800002211460D20FFF793FF0D20FFF7C8FFAE
:1042F800002211461020FFF78BFF1020FFF7C0FFA8
:1043080003B05DF804FB00BF0010024008B50A487E
:104318000A4B03604FF4E133436000238360C360BA
:1043280003610C2242618361C36100F0C9F900B9DD
:1043380008BDFDF7D3FBFBE7C40E00200044004096
:1043480008B50A480A4B03604FF4E1334360002381
:104358008360C36003610C2242618361C36100F022
:10436800AFF900B908BDFDF7B9FBFBE7080F00205E
:104378000048004070B588B00446002304930593B4
:10438800069307930368494A934204D0484A9342E4
:1043980045D008B070BD474BDA6942F40032DA61A3
:1043A800DA6902F400320092009A9A6942F0040233
:1043B8009A619B6903F004030193019B042304930E
:1043C80002230593032307933B4E04A93046FFF7C6
:1043D800FFFA0823049300250595069504A930469D
:1043E800FFF7F6FA3548364B036045608560802351
:1043F800C360056145618561C561FFF725FC58B952
:104408002E4BA3635C62002211462620FFF700FFB3
:104418002620FFF735FFBCE7FDF760FBF0E7254BEB
:10442800DA6942F48022DA61DA6902F480220292BF
:10443800029A9A6942F008029A619B6903F008039C
:104448000393039B4FF48063049302230593032390
:1044580007931C4E04A93046FFF7BAFA4FF40063DD
:10446800049300250595069504A93046FFF7B0FA90
:104478001548164B0360456085608023C36005615D
:1044880045618561C561FFF7DFFB58B90E4BA36332
:104498005C62002211462720FFF7BAFE2720FFF7AB
:1044A800EFFE76E7FDF71AFBF0E700BF0044004097
:1044B8000048004000100240000801403C0E002067
:1044C8006C000240000C0140800E002030000240C9
:1044D8000FB400B5B5B036AA52F8041B339201A840
:1044E80000F0C6FC01A800F095FC4FF0FF3382B243
:1044F80001A9044800F013F935B05DF804EB04B0E5
:10450800704700BF080F002008B5034B834200D056
:1045180008BDFEF70FF8FBE7C40E00200268D36859
:1045280023F0C003D360202380F83D307047026831
:10453800D36823F49073D3600268536923F00103AE
:104548005361036B012B05D0202380F83E300023F4
:10455800036370470268D36823F01003D360F3E75E
:1045680090F83D30DBB2212B01D0022070478368E0
:10457800B3F5805F17D0036A5A1C02621A78036881
:104588005A60C38C9BB2013B9BB2C3844BB902688F
:10459800D36823F08003D3600268D36843F04003F4
:1045A800D360002070470369002BE4D1036A1B889D
:1045B8000268C3F308035360036A02330362E0E747
:1045C80010B504460268136923F44053C1680B43CD
:1045D800136183680269134342691A430168CB680F
:1045E80023F4B05323F00C031343CB6002685369E0
:1045F80023F4407381690B4353610268134B9A4259
:1046080020D0FFF7C5F9024602EB820202EB8202D4
:1046180063689B00B2FBF3F20D48A0FB0231490925
:10462800642303FB11231B013233A0FB03235B0923
:1046380003F0F00202EB011203F00F0321681344A8
:104648008B6010BDFFF7B4F90246DDE70038014082
:104658001F85EB512DE9F84305460F461646994646
:10466800DDF820802C68246837EA04030CBF4FF07B
:10467800010C4FF0000CB4451FD1B8F1FF3FF1D049
:10468800B8F1000F05D0FEF757FEA0EB0900404532
:10469800E8D92A68D36823F4D073D3602A685369A9
:1046A80023F001035361202385F83D3085F83E301F
:1046B800002385F83C30032000E00020BDE8F883A3
:1046C80058B310B5044690F83D300BB3242384F852
:1046D8003D302268D36823F40053D3602046FFF7A7
:1046E8006FFF2268136923F49043136122685369AA
:1046F80023F02A0353612268D36843F40053D3603C
:1047080000202064202384F83D3084F83E3010BD1A
:1047180080F83C30FFF72EFED8E7012070472DE9DE
:10472800F04182B01E4690F83D30DBB2202B54D1C8
:1047380004460D469046002953D0002A53D090F8DD
:104748003C30012B51D0012380F83C300023036416
:10475800212380F83D30FEF7EFFD0746A4F82480BA
:10476800A4F82680A368B3F5805F05D04FF0000851
:10477800002384F83C3012E0236913B14FF000089D
:10478800F6E7A8460025F3E738F8023B2268C3F3AA
:1047980008035360E28C92B2013A92B2E284E38C4D
:1047A8009BB273B100963B46002280212046FFF75A
:1047B80051FFE0B9002DE7D015F8012B23685A60A6
:1047C800E8E700963B46002240212046FFF742FFDB
:1047D80078B9202384F83D3000E0022002B0BDE81B
:1047E800F0810120FAE70120F8E70220F6E703202C
:1047F800F4E70320F2E7704708B50168CA6822F0B9
:104808004002CA60202280F83D20FFF7F4FF002014
:1048180008BD704710B5446A23685A6994F83D305A
:10482800DBB2212B10D023685A6902F0400294F8B9
:104838003E30DBB2222B11D0236C43F010032364EB
:104848002046FDF7CDFE10BD02F08002002AEAD016
:104858000023E3842046FFF761FEE4E7002AEBD05B
:104868000023E3852046FFF762FEE5E708B5406AC6
:104878000023C385C384FDF7B3FE08BD90F83E301E
:10488800DBB2222B60D18368B3F5805F46D0826AA1
:10489800B3F5805F04D0002B4DD10369002B4AD1BA
:1048A80003685B681370836A01338362C38D9BB2AC
:1048B800013B9BB2C385002B48D100B583B0026889
:1048C800D36823F02003D3600268D36823F480738D
:1048D800D3600268536923F001035361202380F8F1
:1048E8003E30036B012B2CD1002303630268D3688D
:1048F80023F01003D36003681A6812F0100F06D073
:10490800002201921A6801925B680193019B818DD4
:10491800FDF77EFE002003B05DF804FB0269002A63
:10492800B5D1826A03685B68C3F308031380836A9E
:1049380002338362BAE703685B6803F07F0313708E
:10494800B1E7FFF7E1FDE5E7022070470020704777
:1049580030B583B0044602681368D068516913F013
:104968000F0505D113F0200F02D010F0200F19D138
:104978002DB111F0010119D110F4907F16D1216BDE
:10498800012975D013F0800F03D010F0800F40F08C
:10499800D78013F0400F03D010F0400F40F0D480C0
:1049A80003B030BD2046FFF769FFF9E713F0010FA8
:1049B80006D010F4807F03D0226C42F001022264FA
:1049C80013F0040F04D019B1226C42F002022264E1
:1049D80013F0020F04D019B1226C42F004022264D1
:1049E80013F0080F07D010F0200F00D119B1226C76
:1049F80042F008022264226C002AD1D013F0200F62
:104A080002D010F0200F21D123685B6903F0400326
:104A1800226C12F0080F00D123B32046FFF787FD60
:104A280023685A6912F0400F18D05A6922F04002E0
:104A38005A61A36B73B1464A5A63A06BFFF7ACF98E
:104A48000028ADD0A06B436B9847A9E72046FFF735
:104A580015FFD9E72046FDF7C3FDA1E72046FDF77E
:104A6800BFFD9DE72046FDF7BBFD0023236497E7C4
:104A780013F0100F86D010F0100F83D0002301938D
:104A88001368019353680193019B536913F0400F16
:104A980032D0A16B0B685B689BB2002B80D0A08DD5
:104AA80098427FF67DAFE3858B69202B08D1A18DD5
:104AB800E38D9BB2C91A89B22046FDF7A9FD6FE7BD
:104AC800D36823F48073D3602268536923F0010309
:104AD80053612268536923F040035361202384F80B
:104AE8003E30002323632268D36823F01003D36089
:104AF800A06BFFF72FF9DAE7A18DE38D9BB2C91AF6
:104B080089B2E38D9BB2002B3FF44AAF00293FF4F2
:104B180047AFD36823F49073D3602268536923F0B6
:104B280001035361202384F83E3000232363226865
:104B3800D36823F01003D3602046FDF769FD2FE703
:104B48002046FFF70DFD2BE72046FFF755FE27E728
:104B58007548000808B5406A036B012B02D0FFF7BF
:104B680058FE08BD818D4908FDF752FDF9E708B5E3
:104B78000346406A1B681B6813F0200F16D10023F8
:104B8800C3850268D36823F48073D36002685369CD
:104B980023F0010353610268536923F04003536112
:104BA800202380F83E30036B012B05D0036B012BCB
:104BB80008D0FFF7A9FC08BD0268D36823F01003EA
:104BC800D360F3E7818DFDF723FDF4E730B583B0BB
:104BD800044613468162828500250564222280F8F6
:104BE8003E20826B14489062A26B1448D062A26B7C
:104BF80013481063A26B556320680A46011DA06B19
:104C0800FFF76EF8019523681A6801925A680192B5
:104C1800019A84F83C50DA6842F48072DA602268BB
:104C2800536943F0010353612268536943F0400319
:104C38005361284603B030BD774B00085D4B000830
:104C48001D48000808B590F83E30DBB2202B0DD186
:104C580071B17AB190F83C30012B0DD0012380F866
:104C68003C3000230363FFF7B1FF00E0022008BDDA
:104C78000120FCE70120FAE70220F8E790F83E302F
:104C8800DBB2202B21D110B582B00446F9B102B3B2
:104C980090F83C30012B1FD0012380F83C3003638F
:104CA800FFF794FFB0B9236B012B01D0012011E06D
:104CB8000023019323681A6801925A680192019AA5
:104CC800DA6842F01002DA6004E00220704701203E
:104CD80000E0012002B010BD0220FBE70C480D499E
:104CE8000D4A002302E0D458C4500433C4188C423F
:104CF800F9D30A4A0A4C002301E013600432A242A5
:104D0800FBD3FFF7DFFA00F00FF8FCF71BFF704743
:104D180000000020D809002014CD0008D809002080
:104D2800980F0020FEE7000070B50D4E0D4D761B64
:104D3800B61006D0002455F8043B01349847A64223
:104D4800F9D1094E094D07F089FC761BB61006D03B
:104D5800002455F8043B01349847A642F9D170BDA8
:104D680008CD000808CD000810CD000808CD0008BF
:104D7800830730B548D0541E002A3FD00346CAB234
:104D880001E0013C3AD303F8012B9D07F9D1032C2C
:104D98002DD9CDB245EA05250F2C45EA054536D96A
:104DA800A4F1100222F00F0C03F1200EE6444FEAA2
:104DB800121C03F1100242E9045542E9025510326F
:104DC8007245F8D10CF1010214F00C0F03EB02123A
:104DD80004F00F0C13D0ACF1040323F003030433E5
:104DE800134442F8045B9342FBD10CF003042CB14A
:104DF800CAB21C4403F8012B9C42FBD130BD644667
:104E08001346002CF4D1F9E703461446BFE71A46C7
:104E1800A446E0E720F0030110F00300C0F1000011
:104E280051F8043B00F1040C4FEACC0C6FF000027F
:104E38001CBF22FA0CF213434FF0010C4CEA0C2C65
:104E48004CEA0C4CA3EB0C0222EA030212EACC1245
:104E580004BF51F8043B0430F4D0C2F1000102EA67
:104E68000102B2FA82F2C2F11F0200EBD2007047CF
:104E78008C4630B504466FF000451346084A9BB08F
:104E88001068084A6946039262460595029500949F
:104E9800049400F037F80022009B1A701BB030BD54
:104EA8002C0000200802FFFF024B13B1024800F05B
:104EB80005B8704700000000D14E000800230146E5
:104EC8001A46184601F070BD38B5084B084D5B1BF3
:104ED8009C1007D0043B1D44013C55F80439984701
:104EE800002CF9D1BDE8384007F0BEBB14CD00084E
:104EF80010CD0008704700BF704700BF704700BF63
:104F0800704700BF2DE9F04FD5B00C460C91914683
:104F18000E930A9002F0DAFE036818461793FFF71B
:104F280079FFA3891690190603D52369002B00F091
:104F38008F8700242BAB224698464D46CDE929445D
:104F48002893129400230024CDE914342B78CDE95A
:104F58001922CDE91B2218920892002B00F0CE816D
:104F6800AA4604E01AF8013F002B00F00981252B1E
:104F7800F8D1BAEB050640F007819AF80030002B0B
:104F880000F0BC8100234FF0FF324FF02B092024A2
:104F98001F469AF8016007920AF1010A8DF88330DA
:104FA80009930AF1010AA6F120035A2B00F2208185
:104FB800DFE813F0CA021E011E01C5021E011E0110
:104FC8001E01A3021E011E016A00F3021E01470210
:104FD800D9021E01D4025B005B005B005B005B0032
:104FE8005B005B005B005B001E011E011E011E01D1
:104FF8001E011E011E01B0011E010B027A00B00144
:10500800B001B0011E011E011E011E019E021E01FB
:105018001E01B6001E011E011E0119021E014C02CE
:105028001E011E013F071E011E011E011E011E0159
:105038001E011E011E01B0011E010B027C00B00101
:10504800B001B00191027C0075001E0184021E01AE
:105058007002B8005E0275001E01190272001C077A
:105068001E011E011F071E0172000022A6F1300357
:105078001AF8016B02EB820203EB4202A6F130033D
:10508800092BF5D909928EE70E9B53F8042B002AB9
:1050980009920E93C0F2D2819AF8006081E79AF8DB
:1050A800006047F020077CE747F01007BA060E9B20
:1050B80040F17D81073323F007031A465B6852F8F5
:1050C800084B99460E92002BC0F27F85079B01334F
:1050D80001F0398054EA090327F0800B00F00585B8
:1050E8000A2C79F1000380F0938701235F4630345E
:1050F8008DF84F410B930DF24F15079A0B9900232A
:105108008A42B8BF0A4606929DF883200D930F93F2
:1051180013931093002A7CD0069B0133069378E002
:1051280047F0100717F0200900F032810E9B073373
:1051380023F00703D3F8049053F8084B0E93002389
:1051480027F4806B00228DF88320079A511C00F009
:105158002A8254EA09012BF0800740F02382002AB2
:1051680041F02B80002B40F0C5841BF001030B930A
:1051780000F0548530230DF24F158DF84F31BCE700
:10518800BAEB050600F0BA802A9BC8E900563344FA
:105198002A93299B0133072B299305DC08F108087A
:1051A800089B33440893E8E60C990A9828AA03F068
:1051B800B3FC80B90DF1AC08F2E70C990A9828AA5B
:1051C80003F0AAFC002800F08A800D9B1BB10D9902
:1051D8000A9802F07BFC0C9B9B8913F0400F089BFC
:1051E80018BF4FF0FF330893089855B0BDE8F08F0B
:1051F800002E00F08380012300228DF8EC600693D6
:105208003BAD8DF883200B930D9207920F9213926A
:10521800109217F0020302D006990231069117F096
:10522800840B07D109990698A1EB0009B9F1000F81
:1052380000F336832A9C82B10122C8F80420299AF7
:10524800013401320DF18301072A2A942992C8F802
:10525800001000F3698308F108087BB10223C8F83D
:105268000430299B0234013321AA072B2A9429935D
:10527800C8F8002000F36C8308F10808BBF1800F20
:1052880000F02E82079B0B9AA3EB020BBBF1000FD9
:1052980000F37182FB0500F1C5810B9BC8F8005033
:1052A8001C44C8F80430299B2A940133072B2993FE
:1052B80000F3EA8208F108087B0705D5099B069ADE
:1052C8009D1A002D00F35083DDE9083206998A42C1
:1052D800ACBF9B185B180893002C7FF46EAF0023BB
:1052E80029930D9B1BB10D990A9802F0EFFB5546C7
:1052F8000DF1AC082B78002B7FF432AE2A9B002BE3
:105308003FF469AF0C9C0A98214628AA03F004FCD4
:10531800A38962E70E9B073323F00702F2E8023401
:10532800CDE91434DDE9143424F0004499461846D4
:105338000E9221464FF0FF32B64BFBF73DFC00289A
:1053480040F09684484621464FF0FF32B14BFBF7B8
:1053580015FC002840F08C84DDE9140100220023AC
:10536800FBF702FC002840F0A6879DF88320002167
:105378000320A94DA94B27F080070D910690472ED1
:10538800C8BF1D4607910B900F9113911091C1E66C
:1053980017F0100340F0628417F0400200F07B879A
:1053A8000E9A994652F8044B0E92A4B2C7E653F8E7
:1053B800044B0E93FB0600F141847D0640F13B84CB
:1053C80044F3C0394B4624B27DE6012000220E9BEF
:1053D800069053F8041B3BAD8DF883208DF8EC1034
:1053E8000E930B9010E74FF000090E9C079B54F8A2
:1053F800045B8DF88390002D00F0EE865A1C00F0B7
:1054080060851A464946284602F010FF0D9000288C
:1054180001F09E800D9B9DF883205B1B0B9323EA74
:10542800E373CDF81C900E940693CDF83490CDF824
:105438003C90CDF84C90CDF840906BE6099B5B42D0
:1054480009939AF8006047F00407AAE547F0100BA3
:105458001BF0200900F0AA830E9B073323F00703F3
:105468001A4652F8084BD3F804900E92012369E6C5
:10547800302278260E9B8DF8842053F8044B684A16
:105488000E934FF00009022347F0020B8DF8856058
:10549800189257E6BD0600F1D683FC0600F1938604
:1054A800780600F15D87B90540F18D860E9B089955
:1054B80053F8042B554611700E931BE79AF80060B9
:1054C8006C2E03BF9AF8016047F020070AF1010A21
:1054D80047F0100765E59AF80060682E03BF9AF850
:1054E800016047F400770AF1010A47F0400758E5E0
:1054F8009AF8006047F0080753E50A9E304602F024
:10550800E5FB436818461B93FFF784FC03463046C7
:105518001C931E4602F0DAFB83681993002E3FF4B1
:10552800BBAD199B002B3FF4B7AD199B1B78002B23
:105538003FF4B2AD9AF8006047F4806731E59AF815
:10554800006047F001072CE59DF88330002B7FF4BD
:10555800A3AD9AF800608DF8834022E59AF80060C0
:1055680047F080071DE5524612F8016B2A2E01F01C
:10557800EB81A6F13003092B924698BF002201F275
:1055880003801AF8016B02EB820203EB4202A6F1D8
:105598003003092BF5D9079205E59AF800608DF8D4
:1055A8008390FEE4BB46012B3FF49AAD022B54AD29
:1055B80012D1189A04F00F03D35C240944EA097441
:1055C8004FEA191905F8013D54EA0903F2D154AB21
:1055D8005B1B5F460B9390E504F00703E40844EA7D
:1055E80049744FEAD909303354EA09012A4605F8C3
:1055F800013DF1D11BF0010FE9D0302BE7D030236A
:10560800023A05F8013C54AB9B1A5F4615460B93CA
:1056180073E500BFFFFFEF7FC0C60008C4C60008DF
:10562800D0C60008652E40F3E980DDE914010022A8
:105638000023FBF78FFA002800F0D2810123C8F875
:105648000430299BBF4A01330134072B2A9429933C
:10565800C8F8002000F37A8508F10808229B129AFE
:10566800934280F2D782169B179A1C44C8E90023FC
:10567800299B2A940133072B299300F3DD8308F132
:105688000808129B5D1E002D7FF716AE102D41F302
:105698004181DFF8B492224649461026B946299B33
:1056A8000F46DDF828B00C9C05E008F10808103D0D
:1056B800102D40F3588501331032072BC8E90076C6
:1056C800CDE92932F1DD2146584628AA03F024FA0B
:1056D80000287FF47AADDDE929320DF1AC08E6E760
:1056E800099B069AA3EB020BBBF1000F7FF7CAAD2B
:1056F800BBF1100F41F30580DFF84C92414620467C
:10570800A8464C461023299A0C9DDDF8289006E0FF
:10571800ABF1100BBBF1100F01F1080119DD0132DB
:105728001030072AC1E90043CDE92920F0DD2946D8
:10573800484628AA03F0F0F900287FF446ADDDE9D1
:105748002920ABF1100BBBF1100F4FF010032BA960
:10575800E5DC4546A1468846044601325C44072AF2
:10576800CDE92924C8F80090C8F804B000F31885DA
:1057780008F1080886E5BBF1100F40F39785DFF8BC
:10578800C89141462046A8464C461023299A0C9DAC
:10579800DDF8289006E0ABF1100BBBF1100F01F11A
:1057A800080119DD01321030072AC1E90043CDE9AB
:1057B8002920F0DD2946484628AA03F0ADF900283B
:1057C8007FF403ADDDE92920ABF1100BBBF1100F1D
:1057D8004FF010032BA9E5DC4546A1468846044650
:1057E80001325C44072ACDE92924C8F80090C8F89A
:1057F80004B000F3CE8108F108084BE5129B012B99
:1058080040F37E810123299E01341E44072EC8F8E7
:1058180000502A94C8F80430299600F3E18108F171
:105828000808169B0136179A1C44072EC8E900235E
:10583800CDE9296400F3E18108F108080022DDE9D7
:1058480014010023FBF786F9002840F07681129BAB
:105858000136013B01351C44072EC8F80050299633
:10586800C8F804302A9400F35B8108F108081A9BF1
:1058780001361C44C8F80430072E24ABCDE929644E
:10588800C8F800307FF716AD0C990A9828AA03F0DB
:1058980043F900287FF499AC2A9C0DF1AC080BE57C
:1058A800B9F1100F40F35086DDE929214046CDE9D2
:1058B8001D36B84610244F460C9EA9460A9D04E0A2
:1058C800103F102F00F1080016DD01321F4B103178
:1058D800072AC0E90034CDE92921F1DD31462846FF
:1058E80028AA03F019F900287FF46FACDDE9292113
:1058F800103F102F2BA8E8DC4D46DDE91D36B946D0
:105908004746804609EB010401321049072ACDE9D0
:105918002924C8F80490C8F8001000F3C3839DF840
:10592800832008F1080886E40C990A9828AA1D9390
:1059380003F0F2F800287FF448AC2A9C1D9B0DF177
:10594800AC088AE400C7000814C7000804C70008A8
:105958000C990A9828AA03F0DFF800287FF435ACE0
:105968002A9C0DF1AC0889E4102D40F3C48610265A
:10597800299B0A9FDDF8309004E0103D102D08F1B6
:10598800080817DD0133B84A1034072BC8E9002688
:10599800CDE92934F1DD4946384628AA03F0BCF898
:1059A80000287FF412ACDDE92934103D102D0DF1EB
:1059B800AC08E7DC0133AC4A2C44072BCDE9293489
:1059C800C8F80450C8F800207FF77EAC0C990A98F4
:1059D80028AA03F0A1F800287FF4F7AB2A9C73E407
:1059E8002299002940F36F83DDF84090129B994576
:1059F800A8BF9946B9F1000F0BDD299B4C44013330
:105A0800072BC8E900592A94299300F31D8508F14A
:105A18000808109EB9F1000FA8BFA6EB0906002ED2
:105A280000F32582DDF840B07805AB4400F15F82D1
:105A3800229B129A934202DBF90740F17684169A68
:105A480017991444C8E90012299A2A940132072A9E
:105A5800299200F3138508F10808129AAE18A6EBEC
:105A68000B06D51AAE42A8BF2E46002E0DDD299B87
:105A780034440133072BC8F800B0C8F804602A94EE
:105A8800299300F3718508F10808002EA8BFAD1B03
:105A9800002D7FF711AC102D40F33C87DFF8CC9137
:105AA800224649461026B946299B0F46DDF828B0FC
:105AB8000C9C05E008F10808103D102D40F35383B5
:105AC80001331032072BC8E90076CDE92932F1DD20
