:020000040800F2
:1000000000C00020A14600080D2100080F210008B3
:10001000112100081321000815210008000000002C
:100020000000000000000000000000001721000890
:1000300019210008000000001B2100081D210008F4
:10004000E9460008E9460008E9460008E9460008D4
:10005000E9460008E9460008E9460008E9460008C4
:10006000E9460008E9460008E9460008E9460008B4
:10007000E946000825210008E9460008E94600088D
:1000800035210008E9460008E9460008E94600086D
:10009000E9460008E9460008E9460008E946000884
:1000A000E946000845210008E9460008E94600083D
:1000B000E9460008E9460008E9460008E946000864
:1000C000E9460008E9460008E9460008E946000854
:1000D000E9460008E94600085521000865210008A6
:1000E000E9460008E9460008E9460008E946000834
:1000F000E9460008E9460008E9460008E946000824
:10010000E9460008E9460008E9460008E946000813
:10011000E9460008E9460008E9460008E946000803
:10012000E9460008E9460008E9460008E9460008F3
:1001300000000000000000000000000000000000BF
:1001400000000000000000000000000000000000AF
:10015000000000000000000000000000000000009F
:10016000000000000000000000000000000000008F
:10017000000000000000000000000000000000007F
:10018000000000000000000000000000000000006F
:10019000000000000000000000000000000000005F
:1001A000000000000000000000000000000000004F
:1001B000000000000000000000000000000000003F
:1001C000000000000000000000000000000000002F
:1001D000000000000000000000000000000000001F
:0401E0005FF8E0F1F3
:1001E80010B5054C237833B9044B13B10448AFF369
:1001F80000800123237010BD5C0400200000000073
:100208008C5C000808B5034B1BB103490348AFF3E6
:10021800008008BD00000000600400208C5C00081D
:1002280081F0004102E000BF83F0004330B54FEA9F
:1002380041044FEA430594EA050F08BF90EA020F0C
:100248001FBF54EA000C55EA020C7FEA645C7FEA9F
:10025800655C00F0E2804FEA5454D4EB5555B8BFC2
:100268006D420CDD2C4480EA020281EA030382EA33
:10027800000083EA010180EA020281EA0303362DC5
:1002880088BF30BD11F0004F4FEA01314FF4801C98
:100298004CEA113102D0404261EB410113F0004FAA
:1002A8004FEA03334CEA133302D0524263EB430361
:1002B80094EA050F00F0A780A4F10104D5F1200EFF
:1002C8000DDB02FA0EFC22FA05F2801841F100015A
:1002D80003FA0EF2801843FA05F359410EE0A5F12E
:1002E80020050EF1200E012A03FA0EFC28BF4CF05F
:1002F800020C43FA05F3C01851EBE37101F0004515
:1003080007D54FF0000EDCF1000C7EEB00006EEB21
:100318000101B1F5801F1BD3B1F5001F0CD34908AB
:100328005FEA30004FEA3C0C04F101044FEA445202
:1003380012F5800F80F09A80BCF1004F08BF5FEA89
:10034800500C50F1000041EB045141EA050130BD69
:100358005FEA4C0C404141EB0101013C28BFB1F57B
:10036800801FE9D291F0000F04BF01460020B1FAC6
:1003780081F308BF2033A3F10B03B3F120020CDA99
:100388000C3208DD02F1140CC2F10C0201FA0CF077
:1003980021FA02F10CE002F11402D8BFC2F1200CDC
:1003A80001FA02F120FA0CFCDCBF41EA0C01904092
:1003B800E41AA2BF01EB0451294330BD6FEA0404DB
:1003C8001F3C1CDA0C340EDC04F11404C4F12002C6
:1003D80020FA04F001FA02F340EA030021FA04F3D8
:1003E80045EA030130BDC4F10C04C4F1200220FA2F
:1003F80002F001FA04F340EA0300294630BD21FA6D
:1004080004F0294630BD94F0000F83F4801306BF32
:1004180081F480110134013D4EE77FEA645C18BF26
:100428007FEA655C29D094EA050F08BF90EA020FBD
:1004380005D054EA000C04BF1946104630BD91EAB5
:10044800030F1EBF0021002030BD5FEA545C05D1B8
:100458004000494128BF41F0004130BD14F58004F7
:100468003CBF01F5801130BD01F0004545F0FE416B
:1004780041F470014FF0000030BD7FEA645C1ABFA0
:10048800194610467FEA655C1CBF0B46024650EAD7
:10049800013406BF52EA033591EA030F41F4002103
:1004A80030BD00BF90F0000F04BF0021704730B589
:1004B8004FF4806404F132044FF000054FF000015E
:1004C80050E700BF90F0000F04BF0021704730B51F
:1004D8004FF4806404F1320410F0004548BF4042F4
:1004E8004FF000013EE700BF42004FEAE2014FEA49
:1004F80031014FEA02701FBF12F07F4393F07F4F24
:1005080081F06051704732F07F4208BF704793F026
:100518007F4F04BF41F40021704730B54FF4607439
:1005280001F0004521F000411CE700BF50EA01023C
:1005380008BF704730B54FF000050AE050EA0102E5
:1005480008BF704730B511F0004502D5404261EB55
:1005580041014FF4806404F132045FEA915C3FF496
:10056800D8AE4FF003025FEADC0C18BF03325FEA33
:10057800DC0C18BF033202EBDC02C2F1200300FAE4
:1005880003FC20FA02F001FA03FE40EA0E0021FA09
:1005980002F11444BDE600BF70B54FF0FF0C4CF4F7
:1005A800E06C1CEA11541DBF1CEA135594EA0C0FA9
:1005B80095EA0C0F00F0DEF82C4481EA030621EAE4
:1005C8004C5123EA4C5350EA013518BF52EA03351F
:1005D80041F4801143F4801338D0A0FB02CE4FF0D1
:1005E8000005E1FB02E506F00042E0FB03E54FF001
:1005F8000006E1FB03569CF0000F18BF4EF0010EF9
:10060800A4F1FF04B6F5007F64F5407404D25FEAF4
:100618004E0E6D4146EB060642EAC62141EA5551A7
:100628004FEAC52040EA5E504FEACE2EB4F1FD0CE9
:1006380088BFBCF5E06F1ED8BEF1004F08BF5FEA67
:10064800500E50F1000041EB045170BD06F0004619
:1006580046EA010140EA020081EA0301B4EB5C04C6
:10066800C2BFD4EB0C0541EA045170BD41F48011BE
:100678004FF0000E013C00F3AB8014F1360FDEBFE3
:10068800002001F0004170BDC4F10004203C35DABF
:100698000C341BDC04F11404C4F1200500FA05F342
:1006A80020FA04F001FA05F240EA020001F00042E3
:1006B80021F0004110EBD37021FA04F642EB060159
:1006C8005EEA430E08BF20EAD37070BDC4F10C0483
:1006D800C4F1200500FA04F320FA05F001FA04F247
:1006E80040EA020001F0004110EBD37041F1000133
:1006F8005EEA430E08BF20EAD37070BDC4F120053E
:1007080000FA05F24EEA020E20FA04F301FA05F2A5
:1007180043EA020321FA04F001F0004121FA04F24D
:1007280020EA020000EBD3705EEA430E08BF20EA1D
:10073800D37070BD94F0000F0FD101F00046400057
:1007480041EB010111F4801F08BF013CF7D041EAD9
:10075800060195F0000F18BF704703F000465200DD
:1007680043EB030313F4801F08BF013DF7D043EAAE
:100778000603704794EA0C0F0CEA135518BF95EA64
:100788000C0F0CD050EA410618BF52EA4306D1D1EB
:1007980081EA030101F000414FF0000070BD50EA0A
:1007A800410606BF1046194652EA430619D094EA94
:1007B8000C0F02D150EA013613D195EA0C0F05D17E
:1007C80052EA03361CBF104619460AD181EA0301D2
:1007D80001F0004141F0FE4141F470014FF000008A
:1007E80070BD41F0FE4141F4780170BD70B54FF025
:1007F800FF0C4CF4E06C1CEA11541DBF1CEA1355A5
:1008080094EA0C0F95EA0C0F00F0A7F8A4EB050486
:1008180081EA030E52EA03354FEA013100F088807D
:100828004FEA03334FF0805545EA131343EA126346
:100838004FEA022245EA111545EA10654FEA0026FB
:100848000EF000419D4208BF964244F1FD0404F5B4
:10085800407402D25B084FEA3202B61A65EB030510
:100868005B084FEA32024FF480104FF4002CB6EBCD
:10087800020E75EB030E22BFB61A754640EA0C004D
:100888005B084FEA3202B6EB020E75EB030E22BF8D
:10089800B61A754640EA5C005B084FEA3202B6EBCE
:1008A800020E75EB030E22BFB61A754640EA9C008D
:1008B8005B084FEA3202B6EB020E75EB030E22BF5D
:1008C800B61A754640EADC0055EA060E18D04FEA1B
:1008D800051545EA16754FEA06164FEAC30343EABB
:1008E80052734FEAC2025FEA1C1CC0D111F4801F88
:1008F8000BD141EA00014FF000004FF0004CB6E781
:1009080011F4801F04BF01430020B4F1FD0C88BF1F
:10091800BCF5E06F3FF6AFAEB5EB030C04BFB6EB2A
:10092800020C5FEA500C50F1000041EB045170BD1D
:100938000EF0004E4EEA113114EB5C04C2BFD4EB4A
:100948000C0541EA045170BD41F480114FF0000ECE
:10095800013C90E645EA060E8DE60CEA135594EA4A
:100968000C0F08BF95EA0C0F3FF43BAF94EA0C0F4D
:100978000AD150EA01347FF434AF95EA0C0F7FF4C2
:1009880025AF104619462CE795EA0C0F06D152EA16
:1009980003353FF4FDAE1046194622E750EA4106FA
:1009A80018BF52EA43067FF4C5AE50EA41047FF40B
:1009B8000DAF52EA43057FF4EBAE12E74FF0FF3C70
:1009C80006E000BF4FF0010C02E000BF4FF0010C41
:1009D8004DF804CD4FEA410C7FEA6C5C4FEA430CBA
:1009E80018BF7FEA6C5C1BD001B050EA410C0CBF09
:1009F80052EA430C91EA030F02BF90EA020F00206B
:100A0800704710F1000F91EA030F58BF994208BFD1
:100A180090422CBFD8176FEAE37040F0010070478E
:100A28004FEA410C7FEA6C5C02D150EA013C07D1E5
:100A38004FEA430C7FEA6C5CD6D152EA033CD3D030
:100A48005DF8040B704700BF8446104662468C462A
:100A58001946634600E000BF01B5FFF7B7FF00285D
:100A680048BF10F1000F01BD4DF808EDFFF7F4FF86
:100A78000CBF012000205DF808FB00BF4DF808ED11
:100A8800FFF7EAFF34BF012000205DF808FB00BF34
:100A98004DF808EDFFF7E0FF94BF012000205DF856
:100AA80008FB00BF4DF808EDFFF7CEFF94BF01200B
:100AB80000205DF808FB00BF4DF808EDFFF7C4FF04
:100AC80034BF012000205DF808FB00BF4FEA410257
:100AD80012F5001215D211D56FF47873B3EB625288
:100AE80012D94FEAC12343F0004343EA505311F0AF
:100AF800004F23FA02F018BF404270474FF0000041
:100B0800704750EA013005D111F0004008BF6FF07E
:100B1800004070474FF00000704700BF4FEA4102A5
:100B2800B2F1E04324BFB3F5001CDCF1FE5C0DD943
:100B380001F0004C4FEAC0024CEA5070B2F1004F8D
:100B480040EB830008BF20F00100704711F0804F90
:100B580021D113F13872BCBF01F00040704741F455
:100B680080114FEA5252C2F11802C2F1200C10FA59
:100B78000CF320FA02F018BF40F001004FEAC1233D
:100B88004FEAD32303FA0CFC40EA0C0023FA02F3E1
:100B98004FEA4303CCE77FEA625307D150EA0133B7
:100BA8001EBF4FF0FE4040F44000704701F0004087
:100BB80040F0FE4040F40000704700BF80F0004065
:100BC80002E000BF81F0004142001FBF5FEA41031D
:100BD80092EA030F7FEA226C7FEA236C6AD04FEA1D
:100BE8001262D2EB1363C1BFD21841404840414062
:100BF800B8BF5B42192B88BF704710F0004F40F414
:100C0800000020F07F4018BF404211F0004F41F42F
:100C1800000121F07F4118BF494292EA030F3FD0FB
:100C2800A2F1010241FA03FC10EB0C00C3F120030E
:100C380001FA03F100F0004302D5494260EB40009D
:100C4800B0F5000F13D3B0F1807F06D340084FEA08
:100C5800310102F10102FE2A51D2B1F1004F40EBFD
:100C6800C25008BF20F0010040EA03007047490065
:100C780040EB0000013A28BFB0F5000FEDD2B0FA02
:100C880080FCACF1080CB2EB0C0200FA0CF0AABF25
:100C980000EBC25052421843BCBFD04018437047C3
:100CA80092F0000F81F4000106BF80F400000132C9
:100CB800013BB5E74FEA41037FEA226C18BF7FEAA0
:100CC800236C21D092EA030F04D092F0000F08BFE2
:100CD8000846704790EA010F1CBF0020704712F0C9
:100CE8007F4F04D1400028BF40F00040704712F108
:100CF80000723CBF00F50000704700F0004343F06D
:100D0800FE4040F4000070477FEA226216BF0846A2
:100D18007FEA23630146420206BF5FEA412390EA65
:100D2800010F40F4800070474FF0000304E000BF5B
:100D380010F0004348BF40425FEA000C08BF70470C
:100D480043F0964301464FF000001CE050EA0102D0
:100D580008BF70474FF000030AE000BF50EA0102E5
:100D680008BF704711F0004302D5404261EB4101D2
:100D78005FEA010C02BF84460146002043F0B643F7
:100D880008BFA3F18053A3F50003BCFA8CF2083A1C
:100D9800A3EBC25310DB01FA02FC634400FA02FC25
:100DA800C2F12002BCF1004F20FA02F243EB02002C
:100DB80008BF20F00100704702F1200201FA02FC8E
:100DC800C2F1200250EA4C0021FA02F243EB020081
:100DD80008BF20EADC7070474FF0FF0C1CEAD052C5
:100DE8001EBF1CEAD15392EA0C0F93EA0C0F6FD086
:100DF8001A4480EA010C400218BF5FEA41211ED064
:100E08004FF0006343EA501043EA5111A0FB01314F
:100E18000CF00040B1F5000F3EBF490041EAD37124
:100E28005B0040EA010062F17F02FD2A1DD8B3F1A0
:100E3800004F40EBC25008BF20F00100704790F00F
:100E4800000F0CF0004C08BF49024CEA502040EA61
:100E580051207F3AC2BFD2F1FF0340EAC250704727
:100E680040F400004FF00003013A5DDC12F1190F65
:100E7800DCBF00F000407047C2F10002410021FAD7
:100E880002F1C2F1200200FA02FC5FEA310040F1EF
:100E9800000053EA4C0308BF20EADC70704792F068
:100EA800000F00F0004C02BF400010F4000F013AA0
:100EB800F9D040EA0C0093F0000F01F0004C02BF9B
:100EC800490011F4000F013BF9D041EA0C018FE70A
:100ED8000CEAD15392EA0C0F18BF93EA0C0F0AD010
:100EE80030F0004C18BF31F0004CD8D180EA010036
:100EF80000F00040704790F0000F17BF90F0004FCF
:100F0800084691F0000F91F0004F14D092EA0C0FB0
:100F180001D142020FD193EA0C0F03D14B0218BF43
:100F2800084608D180EA010000F0004040F0FE4089
:100F380040F40000704740F0FE4040F44000704725
:100F48004FF0FF0C1CEAD0521EBF1CEAD15392EAA4
:100F58000C0F93EA0C0F69D0A2EB030280EA010C94
:100F680049024FEA402037D04FF0805343EA11112D
:100F780043EA10130CF000408B4238BF5B0042F18B
:100F88007D024FF4000C8B4224BF5B1A40EA0C0030
:100F9800B3EB510F24BFA3EB510340EA5C00B3EB62
:100FA800910F24BFA3EB910340EA9C00B3EBD10F50
:100FB80024BFA3EBD10340EADC001B0118BF5FEAA2
:100FC8001C1CE0D1FD2A3FF650AF8B4240EBC250CB
:100FD80008BF20F0010070470CF0004C4CEA50208C
:100FE8007F32C2BFD2F1FF0340EAC250704740F4DB
:100FF80000004FF00003013A37E792F0000F00F0CD
:10100800004C02BF400010F4000F013AF9D040EA4A
:101018000C0093F0000F01F0004C02BF490011F4DE
:10102800000F013BF9D041EA0C0195E70CEAD153D6
:1010380092EA0C0F08D142027FF47DAF93EA0C0FBD
:101048007FF470AF084676E793EA0C0F04D14B02A1
:101058003FF44CAF08466EE730F0004C18BF31F053
:10106800004CCAD130F000427FF45CAF31F000434D
:101078007FF43CAF5FE700BF4FF0FF3C06E000BFE6
:101088004FF0010C02E000BF4FF0010C4DF804CD09
:101098004FEA40024FEA41037FEA226C18BF7FEA19
:1010A800236C11D001B052EA530C18BF90EA010F1B
:1010B80058BFB2EB030088BFC81738BF6FEAE170AA
:1010C80018BF40F0010070477FEA226C02D15FEA46
:1010D800402C05D17FEA236CE4D15FEA412CE1D0B2
:1010E8005DF8040B704700BF844608466146FFE779
:1010F8000FB5FFF7C9FF002848BF10F1000F0FBD5B
:101108004DF808EDFFF7F4FF0CBF012000205DF853
:1011180008FB00BF4DF808EDFFF7EAFF34BF0120D8
:1011280000205DF808FB00BF4DF808EDFFF7E0FF71
:1011380094BF012000205DF808FB00BF4DF808EDC2
:10114800FFF7D2FF94BF012000205DF808FB00BF25
:101158004DF808EDFFF7C8FF34BF012000205DF807
:1011680008FB00BF42000ED2B2F1FE4F0BD34FF086
:101178009E03B3EB126209D44FEA002343F0004305
:1011880023FA02F070474FF00000704712F1610F28
:1011980001D1420202D14FF0FF3070474FF00000FA
:1011A800704700BFF8B504464069FFF70BFD0546D8
:1011B80001462068FFF708FD064620602946A0681A
:1011C800FFF70AFE0746E1683046FFF705FE0146CD
:1011D8003846FFF7F9FC0646276961682846FFF795
:1011E800F1FC01463846FFF7F7FD01463046FFF7A8
:1011F800EBFC064665600749FFF7A0FF30B90649D2
:101208003046FFF791FF18B93046F8BD014EFBE7AD
:10121800014EF9E700007A4400007AC42DE9F8434A
:1012280005460E4600F0C4FD214B1968FFF7CCFCBB
:101238002049FFF785FE2049FFF7CEFD04463046DA
:10124800FFF752F906460F4629462046FFF7BAFC33
:10125800FFF74AF98046894603F02AFB02460B4607
:1012680030463946FFF798F9FFF758FC05464046DF
:10127800494603F06FFB02460B4630463946FFF7F6
:101288008BF9FFF74BFC064601462846FFF79CFC06
:1012980004460A4B586131462846FFF793FC084B31
:1012A8005861084B5861084B5C61BDE8F88300BF82
:1012B8008404002000003443DA0F494088040020E9
:1012C800A0040020B8040020D00400200000000082
:1012D80038B502689A4B1B689A4200D038BD994BC2
:1012E8001968994B1868FFF799FF984A13680133F2
:1012F8001360974B1B68586AB0F5004F01DDA0F5E5
:10130800803000225A62FFF7DDF80022914BFFF788
:1013180043F989A3D3E90023FFF73EF9FFF7FEFB62
:1013280004468D4D01466868FFF74EFC686021460B
:101338008A48FFF737FF04460021FFF7EBFE002835
:1013480040F0C080864D00224FF48061284602F0AC
:1013580011F901224FF40061284602F00BF9814B84
:101368001D682046FFF7FEFE68637F4B1B68586ABE
:10137800B0F5004F01DDA0F5803000225A62FFF77A
:10138800A1F80022734BFFF707F96BA3D3E90023F9
:10139800FFF702F9FFF7C2FB04466F4D0146A86844
:1013A800FFF712FCA86021467048FFF7FBFE0446D1
:1013B8000021FFF7AFFE002840F09480684D00221E
:1013C8001021284602F0D6F801222021284602F0F2
:1013D800D1F8644B1D682046FFF7C4FEA863644B30
:1013E8001B68586AB0F5004F01DDA0F58030002277
:1013F8005A62FFF767F80022564BFFF7CDF84EA365
:10140800D3E90023FFF7C8F8FFF788FB0446524DDD
:101418000146E868FFF7D8FBE86021465548FFF722
:10142800C1FE04460021FFF775FE002868D1524D21
:1014380000221021284602F09DF80122202128468A
:1014480002F098F8474B1D682046FFF78BFEE863CB
:101458004A4B1B68586AB0F5004F01DDA0F5803093
:1014680000225A62FFF72EF800223A4BFFF794F851
:1014780031A3D3E90023FFF78FF8FFF74FFB0446AA
:10148800354D01462869FFF79FFB286121463C48F6
:10149800FFF788FE04460021FFF73CFE00283DD1F7
:1014A8002F4D00220421284602F064F80122082169
:1014B800284602F05FF82B4B1D682046FFF752FEC6
:1014C80028640BE7264D01224FF48061284602F07C
:1014D80051F800224FF40061284602F04BF804F15D
:1014E80000443CE71E4D01221021284602F042F834
:1014F80000222021284602F03DF804F1004468E764
:101508001D4D01221021284602F034F80022202126
:10151800284602F02FF804F1004493E7104D012209
:101528000421284602F026F800220821284602F065
:1015380021F804F10044BEE700000040FB21094007
:10154800FC0400207C040020780400208004002093
:101558004405002000001A40E80400208804002008
:1015680000100140640600208C050020A004002023
:10157800D4050020B8040020000C01401C060020FF
:10158800D004002072B6FEE700B591B028220021F1
:1015980006A803F0CBF80023019302930393049366
:1015A8000593012206924FF4803307930A92022290
:1015B8000D920E934FF4E0130F9306A801F09EFBD3
:1015C80080B90F23019302210291002303934FF462
:1015D80080620492059301A801F0D0FD20B911B0F2
:1015E8005DF804FBFFF7CEFFFFF7CCFF10B501F065
:1015F80037FBFFF7C9FF00F08DF802F017FB00F08A
:10160800E3F800F019F900F049F900F079F900F071
:10161800A9F900F0DBFA02F05FFB02F043FB02F0ED
:1016280027FB2E4800F062FB2D4800F083FE2D4C6E
:101638000021204601F0A4F90421204601F0A0F978
:101648000821204601F09CF90C21204601F098F968
:101658003C21254801F00EFA3C21244801F00AFA01
:101668003C21234801F006FA3C21224801F002FA05
:101678002148224981604FF07E52C260204B0361AD
:1016880020488160C26003611F488160C2600361B5
:101698001E488160C26003611D4800F0F7FC4FF4EA
:1016A800E13000F02FFB00F04BFB00F057FB00F09F
:1016B80063FB00F06FFB4FF4FA6001F0F5FA00F0FD
:1016C80013FD4FF4FA6001F0EFFA01E000F00CFDB1
:1016D80000F004FD0028F9D0FEE700BF90090020C3
:1016E800FC04002064060020440500208C0500202E
:1016F800D40500201C060020880400203333333F23
:1017080000002041A0040020B8040020D0040020DC
:10171800D40900202DE9F04188B0002404940594F0
:1017280006940794254B9A6942F020029A619A69B7
:1017380002F020020092009A9A6942F010029A611F
:101748009A6902F010020192019A9A6942F0040221
:101758009A619A6902F004020292029A9A6942F026
:1017680008029A619B6903F008030393039BDFF85F
:101778005080224640F63C41404601F0FBFE114DA8
:1017880022463021284601F0F5FE40F63C430493FA
:101798000127059706940226079604A9404601F0FA
:1017A800C9FD3023049305970694079604A9284693
:1017B80001F0C0FD08B0BDE8F08100BF0010024094
:1017C80000100140000C014000B587B000230293CF
:1017D800039304930593009301931548154A0260F7
:1017E80047224260836040F2E732C260036143618E
:1017F800836100F0E9FE90B94FF48053029302A987
:101808000B4801F041F868B9002300930193694639
:10181800074801F095F940B907B05DF804FBFFF7F8
:10182800B1FEE9E7FFF7AEFEEEE7FFF7ABFEF3E741
:10183800FC040020002C014000B58DB024220021BA
:1018480003A802F073FF00230193029312484FF09C
:1018580080420260436083604FF6FF72C26003619A
:1018680083610323039301230593099303A900F0DC
:1018780003FF50B900230193029301A9064801F020
:101888005FF928B90DB05DF804FBFFF77BFEF1E7BF
:10189800FFF778FEF6E700BF4405002000B58DB0DD
:1018A8002422002103A802F041FF002301930293A0
:1018B8001148124A0260436083604FF6FF72C260AB
:1018C800036183610323039301230593099303A908
:1018D80000F0D2FE50B900230193029301A90648F3
:1018E80001F02EF928B90DB05DF804FBFFF74AFEA8
:1018F800F1E7FFF747FEF6E78C05002000040040FB
:1019080000B58DB02422002103A802F00FFF0023A8
:10191800019302931148124A0260436083604FF6B4
:10192800FF72C2600361836103230393012305935C
:10193800099303A900F0A0FE50B900230193029374
:1019480001A9064801F0FCF828B90DB05DF804FBC0
:10195800FFF718FEF1E7FFF715FEF6E7D4050020BC
:101968000008004000B58DB02422002103A802F031
:10197800DDFE0023019302931148124A026043607E
:1019880083604FF6FF72C260036183610323039390
:1019980001230593099303A900F06EFE50B90023B3
:1019A8000193029301A9064801F0CAF828B90DB0BD
:1019B8005DF804FBFFF7E6FDF1E7FFF7E3FDF6E767
:1019C8001C060020000C004000B583B00368134AD1
:1019D800934205D0124A934215D003B05DF804FB38
:1019E800104B9A6942F400629A619B6903F40063A0
:1019F8000093009B00221146192002F0BBF8192021
:101A080002F0F0F8E9E7074B9A6942F400529A614C
:101A18009B6903F400530193019BDEE7002C01400E
:101A2800003401400010024000B58FB000230A9333
:101A38000B930C930D930368B3F1804F0BD0484A76
:101A480093423FD0474A934256D0474A93426DD07B
:101A58000FB05DF804FB03F50433DA6942F00102C4
:101A6800DA61DA6902F001020192019A9A6942F098
:101A780004029A619A6902F004020292029A9A692F
:101A880042F008029A619B6903F008030393039BE1
:101A98004FF400430A930AA9344801F04BFC082389
:101AA8000A9300230B930C930AA9314801F042FCD6
:101AB800304A536823F4407343F0E06343F480737F
:101AC8005360C5E72C4BDA6942F00202DA61DA6941
:101AD80002F002020492049A9A6942F004029A619E
:101AE8009B6903F004030593059BC0230A930AA985
:101AF8001E4801F01FFCABE71F4BDA6942F00402F5
:101B0800DA61DA6902F004020692069A9A6942F0EA
:101B180008029A619B6903F008030793079BC02397
:101B28000A930AA9124801F005FC91E7124BDA69F9
:101B380042F00802DA61DA6902F008020892089AAB
:101B48009A6942F004029A619B6903F004030993BD
:101B5800099B03230A930AA9044801F0EBFB77E7E2
:101B68000004004000080040000C0040000801404C
:101B7800000C0140000001400010024000B587B091
:101B88000023029303930493059302680D4B9A4232
:101B980002D007B05DF804FB03F55C439A6942F094
:101BA80010029A619B6903F010030193019B4FF4A3
:101BB8007073029302230393059302A9024801F06C
:101BC800B9FBE6E7003401400010014010B596B0BB
:101BD8000024129413941494159410941194099455
:101BE8000A940B940C940D940E940F942022214681
:101BF80001A802F09BFD3B483B4B03604723436031
:101C0800846040F2E733C36004614461846100F09A
:101C1800DBFC00284BD14FF48053129312A93148B2
:101C280000F032FE002845D12E4800F0F9FC0028CB
:101C380043D100231093119310A92A4800F080FF84
:101C480000283DD16023099300220A920B920C923E
:101C58000D920E920F9209A9224800F0A1FD0028CA
:101C680031D1042209A91F4800F09AFD70BB08224F
:101C780009A91C4800F094FD58BB0C2209A9194871
:101C880000F08EFD40BB002301930293039304935D
:101C980005934FF400520692089301A9114800F0E9
:101CA8008DFFE0B90F48FFF769FF16B010BDFFF7C9
:101CB80069FCB0E7FFF766FCB6E7FFF763FCB8E737
:101CC800FFF760FCBEE7FFF75DFCCAE7FFF75AFCC9
:101CD800CDE7FFF757FCD0E7FFF754FCD3E7FFF752
:101CE80051FCDFE7640600200034014008B5034BCF
:101CF80018600B22024902F083FC08BDF0060020A0
:101D0800E406002008B5B0F5E13F03D0B0F5165F52
:101D180009D008BD4FF0FF33032207490748006880
:101D280002F0DBF9F5E74FF0FF33032202490348DD
:101D3800006802F0D2F9ECE708000020F006002065
:101D480008B54FF0FF33032202490348006802F048
:101D5800C4F908BD0C000020F006002008B54FF0BB
:101D6800FF33032202490348006802F0B6F908BDB0
:101D780004000020F006002008B54FF0FF330322CE
:101D880002490348006802F0A8F908BD00000020D5
:101D9800F006002008B54FF0FF330322024903483C
:101DA800006802F09AF908BD10000020F006002033
:101DB800014B9868704700BFB806002038B5164C2C
:101DC800E078A37843EA0020FEF7B2FF4FF06051B5
:101DD800FFF702F81149FEF7FFFF114D28606079FF
:101DE800237943EA0020FEF7A3FF4FF06051FEF786
:101DF800F3FF0A49FEF7F0FF6860E079A37943EA48
:101E08000020FEF795FF4FF06051FEF7E5FF03490C
:101E1800FEF7E2FFA86038BDD80600200000344372
:101E2800B80600200000000038B5274CE078A378F9
:101E380043EA0020FEF77CFF4FF06051FEF7CCFF2D
:101E48004FF08341FEF7C8FFFEF74EFB1CA3D3E912
:101E58000023FEF7A1FBFEF761FE1C4D28606079A8
:101E6800237943EA0020FEF763FF4FF06051FEF745
:101E7800B3FF4FF08341FEF7AFFFFEF735FB10A32A
:101E8800D3E90023FEF788FBFEF748FE6860E07997
:101E9800A37943EA0020FEF74BFF4FF06051FEF7AD
:101EA8009BFF4FF08341FEF797FFFEF71DFB04A34E
:101EB800D3E90023FEF770FBFEF730FEA86038BDBB
:101EC8009A99999999992340D8060020AC06002040
:101ED80038B5164CE078A37843EA0020FEF728FFCF
:101EE8004FF06051FEF778FF1149FEF775FF114D6D
:101EF80028606079237943EA0020FEF719FF4FF044
:101F08006051FEF769FF0A49FEF766FF6860E079ED
:101F1800A37943EA0020FEF70BFF4FF06051FEF76C
:101F28005BFF0349FEF758FFA86038BDD8060020BC
:101F38000000FA44C806002008B50D4B5A7A187AF2
:101F480040EA02200B4B83FB0030C011FEF7BAFABF
:101F580005A3D3E90023FEF769F9FEF7DFFD064B79
:101F6800186008BDAFF30080A4703D0AD743424013
:101F7800D806002061606060C406002008B50A4BDE
:101F88005B78DBB2522B09D0532B0AD0512B02D0ED
:101F9800FFF7D2FF08BDFFF747FFF9E7FFF798FF04
:101FA800F6E7FFF70BFFF3E7D806002010B500248B
:101FB80010E00A2B1AD01D490A5D1D4890F800C090
:101FC80062440270581C1B4A10700A5DD2B21A494A
:101FD800CA5401340A2C21DC164B1B78002BE8D19B
:101FE800124A125DD2B2552AE3D0F2E70F4A125DC7
:101FF800D2B20F4909788A4205D000230D4A1370DE
:102008000B4A1370E5E7591C0A4A1170074A125D1A
:10201800D2B20949CA54FFF7B1FFEEE70B220349D0
:10202800064B186802F0ECFA10BD00BFE406002069
:10203800F4060020D4060020D8060020F006002070
:1020480008B5084B1B68834200D008BD002283F8FE
:102058003C2005490A70C8220449184602F0ECFAE7
:10206800F3E700BFBC080020F2070020F4070020B7
:10207800044B1B68834200D07047034B01221A703F
:10208800FAE700BFBC080020F207002070B504463C
:102098000D4DC82632460021284602F047FB64222F
:1020A80000210A4802F042FB96220021084802F06B
:1020B8003DFB084B1C60084B00221A70324629462B
:1020C800204602F0B9FA70BDF4070020F806002097
:1020D8005C070020BC080020F2070020014B93F8A1
:1020E8002E007047F806002008B54FF0FF3306228F
:1020F80002490348006801F0F0FF08BD1A000020FB
:10210800BC080020FEE7FEE7FEE7FEE7FEE77047B3
:102118007047704708B500F0B5FD08BD08B502481E
:1021280001F0A0FB08BD00BF0809002008B502485F
:1021380001F098FB08BD00BFC408002008B502489C
:1021480000F039F908BD00BFFC04002008B50248BA
:1021580002F0DCF808BD00BF9009002008B502486D
:1021680002F0D4F808BD00BFD409002082B00E4B9D
:102178009A6942F001029A619A6902F0010200929A
:10218800009ADA6942F08052DA61DB6903F0805321
:102198000193019B054A536823F0E06343F0007301
:1021A800536002B0704700BF0010024000000140B9
:1021B80030B4036A23F001030362036A4268846946
:1021C80024F073040D682C4323F0020C8B6843EA57
:1021D8000C03104DA84203D005F50065A84205D1AF
:1021E80023F00803CD682B4323F00403094DA842CC
:1021F80003D005F50065A84205D122F440724D6967
:102208002A438D692A43426084614A6842630362B3
:1022180030BC7047002C014030B4036A23F480734B
:102228000362036A4268C46924F0730C0C6844EAC8
:102238000C0523F400738C6843EA0423114CA04274
:1022480003D004F50064A04206D123F40063CC68EF
:1022580043EA042323F480630A4CA04203D004F524
:102268000064A04207D122F440524C6942EA0412A9
:102278008C6942EA04124260C5614A68C26303621B
:1022880030BC7047002C014030B4036A23F48053FB
:102298000362036A4468C26922F4E6420D6842EAAE
:1022A800052223F400538D6843EA0533094DA842FB
:1022B80003D005F50065A84204D124F480444D6993
:1022C80044EA85144460C2614A680264036230BC0F
:1022D800704700BF002C014010B4036A046A24F060
:1022E80001040462846924F0F00C4CEA021223F021
:1022F8000A030B438261036210BC704710B4046A7E
:1023080024F0100404628469036A24F4704C4CEAD3
:10231800023223F0A00343EA01138261036210BC76
:102328007047836823F070030B4343F0070383600F
:102338007047000090F83D30DBB2012B2FD102230B
:1023480080F83D300268D36843F00103D360036826
:10235800154A934218D002F50062934214D0B3F1A3
:10236800804F11D0A2F5983293420DD002F58062C9
:10237800934209D002F58062934205D01A6842F070
:1023880001021A60002070479A6802F00702062AC4
:1023980007D01A6842F001021A6000207047012035
:1023A80070470020704700BF002C014070477047FD
:1023B80070477047704710B5044603681A6912F0F1
:1023C800020F11D0DA6812F0020F0DD06FF002027E
:1023D8001A610123037703689B6913F0030F70D018
:1023E800FFF7E6FF0023237723681A6912F0040F2A
:1023F80012D0DA6812F0040F0ED06FF004021A61DE
:102408000223237723689B6913F4407F5FD020461B
:10241800FFF7CEFF0023237723681A6912F0080F0D
:1024280012D0DA6812F0080F0ED06FF008021A61A5
:10243800042323772368DB6913F0030F4ED020466B
:10244800FFF7B6FF0023237723681A6912F0100FED
:1024580012D0DA6812F0100F0ED06FF010021A6165
:10246800082323772368DB6913F4407F3DD0204697
:10247800FFF79EFF0023237723681A6912F0010FE4
:1024880003D0DA6812F0010F36D123681A6912F006
:10249800800F03D0DA6812F0800F34D123681A69EC
:1024A80012F0400F03D0DA6812F0400F32D12368DF
:1024B8001A6912F0200F03D0DA6812F0200F30D119
:1024C80010BDFFF774FF2046FFF773FF8AE7204629
:1024D800FFF76DFF2046FFF76CFF9BE72046FFF7ED
:1024E80066FF2046FFF765FFACE72046FFF75FFF72
:1024F8002046FFF75EFFBDE76FF001021A61204634
:10250800FEF7E6FEC1E76FF080021A61204600F090
:102518007FFBC3E76FF040021A612046FFF74AFFCE
:10252800C5E76FF020021A61204600F070FBC7E78C
:102538000368244A904212D002F5006290420ED0FD
:10254800B0F1804F0BD0A2F59832904207D002F537
:102558008062904203D002F58062904203D123F05A
:1025680070034A681343174A904212D002F500627A
:1025780090420ED0B0F1804F0BD0A2F59832904225
:1025880007D002F58062904203D002F58062904243
:1025980003D123F44073CA68134323F080034A69C4
:1025A800134303608B68C3620B688362054B9842D0
:1025B80003D003F50063984201D10B69036301233B
:1025C80043617047002C014040B310B5044690F8B1
:1025D8003D30F3B1022384F83D30214651F8040B15
:1025E800FFF7A6FF012384F8463084F83E3084F8CC
:1025F8003F3084F8403084F8413084F8423084F821
:10260800433084F8443084F8453084F83D30002065
:1026180010BD80F83C30FFF7D7F9DBE701207047A1
:1026280040B310B5044690F83D30F3B1022384F866
:102638003D30214651F8040BFFF77AFF012384F857
:10264800463084F83E3084F83F3084F8403084F8CF
:10265800413084F8423084F8433084F8443084F8B8
:10266800453084F83D30002010BD80F83C30FFF73D
:102678009DFEDBE701207047002857D070B50D4656
:10268800044690F83D30002B4BD0022384F83D30AF
:102698002268936823F4804323F00703936021465C
:1026A80051F8040BFFF744FF21688A688B690E6AAA
:1026B8002868104323F4407C2CF0030CAA68AB690B
:1026C80042EA032343EA0C0323F47C4323F0FC038C
:1026D800EA69D5F80CC04CEA022C4CEA030C2A6AC9
:1026E80013032A6943EA021343EA0C0326F022067D
:1026F8006A686D6942EA05123243886021688B6115
:1027080023681A62012384F8463084F83E3084F83E
:102718003F3084F8423084F8433084F83D3000205C
:1027280070BD80F83C30FFF77FF9AEE701207047B5
:1027380030B4036A23F010030362036A44688269B1
:1027480022F4E6420D6842EA052223F020038D6850
:1027580043EA0513114DA84203D005F50065A842C8
:1027680006D123F08003CD6843EA051323F0400324
:102778000A4DA84203D005F50065A84207D124F404
:1027880040644D6944EA85048D6944EA85044460DF
:1027980082614A688263036230BC7047002C014042
:1027A80038B590F83C30012B60D004460D46012323
:1027B80080F83C300C2A1AD8DFE802F007191919FA
:1027C8001D1919193119191944000068FFF7F0FC8F
:1027D8002268936943F0080393612268936923F0A0
:1027E800040393612268936929690B43936100206C
:1027F80084F83C0038BD0068FFF79AFF22689369A7
:1028080043F4006393612268936923F480639361BE
:1028180022689369296943EA01239361E7E700681D
:10282800FFF7FAFC2268D36943F00803D3612268F2
:10283800D36923F00403D3612268D36929690B4360
:10284800D361D4E70068FFF71FFD2268D36943F41A
:102858000063D3612268D36923F48063D36122685B
:10286800D369296943EA0123D361C0E70220C1E79C
:1028780010B4846824F47F4C42EA03220A4342EAF3
:102888000C02826010BC704790F83C30012B66D077
:1028980010B50446012380F83C30022380F83D300F
:1028A8000268936823F47F4323F0770393600B68EF
:1028B800602B40D022D8402B47D00BD9502B0ED1BB
:1028C800CA6849680068FFF707FD50212068FFF7CC
:1028D80028FD04E0202B0CD008D9302B09D0012387
:1028E80084F83D30002084F83C0010BD0BB1102B5B
:1028F800F5D119462068FFF714FDF0E7702B0ED0CC
:10290800B3F5005FEBD1CB684A6889680068FFF7C8
:10291800AFFF2268936843F480439360DFE7CB6896
:102928004A6889680068FFF7A3FF2268936843F044
:1029380077039360D3E7CA6849680068FFF7DEFC4D
:1029480060212068FFF7EDFCC9E7CA68496800689C
:10295800FFF7C2FC40212068FFF7E3FCBFE7022035
:10296800704701F01F01012303FA01FC036A23EAFF
:102978000C030362036A02FA01F10B430362704716
:1029880010B50446084600293AD194F83E30DBB227
:10299800013B18BF0123002B66D1002849D102232F
:1029A80084F83E30012201462068FFF7DAFF2368E9
:1029B8002F4A934203D002F50062934203D15A6C26
:1029C80042F400425A642368294A934241D002F5EE
:1029D800006293423DD0B3F1804F3AD0A2F59832CD
:1029E800934236D002F58062934232D002F580627B
:1029F80093422ED01A6842F001021A60002032E099
:102A0800042908D008290DD094F84130DBB2013BE5
:102A180018BF0123BFE794F83F30DBB2013B18BF72
:102A28000123B8E794F84030DBB2013B18BF01231B
:102A3800B1E7042805D0082807D0022384F84130DC
:102A4800B0E7022384F83F30ACE7022384F8403033
:102A5800A8E79A6802F00702062A07D01A6842F027
:102A680001021A60002010BD0120FCE70020FAE7EF
:102A7800002C014038B5044690F83E00C0B294F8E6
:102A88003F3094F84220D2B294F843C00D46B1B911
:102A9800012849D1012A48D1022384F83E3084F81C
:102AA80042307DB3042D39D0012200212068FFF780
:102AB80058FF012204212068FFF753FF27E0DBB20B
:102AC8005FFA8CFC042912D0012833D1012B2CD1B8
:102AD800012A31D1BCF1010F30D1022384F83E30F4
:102AE80084F83F3084F8423084F84330D9E7012B2A
:102AF8001CD1BCF1010F1BD1022384F83F3084F8AC
:102B08004330CEE7012200212068FFF72AFF226820
:102B1800136843F001031360002006E0012204213A
:102B28002068FFF71EFFF2E7012038BD0120FCE70F
:102B38001846FAE70120F8E71846F6E71046F4E7E2
:102B480090F83C30012B34D010B4012380F83C308D
:102B5800022380F83D3003685A689C6822F0700CA4
:102B68000A6842EA0C025A600368134A934212D078
:102B780002F5006293420ED0B3F1804F0BD0A2F55C
:102B88009832934207D002F58062934203D002F54F
:102B98008062934204D124F080044A6814439C6004
:102BA800012380F83D30002380F83C30184610BCE3
:102BB80070470220704700BF002C014090F83C305D
:102BC800012B22D0012380F83C30CB6823F44073DA
:102BD8008A68134323F480634A68134323F4006329
:102BE8000A68134323F480530A69134323F40053F8
:102BF8004A69134323F48043CA6913430268536440
:102C0800002380F83C301846704702207047704710
:102C18007047000010B504460E4B18784FF47A73CD
:102C2800B3FBF0F30C4A1068B0FBF3F000F0E8FFD8
:102C380068B90F2C01D901200AE0002221464FF083
:102C4800FF3000F097FF054B1C60002000E00120DA
:102C580010BD00BF20000020280000202400002014
:102C680008B5074A136843F010031360032000F007
:102C78006FFF0F20FFF7CEFFFFF778FA002008BD9F
:102C880000200240034A1168034B1B780B44136071
:102C9800704700BFC008002020000020014B1868C2
:102CA800704700BFC008002038B50446FFF7F6FF9C
:102CB8000546B4F1FF3F02D0044B1B781C44FFF7D4
:102CC800EDFF401BA042FAD338BD00BF2000002012
:102CD80082B0084B1B68084AA2FB03235B0A00FB6F
:102CE80003F3019300BF019B5A1E0192002BF9D1F7
:102CF80002B0704728000020D34D6210002800F071
:102D0800F18170B582B00446036813F0010F2CD02E
:102D1800994B5B6803F00C03042B1DD0964B5B6842
:102D280003F00C03082B12D06368B3F5803F41D041
:102D3800002B55D103F1804303F504331A6822F4BC
:102D480080321A601A6822F480221A6037E08A4BAF
:102D58005B6813F4803FE7D0874B1B6813F4003F90
:102D680003D06368002B00F0BF81236813F0020FC3
:102D780075D0814B5B6813F00C0F5FD07E4B5B689E
:102D880003F00C03082B54D02369002B00F08A8031
:102D98007A4B01221A60FFF781FF0546764B1B68C4
:102DA80013F0020F75D1FFF779FF401B0228F5D900
:102DB80003209EE1704A136843F48033136063680C
:102DC80043B3FFF76BFF05466B4B1B6813F4003FDB
:102DD800CBD1FFF763FF401B6428F5D9032088E1B6
:102DE800B3F5A02F09D0644B1A6822F480321A6018
:102DF8001A6822F480221A60E1E703F18043A3F500
:102E08003C331A6842F480221A601A6842F480320D
:102E18001A60D4E7FFF742FF0546574B1B6813F4C7
:102E2800003FA2D0FFF73AFF401B6428F5D90320E2
:102E38005FE1514B5B6813F4803FA5D14E4B1B6893
:102E480013F0020F03D02369012B40F04F814A4A47
:102E5800136823F0F803616943EAC1031360236828
:102E680013F0080F33D0A369002B5CD0434B012229
:102E7800C3F88024FFF712FF05463F4B5B6A13F047
:102E8800020F21D1FFF70AFF401B0228F5D90320C2
:102E98002FE1394A136823F0F803616943EAC10353
:102EA8001360DCE7354B00221A60FFF7F7FE054692
:102EB800314B1B6813F0020FD1D0FFF7EFFE401B18
:102EC8000228F5D9032014E10120FFF701FF236848
:102ED80013F0040F00F09680274BDB6913F0805F36
:102EE80034D1254BDA6942F08052DA61DB6903F0AC
:102EF80080530193019B0125214B1B6813F4807FAC
:102F080026D0E368012B3DD0002B53D103F1804339
:102F180003F504331A6A22F001021A621A6A22F0CF
:102F280004021A6233E0154B0022C3F88024FFF72D
:102F3800B5FE0546104B5B6A13F0020FC7D0FFF7CA
:102F4800ADFE401B0228F5D90320D2E00025D3E7C7
:102F58000B4A136843F480731360FFF79FFE06461D
:102F6800074B1B6813F4807FCBD1FFF797FE801BBC
:102F78006428F5D90320BCE000100240000042425A
:102F8800007000405F4A136A43F001031362E3686C
:102F980033B3FFF783FE06465A4B1B6A13F0020F42
:102FA8002FD1FFF77BFE801B41F288339842F3D97B
:102FB80003209EE0052B09D0524B1A6A22F0010229
:102FC8001A621A6A22F004021A62E0E74D4B1A6A82
:102FD80042F004021A621A6A42F001021A62D6E743
:102FE800FFF75CFE0646474B1B6A13F0020F08D03A
:102FF800FFF754FE801B41F288339842F3D903202F
:1030080077E0E5B9E369002B72D03E4A526802F0D6
:103018000C02082A56D0022B17D03B4B00221A6606
:10302800FFF73CFE0446374B1B6813F0007F47D080
:10303800FFF734FE001B0228F5D9032059E0314A76
:10304800D36923F08053D361DCE72F4B00221A6643
:10305800FFF724FE05462B4B1B6813F0007F06D0B4
:10306800FFF71CFE401B0228F5D9032041E0236A24
:10307800B3F5803F1AD023494B6823F47413226AAE
:10308800606A024313434B601F4B01221A66FFF725
:1030980005FE04461B4B1B6813F0007F0ED1FFF79B
:1030A800FDFD001B0228F5D9032022E0154A5368CC
:1030B80023F40033A1680B435360DCE7002018E0D9
:1030C800002016E0012B16D00E4B5B6803F480310C
:1030D800226A914211D103F47013626A93420ED1AD
:1030E800002006E001207047012002E0012000E0F6
:1030F800002002B070BD0120FBE70120F9E70120A4
:10310800F7E700BF001002400000424286B0174BAC
:103118000FCB0DF1180C0CE90F0040F20123ADF8AC
:103128000430134B5B6803F00C02082A02D01148E4
:1031380006B07047C3F3834218326A4412F8100C81
:1031480013F4803F0DD00A4B5B68C3F34043183338
:103158006B4413F8143C074A02FB00F0B0FBF3F091
:10316800E6E7054B03FB00F0E2E700BFA85C0008B8
:103178000010024000127A0000093D00002800F00B
:10318800A08070B50D460446524B1B6803F0070338
:103198008B420BD24F4A136823F007030B4313608B
:1031A800136803F007038B4240F08D80236813F007
:1031B800020F17D013F0040F04D0474A536843F4A2
:1031C800E0635360236813F0080F04D0424A536841
:1031D80043F460535360404A536823F0F003A168F6
:1031E8000B435360236813F0010F31D06368012B40
:1031F80020D0022B25D0384A126812F0020F64D072
:1032080035494A6822F0030213434B60FFF746FD35
:103218000646314B5B6803F00C036268B3EB820F20
:1032280016D0FFF73BFD801B41F288339842F0D956
:10323800032045E0284A126812F4003FE0D101203B
:103248003EE0254A126812F0007FD9D1012037E00C
:10325800204B1B6803F00703AB420AD91D4A1368C9
:1032680023F007032B431360136803F00703AB42F3
:103278002DD1236813F0040F06D0174A536823F49E
:10328800E063E1680B435360236813F0080F07D02D
:10329800114A536823F46053216943EAC103536018
:1032A800FFF734FF0C4B5B68C3F303130B4AD35C83
:1032B800D8400B4B18600B4B1868FFF7ABFC00208D
:1032C80070BD012070470120FAE70120F8E70120CE
:1032D800F6E700BF0020024000100240BC5C000876
:1032E8002800002024000020014B1868704700BF08
:1032F8002800002008B5FFF7F7FF044B5B68C3F30D
:103308000223034AD35CD84008BD00BF0010024026
:10331800CC5C000808B5FFF7E7FF044B5B68C3F314
:10332800C223034AD35CD84008BD00BF0010024046
:10333800CC5C000870B582B00024A446B0E0874D8C
:10334800AA4210D007D9864DAA420CD005F580357F
:10335800AA4208D013E0A5F58015AA4203D005F5C6
:103368007025AA4207D18A68002A62D0012A5BD058
:103378004361082403E0A5F58015AA42F3D0BEF105
:10338800FF0F58D80646BEF1FF0F56D84FEA8C02F9
:1033980033680F25954023EA050304FA02F2134324
:1033A80033604B6813F0805F78D06E4B9A6942F0B7
:1033B80001029A619B6903F001030193019B4FEAA3
:1033C8009C02951C684B53F825600CF003039D0084
:1033D8000F23AB4026EA0306644B984233D003F52B
:1033E8008063984200F0988003F58063984200F06B
:1033F800958003F58063984200F0928003F580631E
:10340800984200F08F8003F58063984219D0062314
:103418001AE0CC68B3E7CC680434B0E7CC68083469
:10342800ADE7CC680C34AAE703610824A7E70024B9
:10343800A5E70424A3E7061DA5E7ACF1080292005E
:10344800A6E7052300E00023AB4033430232464D94
:1034580045F822304B6813F4803F65D0444A13681E
:1034680043EA0E0313604B6813F4003F62D0404AEE
:10347800536843EA0E0353604B6813F4801F5FD010
:103488003B4A936843EA0E0393604B6813F4001FAA
:103498005CD0374AD36843EA0E03D3600CF1010CC1
:1034A8000A6832FA0CF357D0012303FA0CF302EA44
:1034B800030E33EA0202F1D14A68122A3FF63FAFFF
:1034C800122A3FF65CAF01A555F822F06F330008C9
:1034D8001B340008253400083734000887330008F7
:1034E80087330008873300088733000887330008CC
:1034F80087330008873300088733000887330008BC
:1035080087330008873300088733000887330008AB
:103518001F3400082B340008012395E7022393E7A2
:10352800032391E704238FE7114A136823EA0E0364
:10353800136098E70E4A536823EA0E0353609BE72B
:103548000B4A936823EA0E0393609EE7084AD36800
:1035580023EA0E03D360A1E702B070BD0000221079
:103568000000311000100240000001400008014036
:10357800000401400AB10161704709040161704704
:1035880030B40124056CAC40C56B6C6004686360A2
:103598004368102B05D0036899600368DA6030BC73
:1035A800704703689A600368D960F8E700283AD042
:1035B80010B4024600681D4B984229D81C4B03449E
:1035C8001C49A1FB03131B099B0013641A4BD3630B
:1035D800022382F82130016821F47F5121F0300163
:1035E800536894682343D468234314692343546974
:1035F800234394692343D46923430B430360002086
:103608009063012382F8213082F8200010BC7047B3
:103618000A4B03440749A1FB03131B099B001364CE
:10362800074BD363D4E70120704700BF070402406B
:10363800F8FFFDBFCDCCCCCC00000240F8FBFDBFAD
:103648000004024038B5044690F82000012831D023
:10365800012084F8200094F82100012804D00023D8
:1036680084F82030022038BD022084F82100002090
:10367800A0632568286820F0010028602046FFF72D
:103688007FFFE36A5BB12268136843F00E0313609F
:103698002268136843F0010313600020E3E72268FF
:1036A800136823F0040313602268136843F00A03C5
:1036B8001360EDE70220D6E790F82130022B06D000
:1036C80004238363002380F82030012070470268B8
:1036D800136823F00E0313600268136823F00103D4
:1036E8001360036CC16B012202FA03F34B6080F88C
:1036F8002120002380F820301846704708B590F83C
:103708002130022B03D004238363012008BD026803
:10371800136823F00E0313600268136823F0010393
:10372800136003684B4A93424ED9783A934224D0A7
:103738001432934230D0143293422FD01432934231
:103748002FD0143293422FD0143293422FD01432F8
:1037580093422FD002F5627293422ED014329342D4
:103768002DD0143293422CD01432934202D04FF40D
:10377800803203E04FF4805200E00122364B5A6059
:10378800012380F82130002380F82030436B002B80
:103798005ED098470020B9E71022EFE74FF4807217
:1037A800ECE74FF48052E9E74FF48032E6E74FF454
:1037B8008012E3E74FF08072E0E70122DEE7102293
:1037C800DCE74FF48072D9E7244A934224D01432BC
:1037D800934225D01432934224D01432934224D0F9
:1037E8001432934224D01432934224D01432934298
:1037F80024D002F56272934223D01432934222D02D
:103808001432934221D01432934202D04FF48032C2
:1038180003E04FF4805200E00122114B5A60AFE7F9
:103828001022FAE74FF48072F7E74FF48052F4E77A
:103838004FF48032F1E74FF48012EEE74FF08072D8
:10384800EBE70122E9E71022E7E74FF48072E4E7AB
:1038580000205BE7800002400004024008000240AC
:103868000000024038B5C36B1A6804682568016C0B
:1038780004238B40134200F09B8015F0040F00F0E6
:103888009780236813F0200F03D1236823F00403E3
:10389800236003689A4A934246D9783A934224D0DF
:1038A8001432934228D01432934227D014329342D0
:1038B80027D01432934227D01432934227D014329F
:1038C800934227D002F56272934226D01432934273
:1038D80025D01432934224D01432934202D04FF4AC
:1038E800802203E04FF4804200E00422854B5A60B6
:1038F800C36A03B1984738BD4022F7E74FF48062A6
:10390800F4E74FF48042F1E74FF48022EEE74FF4FA
:103918008002EBE74FF08062E8E70422E6E7402206
:10392800E4E74FF48062E1E7774A934224D0143207
:10393800934225D01432934224D01432934224D097
:103948001432934224D01432934224D01432934236
:1039580024D002F56272934223D01432934222D0CB
:103968001432934221D01432934202D04FF4802271
:1039780003E04FF4804200E00422644B5A60B7E74A
:103988004022FAE74FF48062F7E74FF48042F4E709
:103998004FF48022F1E74FF48002EEE74FF08062A7
:1039A800EBE70422E9E74022E7E74FF48062E4E727
:1039B80002238B40134200F0AB8015F0020F00F099
:1039C800A780236813F0200F06D1236823F00A0389
:1039D8002360012380F821300368494A93424BD978
:1039E800783A934224D0143293422DD01432934221
:1039F8002CD0143293422CD0143293422CD014324F
:103A080093422CD0143293422CD002F56272934226
:103A18002BD0143293422AD01432934229D0143234
:103A2800934202D04FF4003203E04FF4005200E01A
:103A38000222344B5A60002380F82030836A002B1E
:103A48003FF459AF984756E72022F2E74FF4007247
:103A5800EFE74FF40052ECE74FF40032E9E74FF498
:103A68000012E6E74FF00072E3E70222E1E72022C6
:103A7800DFE74FF40072DCE7234A934224D0143284
:103A8800934225D01432934224D01432934224D046
:103A98001432934224D01432934224D014329342E5
:103AA80024D002F56272934223D01432934222D07A
:103AB8001432934221D01432934202D04FF4003290
:103AC80003E04FF4005200E00222104B5A60B2E7C4
:103AD8002022FAE74FF40072F7E74FF40052F4E7B8
:103AE8004FF40032F1E74FF40012EEE74FF00072A6
:103AF800EBE70222E9E72022E7E74FF40072E4E768
:103B08008000024000040240080002400000024019
:103B1800082303FA01F111423FF4EDAE15F0080F46
:103B28003FF4E9AE236823F00E032360026CC16BF7
:103B3800012303FA02F24A60836380F821300023EC
:103B480080F82030036B002B3FF4D5AE9847D2E6BF
:103B5800074AD36823F4E0631B041B0C000200F43B
:103B6800E060034343F0BF6343F40033D36070471E
:103B780000ED00E000B5194BDB68C3F30223C3F185
:103B8800070CBCF1040F28BF4FF0040C03F1040E1E
:103B9800BEF1060F18D9033B4FF0FF3E0EFA0CFC9E
:103BA80021EA0C0199400EFA03F322EA03031943B0
:103BB80000280BDB0901C9B200F1604000F5614043
:103BC80080F800135DF804FB0023E5E700F00F0020
:103BD8000901C9B2024B1954F4E700BF00ED00E037
:103BE80014ED00E0002807DB00F01F024009012364
:103BF8009340024A42F82030704700BF00E100E0DD
:103C08000138B0F1807F0BD24FF0E0235861054AAC
:103C1800F02182F823100020986107221A6170476A
:103C28000120704700ED00E07047000000B583B048
:103C38000E4B5A6942F001025A615B6903F00103B5
:103C48000193019B002211460D20FFF793FF0D20E1
:103C5800FFF7C8FF002211461020FFF78BFF102046
:103C6800FFF7C0FF03B05DF804FB00BF001002407F
:103C780008B50A480A4B03604FF416534360002303
:103C88008360C36003610C2242618361C36100F0F9
:103C9800F5F900B908BDFDF775FCFBE74C090020F4
:103CA8000038014008B50A480A4B03604FF4E13375
:103CB800436000238360C36003610C224261836117
:103CC800C36100F0DBF900B908BDFDF75BFCFBE759
:103CD800900900200044004008B50A480A4B0360D8
:103CE8004FF4E133436000238360C36003610C2217
:103CF80042618361C36100F0C1F900B908BDFDF7F5
:103D080041FCFBE7D40900200048004070B58AB0A8
:103D18000023069307930893099303685F4A934225
:103D280008D004465E4A93422ED05E4A93426FD032
:103D38000AB070BD5C4B9A6942F480429A619A69F4
:103D480002F480420092009A9A6942F004029A6151
:103D58009B6903F004030193019B4FF400730693DE
:103D68000223079303230993504C06A92046FFF723
:103D7800E1FA4FF48063069300230793089306A99A
:103D88002046FFF7D7FAD3E7474BDA6942F4003207
:103D9800DA61DA6902F400320292029A9A6942F010
:103DA80004029A619B6903F004030393039B0423B1
:103DB800069302230793032309933C4E06A9304632
:103DC800FFF7B8FA0823069300250795089506A972
:103DD8003046FFF7AFFA3648364B036045608560DA
:103DE8008023C360056145618561C561FFF7DEFB1E
:103DF80058B92F4BA3635C62002211462620FFF7B7
:103E0800B9FE2620FFF7EEFE92E7FDF7BBFBF0E7D1
:103E1800254BDA6942F48022DA61DA6902F48022F9
:103E28000492049A9A6942F008029A619B6903F025
:103E380008030593059B4FF48063069302230793B9
:103E4800032309931C4E06A93046FFF773FA4FF473
:103E58000063069300250795089506A93046FFF7E5
:103E680069FA1648164B0360456085608023C36075
:103E7800056145618561C561FFF798FB58B90F4B2E
:103E8800A3635C62002211462720FFF773FE2720F8
:103E9800FFF7A8FE4CE7FDF775FBF0E70038014097
:103EA8000044004000480040001002400008014063
:103EB800C40800206C000240000C014008090020E2
:103EC8003000024008B5034B834200D008BDFEF71E
:103ED8006DF8FBE7900900200268D36823F0C0035F
:103EE800D360202380F83D3070470268D36823F4FC
:103EF8009073D3600268536923F001035361036B25
:103F0800012B05D0202380F83E300023036370473F
:103F18000268D36823F01003D360F3E790F83D30CC
:103F2800DBB2212B01D0022070478368B3F5805F94
:103F380017D0036A5A1C02621A7803685A60C38C45
:103F48009BB2013B9BB2C3844BB90268D36823F090
:103F58008003D3600268D36843F04003D360002035
:103F680070470369002BE4D1036A1B880268C3F316
:103F780008035360036A02330362E0E710B504469E
:103F88000268136923F44053C1680B4313618368C3
:103F98000269134342691A430168CB6823F4B0539A
:103FA80023F00C031343CB600268536923F4407376
:103FB80081690B4353610268134B9A4220D0FFF783
:103FC80099F9024602EB820202EB820263689B00C7
:103FD800B2FBF3F20D48A0FB02314909642303FB4D
:103FE80011231B013233A0FB03235B0903F0F0020A
:103FF80002EB011203F00F03216813448B6010BD1C
:10400800FFF788F90246DDE7003801401F85EB51CC
:104018002DE9F84305460F4616469946DDF82080F7
:104028002C68246837EA04030CBF4FF0010C4FF0EA
:10403800000CB4451FD1B8F1FF3FF1D0B8F1000F23
:1040480005D0FEF72BFEA0EB09004045E8D92A6809
:10405800D36823F4D073D3602A68536923F001032B
:104068005361202385F83D3085F83E30002385F8DC
:104078003C30032000E00020BDE8F88358B310B5B9
:10408800044690F83D300BB3242384F83D30226871
:10409800D36823F40053D3602046FFF76FFF2268EC
:1040A800136923F4904313612268536923F02A03A8
:1040B80053612268D36843F40053D360002020641E
:1040C800202384F83D3084F83E3010BD80F83C3021
:1040D800FFF71CFED8E7012070472DE9F04182B0B8
:1040E8001E4690F83D30DBB2202B54D104460D46D5
:1040F8009046002953D0002A53D090F83C30012B29
:1041080051D0012380F83C3000230364212380F838
:104118003D30FEF7C3FD0746A4F82480A4F82680A6
:10412800A368B3F5805F05D04FF00008002384F83A
:104138003C3012E0236913B14FF00008F6E7A846B7
:104148000025F3E738F8023B2268C3F308035360FD
:10415800E28C92B2013A92B2E284E38C9BB273B1E0
:1041680000963B46002280212046FFF751FFE0B928
:10417800002DE7D015F8012B23685A60E8E7009670
:104188003B46002240212046FFF742FF78B9202312
:1041980084F83D3000E0022002B0BDE8F081012043
:1041A800FAE70120F8E70220F6E70320F4E7032006
:1041B800F2E7704708B50168CA6822F04002CA6091
:1041C800202280F83D20FFF7F4FF002008BD70474B
:1041D80010B5446A23685A6994F83D30DBB2212B44
:1041E80010D023685A6902F0400294F83E30DBB2DE
:1041F800222B11D0236C43F0100323642046FDF7D3
:104208001FFF10BD02F08002002AEAD00023E384D9
:104218002046FFF761FEE4E7002AEBD00023E385A0
:104228002046FFF762FEE5E708B5406A0023C3852C
:10423800C384FDF705FF08BD90F83E30DBB2222BA2
:1042480060D18368B3F5805F46D0826AB3F5805F3A
:1042580004D0002B4DD10369002B4AD103685B6859
:104268001370836A01338362C38D9BB2013B9BB297
:10427800C385002B48D100B583B00268D36823F00A
:104288002003D3600268D36823F48073D360026884
:10429800536923F001035361202380F83E30036BF8
:1042A800012B2CD1002303630268D36823F0100389
:1042B800D36003681A6812F0100F06D0002201922A
:1042C8001A6801925B680193019B818DFDF7D0FE0E
:1042D800002003B05DF804FB0269002AB5D1826AA8
:1042E80003685B68C3F308031380836A023383623D
:1042F800BAE703685B6803F07F031370B1E7FFF761
:10430800E1FDE5E7022070470020704730B583B033
:10431800044602681368D068516913F00F0505D187
:1043280013F0200F02D010F0200F19D12DB111F089
:10433800010119D110F4907F16D1216B012975D094
:1043480013F0800F03D010F0800F40F0D78013F0E7
:10435800400F03D010F0400F40F0D48003B030BDC0
:104368002046FFF769FFF9E713F0010F06D010F4B4
:10437800807F03D0226C42F00102226413F0040F04
:1043880004D019B1226C42F00202226413F0020F29
:1043980004D019B1226C42F00402226413F0080F11
:1043A80007D010F0200F00D119B1226C42F008029A
:1043B8002264226C002AD1D013F0200F02D010F012
:1043C800200F21D123685B6903F04003226C12F0AF
:1043D800080F00D123B32046FFF787FD23685A69E9
:1043E80012F0400F18D05A6922F040025A61A36BAC
:1043F80073B1464A5A63A06BFFF780F90028ADD025
:10440800A06B436B9847A9E72046FFF715FFD9E74C
:104418002046FDF715FEA1E72046FDF711FE9DE7B2
:104428002046FDF70DFE0023236497E713F0100FD5
:1044380086D010F0100F83D00023019313680193E6
:1044480053680193019B536913F0400F32D0A16B5D
:104458000B685B689BB2002B80D0A08D98427FF6DA
:104468007DAFE3858B69202B08D1A18DE38D9BB2AD
:10447800C91A89B22046FDF7FBFD6FE7D36823F41C
:104488008073D3602268536923F001035361226863
:10449800536923F040035361202384F83E300023FE
:1044A80023632268D36823F01003D360A06BFFF75F
:1044B80003F9DAE7A18DE38D9BB2C91A89B2E38DBE
:1044C8009BB2002B3FF44AAF00293FF447AFD368B3
:1044D80023F49073D3602268536923F00103536176
:1044E800202384F83E30002323632268D36823F016
:1044F8001003D3602046FDF7BBFD2FE72046FFF7EA
:104508000DFD2BE72046FFF755FE27E7314200084F
:1045180008B5406A036B012B02D0FFF758FE08BDAF
:10452800818D4908FDF7A4FDF9E708B50346406AFF
:104538001B681B6813F0200F16D10023C38502687F
:10454800D36823F48073D3600268536923F00103AE
:1045580053610268536923F040035361202380F8B4
:104568003E30036B012B05D0036B012B08D0FFF7FE
:10457800A9FC08BD0268D36823F01003D360F3E7F1
:10458800818DFDF775FDF4E730B583B00446134619
:104598008162828500250564222280F83E20826B94
:1045A80014489062A26B1448D062A26B134810633F
:1045B800A26B556320680A46011DA06BFFF742F8FD
:1045C800019523681A6801925A680192019A84F841
:1045D8003C50DA6842F48072DA602268536943F02A
:1045E800010353612268536943F04003536128462D
:1045F80003B030BD3345000819450008D94100080B
:1046080008B590F83E30DBB2202B0DD171B17AB1EC
:1046180090F83C30012B0DD0012380F83C3000236A
:104628000363FFF7B1FF00E0022008BD0120FCE7AB
:104638000120FAE70220F8E790F83E30DBB2202BA1
:1046480021D110B582B00446F9B102B390F83C30DC
:10465800012B1FD0012380F83C300363FFF794FF40
:10466800B0B9236B012B01D0012011E00023019385
:1046780023681A6801925A680192019ADA6842F02E
:104688001002DA6004E002207047012000E00120F7
:1046980002B010BD0220FBE70C480D490D4A00236B
:1046A80002E0D458C4500433C4188C42F9D30A4ADF
:1046B8000A4C002301E013600432A242FBD3FFF747
:1046C800B3FA00F00FF8FCF791FF704700000020E4
:1046D8005C040020BC5E00085C0400201C0A00206A
:1046E800FEE7000070B50D4E0D4D761BB61006D0D6
:1046F800002455F8043B01349847A642F9D1094EE5
:10470800094D01F0BFFA761BB61006D0002455F803
:10471800043B01349847A642F9D170BDB05E000849
:10472800B05E0008B85E0008B05E0008830730B5C8
:1047380048D0541E002A3FD00346CAB201E0013CCB
:104748003AD303F8012B9D07F9D1032C2DD9CDB20B
:1047580045EA05250F2C45EA054536D9A4F110028E
:1047680022F00F0C03F1200EE6444FEA121C03F16D
:10477800100242E9045542E9025510327245F8D157
:104788000CF1010214F00C0F03EB021204F00F0CF1
:1047980013D0ACF1040323F003030433134442F8A9
:1047A800045B9342FBD10CF003042CB1CAB21C4445
:1047B80003F8012B9C42FBD130BD64461346002C04
:1047C800F4D1F9E703461446BFE71A46A446E0E7E2
:1047D800024B13B1024800F005B870470000000012
:1047E800F9470008002301461A46184600F01AB88F
:1047F80038B5084B084D5B1B9C1007D0043B1D4483
:10480800013C55F804399847002CF9D1BDE83840E7
:1048180001F03EBABC5E0008B85E0008704700BFF1
:10482800704700BF2DE9F047DFF87CA00646DAF8AC
:10483800000098460F469146FFF7F0FF1B4B1B6898
:10484800D3F8484124B365681F2D26DC5EB96B1C7C
:104858000235DAF80000636044F82570FFF7E0FFDE
:104868000020BDE8F087012304EB8501C1F888909A
:10487800D4F88821AB401A43022EC4F88821C1F825
:104888000881E4D1D4F88C211343C4F88C31DEE7D5
:1048980003F5A674C3F84841D5E7DAF80000FFF736
:1048A800BFFF4FF0FF30DCE758040020D45C00085D
:1048B80010B5264C21F00043A34286B021DD244ADE
:1048C800934209DD02460B46FBF7AEFC02460B4657
:1048D8001046194606B010BD02AA00F095F800F07F
:1048E8000300012814D0022826D0E0B1DDE9042312
:1048F800DDE902010124009401F002F802460B46AA
:10490800E6E70022002306B0BDE8104000F0A8BA90
:10491800DDE904230090DDE9020100F0F1FF024621
:1049280001F10043D4E7DDE90423DDE9020100F0E9
:1049380097FA02460B46CBE7DDE90423DDE90201DD
:1049480000F08EFA024601F10043C1E7FB21E93F7E
:10495800FFFFEF7F10B5294C21F00043A34286B03A
:1049680020DD274A934209DD02460B46FBF75CFC33
:1049780002460B461046194606B010BD02AA00F0C2
:1049880043F800F00300012818D002282AD0F0B11B
:10499800DDE90423DDE9020100F062FA024601F1D3
:1049A8000043E7E7002400220023009400F0A8FF5A
:1049B80002460B461046194606B010BDDDE9042331
:1049C800DDE9020100F04CFA02460B46D2E7012469
:1049D800DDE90423DDE90201009400F091FF0246BD
:1049E8000B46C7E70124DDE90423DDE90201009451
:1049F80000F086FF024601F10043BBE7FB21E93FD7
:104A0800FFFFEF7F000000002DE9F04FDFF838C20C
:104A180021F000456545064614468FB040F3858071
:104A28008A4A0F46954226DC7DA3D3E90023002954
:104A380040F3C081FBF7F8FB854B80469D428946D1
:104A480000F08A8078A3D3E90023FBF7EDFB024648
:104A58000B464046C4E900234946FBF7E5FB72A331
:104A6800D3E90023FBF7E0FB0126C4E90201304645
:104A78000FB0BDE8F08F774A954240F38D80764AB3
:104A880095425FDC4FEA2558A8F21648A5EB085175
:104A98008B46FCF71BF8FBF715FD02460B46304624
:104AA8005946CDE90823FBF7BFFB00226B4BFBF708
:104AB80073FD8B468246FCF709F80546FBF702FDB5
:104AC80002460B4650465946CDE90A23FBF7ACFB94
:104AD8000022624BFBF760FD02460B46CDE90C2332
:104AE80000220023FBF7C0FF002800F06181002DA1
:104AF8000CBF01230223022559494246019108A807
:104B08002146009500F0D4FA002F0646AFDAD4E922
:104B1800000505F10041C4E90001E168A26801F15E
:104B28000043C4E902237642A1E700264FF00008BB
:104B38004FF00009C2E900013046C2E902890FB00E
:104B4800BDE8F08F02460B46FBF76EFB0026C4E972
:104B58000201C4E900018AE735A3D3E90023FBF782
:104B680063FB35A3D3E9002380468946FBF75CFB4A
:104B780002460B464046C4E900234946FBF754FB6E
:104B88002DA3D3E90023FBF74FFB0126C4E902015B
:104B980030460FB0BDE8F08F00F074FF28A3D3E9CA
:104BA800002380468946FBF7F7FC00222D4BFBF7D4
:104BB8003DFBFBF78BFF0646FBF784FC18A3D3E904
:104BC800002382468B46CDE904ABFBF7E5FC0246A1
:104BD8000B4640464946FBF727FB13A3D3E90023BE
:104BE800CDE9020150465946FBF7D6FC1F2E8046F8
:104BF80089463BDC1C4B721E53F82230AB4235D041
:104C080002460B46DDE90201FBF70EFB02460B46A6
:104C180082468B46C4E90023AEE000BFAFF30080B4
:104C280000004054FB21F93F3163621A61B4D03D62
:104C38000000601A61B4D03D7370032E8A19A33B3B
:104C480083C8C96D305FE43FFB21E93F7BD902404F
:104C5800FB21F93FFB213941FFFFEF7F0000704145
:104C6800585D00080000E03FD85C00082B1507934A
:104C78004246DDE902014B46FBF7D6FAC1F30A5377
:104C8800C3EB1555102D8B46824671DD68A3D3E919
:104C98000023DDE90401FBF77FFCDDE902AB804678
:104CA800894642464B4650465946FBF7BDFA0246EE
:104CB8000B465046594692469B46FBF7B5FA424684
:104CC8004B46FBF7B1FA5CA3D3E90023804689463B
:104CD800DDE90401FBF760FC42464B46FBF7A4FA0A
:104CE800804689465046594642464B46CDE902AB76
:104CF800FBF79AFA079AC1F30A53D31A312B8B465A
:104D0800824635DD4EA3D3E90023DDE90401FBF734
:104D180043FCDDE902AB8046894642464B46504695
:104D28005946FBF781FA02460B46504659469246C9
:104D38009B46CDE902ABFBF777FA42464B46FBF7B9
:104D480073FA41A3D3E9002380468946DDE90401CB
:104D5800FBF722FC42464B46FBF766FA804689463B
:104D68005046594642464B46FBF75EFA8B4682460A
:104D780052465B46C4E90023DDE9020152465B4620
:104D8800FBF752FA42464B46FBF74EFA02460B46F1
:104D9800002FC4E90223BFF66AAE0BF1004301F10C
:104DA8000041A0606360E1607642C4F800A05EE65E
:104DB8000323A0E6FBF73AFA274B80469D42894633
:104DC80016D023A3D3E90023FBF730FA02460B469B
:104DD8004046C4E900234946FBF726FA1CA3D3E959
:104DE8000023FBF723FA4FF0FF36C4E902013EE641
:104DF8000FA3D3E90023FBF719FA0FA3D3E9002384
:104E080080468946FBF712FA02460B464046C4E93B
:104E180000234946FBF708FA07A3D3E90023FBF769
:104E280005FA4FF0FF36C4E9020120E6AFF300802F
:104E38000000601A61B4D03D7370032E8A19A33B39
:104E48000000002E8A19A33BC14920259A837B398B
:104E58003163621A61B4D03DFB21F93F00000000C4
:104E68002DE9F04F21F00046B6F1795F92469B4656
:104E78000C46054685B06DDAFBF728FE002800F0E1
:104E8800EB802A46234628462146FBF785FB76A376
:104E9800D3E9002380468946FBF77EFB74A3D3E958
:104EA8000023FBF7C3F942464B46FBF775FB72A399
:104EB800D3E90023FBF7B8F942464B46FBF76CFBF6
:104EC8006FA3D3E90023FBF7B1F942464B46FBF742
:104ED80063FB6DA3D3E90023FBF7A6F942464B46D3
:104EE800FBF75AFB6AA3D3E90023FBF79FF9424675
:104EF8004B46FBF751FBCDE90001002240464946ED
:104F0800654BFBF749FBDDE9002306460F464046A3
:104F18004946FBF741FBA846A14652465B46044674
:104F28000D4640464946FBF737FB02460B462046EE
:104F38002946FBF779F902460B4630463946FBF716
:104F480073F902460B4600205449FBF76DF905B08A
:104F5800BDE8F08F02460B46FBF71EFB42A3D3E9E0
:104F6800002380468946FBF717FB41A3D3E90023BA
:104F7800FBF75CF942464B46FBF70EFB3EA3D3E931
:104F88000023FBF751F942464B46FBF705FB3CA3D0
:104F9800D3E90023FBF74AF942464B46FBF7FCFAF4
:104FA80039A3D3E90023FBF73FF942464B46FBF709
:104FB800F3FA37A3D3E90023FBF738F94B46424607
:104FC800FBF7EAFA364BCDE900019E4295DD354BF9
:104FD80000229E423ADCA6F5001300202F4916460F
:104FE8001F46FBF721F9CDE9020100224046494658
:104FF800294BFBF7D1FA32463B46FBF715F9DDE9B9
:10500800002306460F4640464946FBF7C5FAA84620
:10501800A14652465B4604460D4640464946FBF7C4
:10502800BBFA02460B4620462946FBF7FDF8024626
:105038000B4630463946FBF7F7F802460B46DDE9E2
:105048000201FBF7F1F805B0BDE8F08F164B00261A
:10505800CDE90223154FC8E70020104905B0BDE887
:10506800F08F00BFAFF30080D43888BEE9FAA8BD3E
:10507800C4B1B4BD9EEE213EAD529C804F7E923E9F
:105088009015CB19A001FA3E7751C1166CC1563F55
:105098004C5555555555A53F0000E03F0000F03FE1
:1050A8003233D33F0000E93F0000E73F0000D23F22
:1050B8002DE9F04FADF5197DB84CA29D089354F831
:1050C8002540013B12F1140F074605940B910393F9
:1050D800C0F24283B249D31E81FB0301DB17C3EB45
:1050E800A10307930133A3EB8303DB00D3180693D3
:1050F800079A039BD61A059A12EB03091BD409F1E8
:10510800010900240025DDF88CA2B1440DF18008C6
:1051180008E05AF82600FBF7D5F901364E45E8E8CD
:10512800020108D0002EF4DA2046294601364E4501
:10513800E8E80201F6D1059B002BC0F2BC83089B6E
:1051480020AA02EBC30ADA000292059AA7F1080125
:105158001A44DDF80C9004910DF5E07B019201EB07
:10516800C308039B002BC0F2AE81574600240025DC
:10517800049E77E90223F6E90201FBF70DFA0246DD
:105188000B4620462946FBF751F8464504460D468E
:10519800EFD1019B09F101099945EBE802450AF1B4
:1051A800080ADED1049BDDF808B00BAA9B44059BD6
:1051B80002EB83020A920CAA019302EB8303083BD9
:1051C8000993019A98AB03EBC203002A53E92845D7
:1051D80029DD0DF5E07A0DF130090AEBC20800224D
:1051E800704B20462946FBF7D7F9FBF76FFCFBF716
:1051F80069F900226C4B06460F46FBF7CDF90246CB
:105208000B4620462946FBF70FF8FBF75FFC78E9C9
:10521800022349F8040B39463046FBF707F8D04516
:1052280004460D46DBD1DDF81890204629464A464B
:1052380000F0AAFC00224FF07F5304460D46FBF70E
:10524800ABF900F025FC0022584BFBF7A5F9024604
:105258000B4620462946FAF7E7FF0D460446FBF7BA
:1052680035FC8046FBF72EF90B46024629462046B8
:10527800FAF7DAFF4B46002B06460F4640F39880B4
:10528800019A0CA9013A51F82250C9F1180345FABC
:1052980003F101FA03F3ED1A0CAB43F82250C9F1FC
:1052A80017031D41002D884400F38C800022002341
:1052B80030463946FBF7D8FB002800F05482019BA2
:1052C800059A03F1FF3A524510DC002203F18043AE
:1052D800013B0CA90A9801EB830353F80419834294
:1052E80042EA0102F9D1002A40F0F080059B0CAA9D
:1052F800013B52F82330002B40F0E0800123099A4B
:1053080052F8041901330029FAD0019AD3180293EC
:10531800531C9946DDF80480089A9044079A02EBDA
:10532800030A0AF1804AA39A0AF1FF3A02EB8A0AB1
:1053380020AA02EBC80870AA02EBC30301935AF82B
:10534800040FFBF7BFF8039B4746002B08F108083A
:1053580048E902011FDB00240025049E083F01E004
:1053680077E80201F6E90223FBF716F902460B4635
:1053780020462946FAF75AFF5E4504460D46EFD106
:10538800019B09F10109E3E802450193029B994554
:10539800D5DD019315E700240025F1E7A05E00089C
:1053A800ABAAAA2A0000703E00007041000020400D
:1053B8006BD1019B0CAA013B52F82350ED15002D2F
:1053C8007FF774AF019B08F10108002B40F3C981F6
:1053D8000C9C002C51D1019B012B20D001220CAB3D
:1053E80053F8044F002C4BD0531C0CA9C4F1807403
:1053F80041F822400199994210DD0CAC0CAA52F8F0
:1054080023206FF07F4004EB830304EB810100E06D
:105418001A68821A43F8042B8B42F9D10124069B9F
:10542800002B0EDD012B00F08C81022B09D1019B92
:105438000CA95A1E0CAB53F82230C3F3150341F8DC
:105448002230022D7FF432AF32463B4600207A49A3
:10545800FAF7EAFE06460F46002C3FF427AF069AF5
:105468000020754900F090FB02460B46304639464D
:10547800FAF7DAFE06460F4618E701230022B4E7DA
:10548800019901328A42ABD1C9E700226B4BFBF785
:1054980009FB054600283FF409AF019B08F1010804
:1054A800002BC8BF022593DC32463B4600206249E8
:1054B800FAF7BAFE022506460F46F7E6019B0133C6
:1054C8009946029326E70024002562E6069B039589
:1054D800A3F118020CAB53F82A30CDF81C800692C1
:1054E80073B9019B0CA903F18043023B01EB8303D1
:1054F80053F804190AF1FF3A183A0029F8D006922D
:105508000020069A4C4900F03FFBBAF1000F044610
:105518000D46C0F2D7814FF0000870AB03EBCA0B01
:105528000CAA0AF10103069302EB8306DFF8109137
:105538004FEACA0304930BF1080756F8040DFAF76B
:10554800C1FF22462B46FBF727F84B4667E90201C5
:10555800424620462946FBF71FF80CAB9E420446FC
:105568000D46EAD148ABCDE9013ADDF814A04FF079
:105578000009BAF1000F2CDB2DA3D3E900235F4605
:10558800002600240025DFF8BC8003E0B14510DBCD
:10559800F8E80223F7E80201FAF7FEFF02460B4695
:1055A80020462946FAF742FE0136B24504460D4622
:1055B800ECDA019B029A03EBC9039145C3E9004564
:1055C800ABF1080B09F1010306D0BAF1000F9946B7
:1055D800D2DA00240025ECE7A29BDDF808A0022B14
:1055E80032DC002B00F3F28018D1A29B049D1C46EC
:1055F800019E08353544184675E902232146FAF715
:1056080015FEAE4203460C46F5D1039A0AB104F1E1
:105618000044184621460B9BC3E90001079B03F091
:1056280007000DF5197DBDE8F08F00BFAFF30080CE
:1056380000000040FB21F93F0000F03F0000E03F80
:105648000000703E685E0008A29B032BE6D1BAF109
:10565800000F00F04D81019B049A13449B46D3E947
:1056680000455BE902672046294632463B46FAF781
:10567800DDFDA046A94604460D4622462B46304687
:105688003946FAF7D1FD4B464246FAF7CFFDCBE94A
:1056980000016BE90245019B5B45E2D1BAF1010FBC
:1056A80040F32681049B019A0DF5947B13449A4696
:1056B800D3E9004502935AE9026720462946324653
:1056C8003B46FAF7B3FDA046A94604460D462246D6
:1056D8002B4630463946FAF7A7FD42464B46FAF7BD
:1056E800A5FDCAE900016AE90245D345E3D10023D3
:1056F8001E46029C019A083402F11005184674E906
:1057080002233146FAF792FDA54203460E46F5D12B
:10571800039A002A40F0A480184631460B9C019B4E
:10572800C4E90401D3E90223C4E90223DDE94823DB
:10573800C4E90023079B03F007000DF5197DBDE8B8
:10574800F08F019B0CA95A1E0CAB53F82230C3F3FF
:10575800160341F8223074E600216FF01703079111
:10576800C4E400245BE6069C304639466242039551
:10577800CDF81C8000F008FA00225F4B06460F4661
:10578800FBF790F9002861D000225C4B18343046B2
:1057980039460694FAF700FFFBF798F90446FAF73A
:1057A80091FE0022544BFAF7F7FE0B4602463946A3
:1057B8003046FAF739FDFBF789F9019D0CAB05F185
:1057C800010A43F8250043F82A4099E600263446A2
:1057D800019F069B07EBC305304675E90223214666
:1057E800FAF724FDAF4206460C46F5D1039B002B81
:1057F80050D13046214623460B9C3246C4E900016D
:10580800DDE94801FAF710FDBAF1000F03460E462C
:1058180010DD012448AD1846F5E902233146FAF7B0
:1058280005FD0134A24503460E46F4DA039A0AB18F
:1058380006F10046184631460B9BC3E90201079B57
:1058480003F007000DF5197DBDE8F08F30463946A5
:10585800FBF73CF9019B0CAA9A4642F823004FE655
:105868000B9D019C06F100466E6126462068A268E1
:1058780064682B6104F10041F468C5E9000104F192
:105888000043C5E90223079B03F007000DF5197DC6
:10589800BDE8F08F0B9804F10041066032462346BC
:1058A8004160DDE94801FAF7BFFCBAF1000F034691
:1058B8000E46AEDCBCE7A7F108030493089BDB00A7
:1058C80002936FE4A29B022B06DC002B0DDC7FF415
:1058D800A5AEA29B1C4698E6A29B032B7FF49EAE26
:1058E800002348AA1E46019212E7002634467DE7A7
:1058F80000231E460CE700BF000070410000703E08
:105908002DE9F04F85B0CDE9022321F00043B3F132
:10591800795F8246019104DAFBF7D8F8002800F095
:105928008E80019B524619465046FAF735FE0446CA
:105938000D46019B2246194650462B46FAF72CFE87
:1059480043A3D3E9002306460F4620462946FAF723
:1059580023FE41A3D3E90023FAF766FC22462B462F
:10596800FAF71AFE3EA3D3E90023FAF75FFC2246B2
:105978002B46FAF711FE3CA3D3E90023FAF754FCAF
:1059880022462B46FAF708FE39A3D3E90023FAF793
:105998004DFC0E9B80468946BBB3DDE9020100221F
:1059A800374BFAF7F9FD42464B4680468946304662
:1059B8003946FAF7F1FD02460B4640464946FAF7E2
:1059C80033FC22462B46FAF7E7FDDDE90223FAF716
:1059D8002BFC29A3D3E9002304460D46304639465B
:1059E800FAF7DAFD02460B4620462946FAF71EFC6E
:1059F80002460B4650460199FAF716FC82468B463A
:105A08005046594605B0BDE8F08F02460B46204681
:105A18002946FAF7C1FD18A3D3E90023FAF704FCD5
:105A280032463B46FAF7B8FD5246019BFAF7FEFBB1
:105A380082468B465046594605B0BDE8F08FDDF8E2
:105A480004B05046594605B0BDE8F08FAFF300806A
:105A58007CD5CF5A3AD9E53DEB9C2B8AE6E55A3EF0
:105A68007DFEB157E31DC73ED561C119A0012A3F8C
:105A7800A6F810111111813F495555555555C53F87
:105A88000000E03F21F00041704700BF0000000027
:105A9800C1F30A52F8B5A2F2FF35132D0B4684461E
:105AA8000C46064630DC002D1EDB354F2F4101EA3F
:105AB8000702024315D030A3D3E90023FAF7B6FB57
:105AC80000220023FAF7F8FF48B1002C04DA4FF45B
