:020000040800F2
:1000000000C00020415600082D3100082F310008A3
:10001000313100083331000835310008000000009C
:100020000000000000000000000000003731000860
:1000300039310008000000003B3100083D31000864
:100040008956000889560008895600088956000814
:100050008956000889560008895600088956000804
:1000600089560008895600088956000889560008F4
:10007000895600084531000889560008895600084D
:10008000553100088956000889560008895600082D
:1000900089560008895600088956000889560008C4
:1000A00089560008653100088956000889560008FD
:1000B00089560008895600088956000889560008A4
:1000C0008956000889560008895600088956000894
:1000D00089560008895600087531000885310008E6
:1000E0008956000889560008895600088956000874
:1000F0008956000889560008895600088956000864
:100100008956000889560008895600088956000853
:100110008956000889560008895600088956000843
:100120008956000889560008895600088956000833
:1001300000000000000000000000000000000000BF
:1001400000000000000000000000000000000000AF
:10015000000000000000000000000000000000009F
:10016000000000000000000000000000000000008F
:10017000000000000000000000000000000000007F
:10018000000000000000000000000000000000006F
:10019000000000000000000000000000000000005F
:1001A000000000000000000000000000000000004F
:1001B000000000000000000000000000000000003F
:1001C000000000000000000000000000000000002F
:1001D000000000000000000000000000000000001F
:0401E0005FF8E0F1F3
:1001E80010B5054C237833B9044B13B10448AFF369
:1001F80000800123237010BD200A002000000000A9
:100208009CD1000808B5034B1BB103490348AFF361
:10021800008008BD00000000240A00209CD10008CE
:10022800844641EA000313F0030349D1403A23D33B
:100238000B6803604B6843608B688360CB68C3605E
:100248000B6903614B6943618B698361CB69C36146
:100258000B6A03624B6A43628B6A8362CB6AC3622E
:100268000B6B03634B6B43638B6B8363CB6BC36316
:1002780040304031403ADBD230320BD30B68036058
:100288004B6843608B688360CB68C3601030103163
:10029800103AF3D20C3205D351F8043B40F8043B32
:1002A800043AF9D2043208D0D2071CBF11F8013B36
:1002B80000F8013B01D30B8803806046704700BFFC
:1002C800082A13D38B07B1D010F00303AED0C3F1C3
:1002D8000403D21ADB071CBF11F8013B00F8013BED
:1002E800A4D331F8023B20F8023B9FE7043AD9D364
:1002F800013A11F8013B00F8013BF9D20B78037081
:100308004B7843708B7883706046704781F000416A
:1003180002E000BF83F0004330B54FEA41044FEAE2
:10032800430594EA050F08BF90EA020F1FBF54EA7D
:10033800000C55EA020C7FEA645C7FEA655C00F019
:10034800E2804FEA5454D4EB5555B8BF6D420CDDEA
:100358002C4480EA020281EA030382EA000083EA6D
:10036800010180EA020281EA0303362D88BF30BD0D
:1003780011F0004F4FEA01314FF4801C4CEA113163
:1003880002D0404261EB410113F0004F4FEA0333C2
:100398004CEA133302D0524263EB430394EA050F4D
:1003A80000F0A780A4F10104D5F1200E0DDB02FABC
:1003B8000EFC22FA05F2801841F1000103FA0EF250
:1003C800801843FA05F359410EE0A5F120050EF116
:1003D800200E012A03FA0EFC28BF4CF0020C43FA47
:1003E80005F3C01851EBE37101F0004507D54FF054
:1003F800000EDCF1000C7EEB00006EEB0101B1F5A4
:10040800801F1BD3B1F5001F0CD349085FEA3000E9
:100418004FEA3C0C04F101044FEA445212F5800FF4
:1004280080F09A80BCF1004F08BF5FEA500C50F191
:10043800000041EB045141EA050130BD5FEA4C0C74
:10044800404141EB0101013C28BFB1F5801FE9D2D1
:1004580091F0000F04BF01460020B1FA81F308BFF4
:100468002033A3F10B03B3F120020CDA0C3208DDC0
:1004780002F1140CC2F10C0201FA0CF021FA02F19B
:100488000CE002F11402D8BFC2F1200C01FA02F10B
:1004980020FA0CFCDCBF41EA0C019040E41AA2BF30
:1004A80001EB0451294330BD6FEA04041F3C1CDAF8
:1004B8000C340EDC04F11404C4F1200220FA04F018
:1004C80001FA02F340EA030021FA04F345EA0301C2
:1004D80030BDC4F10C04C4F1200220FA02F001FA84
:1004E80004F340EA0300294630BD21FA04F0294606
:1004F80030BD94F0000F83F4801306BF81F480119F
:100508000134013D4EE77FEA645C18BF7FEA655C11
:1005180029D094EA050F08BF90EA020F05D054EAE3
:10052800000C04BF1946104630BD91EA030F1EBFE8
:100538000021002030BD5FEA545C05D140004941EC
:1005480028BF41F0004130BD14F580043CBF01F5DF
:10055800801130BD01F0004545F0FE4141F47001C5
:100568004FF0000030BD7FEA645C1ABF19461046A0
:100578007FEA655C1CBF0B46024650EA013406BFA1
:1005880052EA033591EA030F41F4002130BD00BF60
:1005980090F0000F04BF0021704730B54FF480641D
:1005A80004F132044FF000054FF0000150E700BF9E
:1005B80090F0000F04BF0021704730B54FF48064FD
:1005C80004F1320410F0004548BF40424FF00001EA
:1005D8003EE700BF42004FEAE2014FEA31014FEA2D
:1005E80002701FBF12F07F4393F07F4F81F060517C
:1005F800704732F07F4208BF704793F07F4F04BFC7
:1006080041F40021704730B54FF4607401F00045A3
:1006180021F000411CE700BF50EA010208BF704703
:1006280030B54FF000050AE050EA010208BF7047F4
:1006380030B511F0004502D5404261EB41014FF45D
:10064800806404F132045FEA915C3FF4D8AE4FF065
:1006580003025FEADC0C18BF03325FEADC0C18BF48
:10066800033202EBDC02C2F1200300FA03FC20FA99
:1006780002F001FA03FE40EA0E0021FA02F11444E6
:10068800BDE600BF70B54FF0FF0C4CF4E06C1CEAFF
:1006980011541DBF1CEA135594EA0C0F95EA0C0F70
:1006A80000F0DEF82C4481EA030621EA4C5123EAE3
:1006B8004C5350EA013518BF52EA033541F4801112
:1006C80043F4801338D0A0FB02CE4FF00005E1FBC5
:1006D80002E506F00042E0FB03E54FF00006E1FB0F
:1006E80003569CF0000F18BF4EF0010EA4F1FF0452
:1006F800B6F5007F64F5407404D25FEA4E0E6D4192
:1007080046EB060642EAC62141EA55514FEAC520A2
:1007180040EA5E504FEACE2EB4F1FD0C88BFBCF51E
:10072800E06F1ED8BEF1004F08BF5FEA500E50F1CF
:10073800000041EB045170BD06F0004646EA010195
:1007480040EA020081EA0301B4EB5C04C2BFD4EBC7
:100758000C0541EA045170BD41F480114FF0000EC0
:10076800013C00F3AB8014F1360FDEBF002001F02E
:10077800004170BDC4F10004203C35DA0C341BDCA8
:1007880004F11404C4F1200500FA05F320FA04F07A
:1007980001FA05F240EA020001F0004221F00041AE
:1007A80010EBD37021FA04F642EB06015EEA430E21
:1007B80008BF20EAD37070BDC4F10C04C4F1200551
:1007C80000FA04F320FA05F001FA04F240EA020004
:1007D80001F0004110EBD37041F100015EEA430ED5
:1007E80008BF20EAD37070BDC4F1200500FA05F2F5
:1007F8004EEA020E20FA04F301FA05F243EA020374
:1008080021FA04F001F0004121FA04F220EA020082
:1008180000EBD3705EEA430E08BF20EAD37070BDC8
:1008280094F0000F0FD101F00046400041EB0101A8
:1008380011F4801F08BF013CF7D041EA060195F08A
:10084800000F18BF704703F00046520043EB030344
:1008580013F4801F08BF013DF7D043EA0603704731
:1008680094EA0C0F0CEA135518BF95EA0C0F0CD03C
:1008780050EA410618BF52EA4306D1D181EA030182
:1008880001F000414FF0000070BD50EA410606BF7C
:100898001046194652EA430619D094EA0C0F02D1C1
:1008A80050EA013613D195EA0C0F05D152EA033606
:1008B8001CBF104619460AD181EA030101F0004124
:1008C80041F0FE4141F470014FF0000070BD41F06D
:1008D800FE4141F4780170BD70B54FF0FF0C4CF447
:1008E800E06C1CEA11541DBF1CEA135594EA0C0F66
:1008F80095EA0C0F00F0A7F8A4EB050481EA030EB3
:1009080052EA03354FEA013100F088804FEA033399
:100918004FF0805545EA131343EA12634FEA022267
:1009280045EA111545EA10654FEA00260EF0004128
:100938009D4208BF964244F1FD0404F5407402D27A
:100948005B084FEA3202B61A65EB03055B084FEA0B
:1009580032024FF480104FF4002CB6EB020E75EB08
:10096800030E22BFB61A754640EA0C005B084FEA30
:100978003202B6EB020E75EB030E22BFB61A7546AD
:1009880040EA5C005B084FEA3202B6EB020E75EBF8
:10099800030E22BFB61A754640EA9C005B084FEA70
:1009A8003202B6EB020E75EB030E22BFB61A75467D
:1009B80040EADC0055EA060E18D04FEA051545EA6C
:1009C80016754FEA06164FEAC30343EA52734FEA15
:1009D800C2025FEA1C1CC0D111F4801F0BD141EA8E
:1009E80000014FF000004FF0004CB6E711F4801FF3
:1009F80004BF01430020B4F1FD0C88BFBCF5E06FD3
:100A08003FF6AFAEB5EB030C04BFB6EB020C5FEAE2
:100A1800500C50F1000041EB045170BD0EF0004E37
:100A28004EEA113114EB5C04C2BFD4EB0C0541EA69
:100A3800045170BD41F480114FF0000E013C90E666
:100A480045EA060E8DE60CEA135594EA0C0F08BF2A
:100A580095EA0C0F3FF43BAF94EA0C0F0AD150EA29
:100A680001347FF434AF95EA0C0F7FF425AF1046BC
:100A780019462CE795EA0C0F06D152EA03353FF4E4
:100A8800FDAE1046194622E750EA410618BF52EA61
:100A980043067FF4C5AE50EA41047FF40DAF52EA35
:100AA80043057FF4EBAE12E74FF0FF3C06E000BFD2
:100AB8004FF0010C02E000BF4FF0010C4DF804CDDF
:100AC8004FEA410C7FEA6C5C4FEA430C18BF7FEA9F
:100AD8006C5C1BD001B050EA410C0CBF52EA430CCD
:100AE80091EA030F02BF90EA020F0020704710F14D
:100AF800000F91EA030F58BF994208BF90422CBFDC
:100B0800D8176FEAE37040F0010070474FEA410CD4
:100B18007FEA6C5C02D150EA013C07D14FEA430CF2
:100B28007FEA6C5CD6D152EA033CD3D05DF8040B63
:100B3800704700BF8446104662468C461946634695
:100B480000E000BF01B5FFF7B7FF002848BF10F16C
:100B5800000F01BD4DF808EDFFF7F4FF0CBF0120B1
:100B680000205DF808FB00BF4DF808EDFFF7EAFF2D
:100B780034BF012000205DF808FB00BF4DF808EDE8
:100B8800FFF7E0FF94BF012000205DF808FB00BFDD
:100B98004DF808EDFFF7CEFF94BF012000205DF867
:100BA80008FB00BF4DF808EDFFF7C4FF34BF012074
:100BB80000205DF808FB00BF4FEA410C7FEA6C5C3F
:100BC80002D150EA013C0AD14FEA430C7FEA6C5C3F
:100BD80002D152EA033C02D14FF0000070474FF0B7
:100BE800010070474FEA410212F5001215D211D5E3
:100BF8006FF47873B3EB625212D94FEAC12343F012
:100C0800004343EA505311F0004F23FA02F018BF93
:100C1800404270474FF00000704750EA013005D15C
:100C280011F0004008BF6FF0004070474FF000001F
:100C3800704700BF4FEA4102B2F1E04324BFB3F569
:100C4800001CDCF1FE5C0DD901F0004C4FEAC0023B
:100C58004CEA5070B2F1004F40EB830008BF20F01F
:100C68000100704711F0804F21D113F13872BCBFD9
:100C780001F00040704741F480114FEA5252C2F12E
:100C88001802C2F1200C10FA0CF320FA02F018BF77
:100C980040F001004FEAC1234FEAD32303FA0CFCCA
:100CA80040EA0C0023FA02F34FEA4303CCE77FEA59
:100CB800625307D150EA01331EBF4FF0FE4040F4A3
:100CC8004000704701F0004040F0FE4040F4000052
:100CD800704700BF80F0004002E000BF81F0004193
:100CE80042001FBF5FEA410392EA030F7FEA226CCA
:100CF8007FEA236C6AD04FEA1262D2EB1363C1BF5A
:100D0800D218414048404140B8BF5B42192B88BFC8
:100D1800704710F0004F40F4000020F07F4018BFEB
:100D2800404211F0004F41F4000121F07F4118BF0B
:100D3800494292EA030F3FD0A2F1010241FA03FCB3
:100D480010EB0C00C3F1200301FA03F100F000439B
:100D580002D5494260EB4000B0F5000F13D3B0F163
:100D6800807F06D340084FEA310102F10102FE2AD2
:100D780051D2B1F1004F40EBC25008BF20F0010042
:100D880040EA03007047490040EB0000013A28BFE1
:100D9800B0F5000FEDD2B0FA80FCACF1080CB2EB64
:100DA8000C0200FA0CF0AABF00EBC25052421843E2
:100DB800BCBFD0401843704792F0000F81F4000187
:100DC80006BF80F400000132013BB5E74FEA41035A
:100DD8007FEA226C18BF7FEA236C21D092EA030FC6
:100DE80004D092F0000F08BF0846704790EA010F40
:100DF8001CBF0020704712F07F4F04D1400028BF6D
:100E080040F00040704712F100723CBF00F500004E
:100E1800704700F0004343F0FE4040F40000704784
:100E28007FEA226216BF08467FEA23630146420230
:100E380006BF5FEA412390EA010F40F48000704743
:100E48004FF0000304E000BF10F0004348BF4042E9
:100E58005FEA000C08BF704743F0964301464FF025
:100E680000001CE050EA010208BF70474FF0000381
:100E78000AE000BF50EA010208BF704711F00043C2
:100E880002D5404261EB41015FEA010C02BF844692
:100E98000146002043F0B64308BFA3F18053A3F5F1
:100EA8000003BCFA8CF2083AA3EBC25310DB01FA38
:100EB80002FC634400FA02FCC2F12002BCF1004FBC
:100EC80020FA02F243EB020008BF20F0010070474D
:100ED80002F1200201FA02FCC2F1200250EA4C00A1
:100EE80021FA02F243EB020008BF20EADC707047E7
:100EF8004FF0FF0C1CEAD0521EBF1CEAD15392EAF5
:100F08000C0F93EA0C0F6FD01A4480EA010C4002D0
:100F180018BF5FEA41211ED04FF0006343EA50102A
:100F280043EA5111A0FB01310CF00040B1F5000F6C
:100F38003EBF490041EAD3715B0040EA010062F11B
:100F48007F02FD2A1DD8B3F1004F40EBC25008BF05
:100F580020F00100704790F0000F0CF0004C08BF23
:100F680049024CEA502040EA51207F3AC2BFD2F1F0
:100F7800FF0340EAC250704740F400004FF00003FE
:100F8800013A5DDC12F1190FDCBF00F00040704738
:100F9800C2F10002410021FA02F1C2F1200200FA76
:100FA80002FC5FEA310040F1000053EA4C0308BF3D
:100FB80020EADC70704792F0000F00F0004C02BF8E
:100FC800400010F4000F013AF9D040EA0C0093F009
:100FD800000F01F0004C02BF490011F4000F013B63
:100FE800F9D041EA0C018FE70CEAD15392EA0C0FD1
:100FF80018BF93EA0C0F0AD030F0004C18BF31F03C
:10100800004CD8D180EA010000F00040704790F011
:10101800000F17BF90F0004F084691F0000F91F0B5
:10102800004F14D092EA0C0F01D142020FD193EA7B
:101038000C0F03D14B0218BF084608D180EA010003
:1010480000F0004040F0FE4040F40000704740F0DF
:10105800FE4040F4400070474FF0FF0C1CEAD052AD
:101068001EBF1CEAD15392EA0C0F93EA0C0F69D009
:10107800A2EB030280EA010C49024FEA402037D074
:101088004FF0805343EA111143EA10130CF000406B
:101098008B4238BF5B0042F17D024FF4000C8B425B
:1010A80024BF5B1A40EA0C00B3EB510F24BFA3EB3B
:1010B800510340EA5C00B3EB910F24BFA3EB91030B
:1010C80040EA9C00B3EBD10F24BFA3EBD10340EA65
:1010D800DC001B0118BF5FEA1C1CE0D1FD2A3FF6AB
:1010E80050AF8B4240EBC25008BF20F00100704760
:1010F8000CF0004C4CEA50207F32C2BFD2F1FF0303
:1011080040EAC250704740F400004FF00003013A33
:1011180037E792F0000F00F0004C02BF400010F4D7
:10112800000F013AF9D040EA0C0093F0000F01F0EB
:10113800004C02BF490011F4000F013BF9D041EA0D
:101148000C0195E70CEAD15392EA0C0F08D1420240
:101158007FF47DAF93EA0C0F7FF470AF084676E713
:1011680093EA0C0F04D14B023FF44CAF08466EE7EC
:1011780030F0004C18BF31F0004CCAD130F00042BA
:101188007FF45CAF31F000437FF43CAF5FE700BF12
:101198004FF0FF3C06E000BF4FF0010C02E000BF3B
:1011A8004FF0010C4DF804CD4FEA40024FEA4103DD
:1011B8007FEA226C18BF7FEA236C11D001B052EA93
:1011C800530C18BF90EA010F58BFB2EB030088BF59
:1011D800C81738BF6FEAE17018BF40F001007047C8
:1011E8007FEA226C02D15FEA402C05D17FEA236CAA
:1011F800E4D15FEA412CE1D05DF8040B704700BFF1
:10120800844608466146FFE70FB5FFF7C9FF002887
:1012180048BF10F1000F0FBD4DF808EDFFF7F4FFC0
:101228000CBF012000205DF808FB00BF4DF808ED59
:10123800FFF7EAFF34BF012000205DF808FB00BF7C
:101248004DF808EDFFF7E0FF94BF012000205DF89E
:1012580008FB00BF4DF808EDFFF7D2FF94BF01204F
:1012680000205DF808FB00BF4DF808EDFFF7C8FF48
:1012780034BF012000205DF808FB00BF42000ED2F9
:10128800B2F1FE4F0BD34FF09E03B3EB126209D4B9
:101298004FEA002343F0004323FA02F070474FF06F
:1012A8000000704712F1610F01D1420202D14FF0E4
:1012B800FF3070474FF00000704700BF53B94AB97C
:1012C800002908BF00281CBF4FF0FF314FF0FF3046
:1012D80000F076B9ADF1080C6DE904CE00F006F81F
:1012E800DDF804E0DDE9022304B070472DE9F0479A
:1012F800089E0D4604468846002B4DD18A429446E6
:1013080068D9B2FA82F252B101FA02F3C2F12001AD
:1013180020FA01F10CFA02FC41EA030894404FEA72
:101328001C41B8FBF1F71FFA8CFE01FB178807FB7D
:101338000EF0230C43EA084398420AD91CEB030336
:1013480007F1FF3580F01E81984240F21B81023F71
:1013580063441B1AB3FBF1F001FB103300FB0EFED4
:10136800A4B244EA0344A6450AD91CEB040400F1DC
:10137800FF3380F00981A64540F2068164440238B3
:101388000021A4EB0E0440EA07401EB10023D4401C
:10139800C6E90043BDE8F0878B4208D9002E00F06B
:1013A800EE800021C6E900050846BDE8F087B3FADB
:1013B80083F100294AD1AB4202D3824200F2FC8079
:1013C800841A65EB030301209846002EE2D0C6E993
:1013D8000048DFE702B9FFDEB2FA82F2002A40F0E5
:1013E8009180A1EB0C0001214FEA1C471FFA8CFEEB
:1013F800B0FBF7F307FB1300250C45EA00450EFB8D
:1014080003F0A84208D91CEB050503F1FF3802D206
:10141800A84200F2CE8043462D1AB5FBF7F007FB31
:1014280010550EFB00FEA4B244EA0544A64508D9AF
:101438001CEB040400F1FF3502D2A64500F2B68089
:101448002846A4EB0E0440EA03409EE7C1F12007BA
:101458008B4022FA07FC4CEA030C25FA07FA4FEAFC
:101468001C49BAFBF9F820FA07F309FB18AA8D40C2
:101478001FFA8CFE1D4300FA01F308FB0EF02C0C3A
:1014880044EA0A44A04202FA01F20BD91CEB040414
:1014980008F1FF3A80F08880A04240F28580A8F1E8
:1014A80002086444241AB4FBF9F009FB104400FB59
:1014B8000EFEADB245EA0444A64508D91CEB040467
:1014C80000F1FF356CD2A6456AD90238644440EA77
:1014D8000840A0FB0295A4EB0E04AC42C846AE46F9
:1014E80056D353D0002E69D0B3EB080264EB0E0438
:1014F80022FA01F304FA07F71F43CC40C6E9007447
:10150800002147E70CFA02FCC2F1200125FA01F399
:101518004FEA1C4720FA01F195400D43B3FBF7F160
:1015280007FB11331FFA8CFE280C40EA034001FB2D
:101538000EF3834204FA02F408D91CEB000001F10F
:10154800FF382FD283422DD902396044C01AB0FB2C
:10155800F7F307FB1300ADB245EA004503FB0EF0B5
:10156800A84208D91CEB050503F1FF3816D2A8429A
:1015780014D9023B6544281A43EA014138E7314649
:10158800304607E72F46E4E61846F9E64B45A9D268
:10159800B9EB020865EB0C0E0138A3E74346EAE70E
:1015A800284694E74146D1E7D0467BE764440238B1
:1015B80047E7023B65442FE7084606E73146E9E678
:1015C800704700BFF8B504464069FFF787FB05463A
:1015D80001462068FFF784FB064620602946A0687C
:1015E800FFF786FC0746E1683046FFF781FC0146B5
:1015F8003846FFF775FB0646276961682846FFF7F6
:101608006DFB01463846FFF773FC01463046FFF78D
:1016180067FB064665600749FFF71CFE30B90649B7
:101628003046FFF70DFE18B93046F8BD014EFBE70E
:10163800014EF9E700007A4400007AC4024B1860B2
:10164800024B1960704700BFBC2F0020C02F00203C
:101658002DE9F84305460E4601F09EFA1F49FFF7AB
:10166800FBFC1F49FFF744FC04463046FEF7B2FF77
:1016780006460F4629462046FFF730FBFEF7AAFF2D
:10168800804689460AF004F802460B463046394639
:10169800FEF7F8FFFFF7CEFA0546404649460AF03E
:1016A80049F802460B4630463946FEF7EBFFFFF78E
:1016B800C1FA064601462846FFF712FB0446094BC5
:1016C800586131462846FFF709FB074B5861074B1D
:1016D8005861074B5C61BDE8F88300BF00003443E4
:1016E800DA0F4940507C0020687C0020807C002074
:1016F800987C00200000000038B50268BA4B1B68CF
:101708009A4200D038BDB94B1968B94B1868FFF731
:101718009FFFB84A136801331360B74A82FB03126C
:10172800D118DA17C2EBE102C2EB0212934200F0C1
:101738001F81B24B1B68586AB0F5004F01DDA0F558
:10174800803000225A62FEF733FF0022AC4BFEF7CE
:1017580099FFA3A3D3E90023FEF794FFFFF76AFAE2
:101768000546A84C6168FFF7BBFA6060A14B1C688E
:10177800A14B83FB04231A19E317C3EBE203C3EB62
:1017880003139C4200F0FE8029469F48FFF71AFF8A
:1017980004460021FFF74AFD002840F001819B4DD7
:1017A80000224FF48061284602F0E0FE01224FF447
:1017B8000061284602F0DAFE954B1D682046FFF7C7
:1017C8005DFD6863934B1B68586AB0F5004F01DDF7
:1017D800A0F5803000225A62FEF7EAFE0022884B0C
:1017E800FEF750FF7EA3D3E90023FEF74BFFFFF778
:1017F80021FA0546834CA168FFF772FAA0607D4B79
:101808001C687D4B83FB04231A19E317C3EBE2031F
:10181800C3EB03139C4200F0D38029467E48FFF7B0
:10182800D1FE04460021FFF701FD002840F00481A5
:10183800764D00221021284602F098FE0122202130
:10184800284602F093FE724B1D682046FFF716FDEE
:10185800A863724B1B68586AB0F5004F01DDA0F50C
:10186800803000225A62FEF7A3FE0022644BFEF786
:1018780009FF5BA3D3E90023FEF704FFFFF7DAF9BA
:101888000546604CE168FFF72BFAE060594B1C688D
:10189800594B83FB04231A19E317C3EBE203C3EB89
:1018A80003139C4200F0D68029465D48FFF78AFE64
:1018B80004460021FFF7BAFC002840F0D980594DB2
:1018C80000221021284602F051FE0122202128463C
:1018D80002F04CFE4E4B1D682046FFF7CFFCE86334
:1018E800514B1B68586AB0F5004F01DDA0F58030F8
:1018F80000225A62FEF75CFE0022414BFEF7C2FE50
:1019080037A3D3E90023FEF7BDFEFFF793F9054699
:101918003C4C2169FFF7E4F92061364B1C68364BD3
:1019280083FB04231A19E317C3EBE203C3EB031386
:101938009C4200F0AB8029463C48FFF743FE044632
:101948000021FFF773FC002840F0AE802F4D0022E5
:101958000421284602F00AFE01220821284602F046
:1019680005FE2B4B1D682046FFF788FC2864C9E656
:10197800254B5869FEF72EFE02460B462C4803F00D
:1019880055FAD6E62B49FFF767FBFEF723FE02461A
:101998000B46274803F04AFA1A4B00225A60F3E62E
:1019A8001A4D01224FF48061284602F0DFFD002223
:1019B8004FF40061284602F0D9FD04F10044FBE62B
:1019C8001C49FFF749FBFEF705FE02460B4618487F
:1019D80003F02CFA0B4B00229A601EE7AFF300804D
:1019E80000000040FB210940C47C0020C02F0020DB
:1019F800BC2F0020C46F0020898888880C7D0020B7
:101A080000001A40B07C0020507C002000100140EB
:101A18002C7E0020547D0020687C00209C7D0020C6
:101A2800807C0020000C0140E47D0020987C002090
:101A3800B8D1000800007041224D0122102128462B
:101A480002F094FD00222021284602F08FFD04F1C7
:101A58000044F8E61C49FFF7FFFAFEF7BBFD024613
:101A68000B461A4803F0E2F9194B0022DA601BE72B
:101A7800184D01221021284602F078FD002220216D
:101A8800284602F073FD04F1004423E70E49FFF7EE
:101A9800E3FAFEF79FFD02460B460F4803F0C6F92E
:101AA8000B4B00221A6146E7064D01220421284605
:101AB80002F05CFD00220821284602F057FD04F1DF
:101AC80000444EE70010014000007041B8D1000802
:101AD800B07C0020000C0140C0D10008531100EB7D
:101AE800411050F8230002F01F02D04000F001001E
:101AF80070474FEA621C00EB411102F01F020123FC
:101B080003FA02F251F82C30134341F82C30704795
:101B18008842B8BF084670478842A8BF0846704741
:101B28002DE9F04F87B005900491BDF91050BDF92B
:101B380014100291A5EB010ABDF91230BDF9160087
:101B48000390A3EB000B4D1B002DB8BF6D42C31AC9
:101B5800002BB8BF5B421D440024A14600E00134BD
:101B6800AC4241DA0AFB04F0FEF722FD06460F46B6
:101B78002846FEF71DFDCDE9000102460B4630461A
:101B88003946FEF7A9FE06460F460298FEF710FDF5
:101B980032463B46FEF7C0FBFFF724F880460BFBB6
:101BA80004F0FEF705FDDDE90023FEF795FE064685
:101BB8000F460398FEF7FCFC32463B46FEF7ACFBAB
:101BC800FFF710F80646024641462D48FFF786FF04
:101BD800002852D1324641462A48FFF77FFF0028A5
:101BE800BDD009F10109BAE70AFB0AF80BFB0BFBA8
:101BF80008EB0B00FEF7DCFC09F0F6FD04460D4689
:101C08004846FEF7D5FC06460F46BAF1000F1DD12F
:101C180000221D4B30463946FEF734FD00221B4B8F
:101C2800FEF75AFE00221A4BFEF72CFD194BD3E99A
:101C38000023FEF727FD02460B4620462946FEF7FD
:101C48006BFBFEF7CFFF07B0BDE8F08F5846FEF7F5
:101C5800AFFC82468B464046FEF7AAFC02460B467E
:101C680050465946FEF738FE0022074BFEF754FB54
:101C780009F0BAFD02460B46CCE74FF03F30E2E7E9
:101C8800C42F0020C44F00200000F03F00003E4059
:101C9800000059403000002038B5002511E02D4BD8
:101CA80053F8241053F82500FFF73AFF05EB4503D6
:101CB80004EB8303284A42F8230001340B2CEEDDA1
:101CC80001350B2D01DC0024F8E7002307E034225E
:101CD80003FB02F220494FF03F30885001330B2BB1
:101CE800F5DD002131E001320B2A28DC9942FAD0D7
:101CF800194C03EB430002EB800054F8205003EB2F
:101D0800430001EB800054F8200001EB410C02EB8A
:101D18008C0C54F82C4020448542E4DD03EB43044A
:101D280002EB84040C4D45F824000C4D03EB4300F2
:101D380001EB800055F8200045F82400D3E7013373
:101D48000B2B01DC0022CFE701310B2901DC00233A
:101D5800F6E738BD00000020CC6F0020407200205C
:101D68002DE9F0478A4691461F46DDF82080B8F1F4
:101D7800010F06D002260021801BFFF7C9FE054689
:101D880010E00526F7E708F1FF30224629460C4BFC
:101D980003EB4030FFF7ADFE013406EB070CA4451A
:101DA800F1DA013506EB0903AB4206DB0021AAEBA9
:101DB8000600FFF7ADFE0446EFE7BDE8F08700BF79
:101DC800C42F002082B0ADF80000ADF80210009BCF
:101DD80001930020BDF8043063F30F00BDF806300E
:101DE80063F31F4002B0704782B001900091BDF9C3
:101DF8000400BDF90030C01ABDF90630BDF9022053
:101E08009B1A03FB03F300FB00304028CCBF0020E3
:101E1800012002B0704700002DE9F047ACB0B54B87
:101E28001C6884B301F0CEF82190B34B1968FFF712
:101E3800DBFF88B1B14B1B68002B0DDB03EB830183
:101E4800AF4A02EB810200211161022B40F2B380FC
:101E5800AA4B4FF0FF321A601CA801F0FDF8A94BFD
:101E68001C68002C00F0CA80BDF97C20013C04EB02
:101E78008404A34B03EB8404B4F90C309A4200F0B9
:101E8800CD800024BAE001221A604FF4804200217C
:101E98009D4803F01BFC10E0E1B20FA801F00CF91B
:101EA80002230093BDF94230BDF94020BDF93E1030
:101EB800BDF93C00FFF754FF0134042CECDD01248C
:101EC800009428236B2226210846FFF749FF009437
:101ED8002823D82226219320FFF742FF00946B2362
:101EE800282226210846FFF73BFF0094D823282202
:101EF80093212620FFF734FF0094D8236B22D621A4
:101F08002620FFF72DFF0094D8231A46D6219320C8
:101F1800FFF726FF00946B23D8222621D620FFF74F
:101F28001FFF0094D8231A469321D620FFF718FFE5
:101F3800744F3C68724E04EB84054FEA850806EB43
:101F480085057E212720FFF73DFF686046F80800D9
:101F5800DFF8B891C5F810904FF06408C5F808800C
:101F680001343C6004EB84054FEA850A06EB8505DD
:101F78007E21D720FFF726FF686046F80A00C5F8DB
:101F88001090C5F8088001343C6004EB84054FEAE2
:101F9800850A06EB850527217E20FFF713FF686079
:101FA80046F80A00C5F81090C5F8088001343C606E
:101FB800FFF772FE36E701F0A7F849E7DFF844813A
:101FC800D8F80050524F57F824101C98FFF7A8FD76
:101FD800504E05EB450504EB850546F83500D8F865
:101FE800005057F824101D98FFF79AFD05EB45059A
:101FF80004EB850506EBC505686001340B2CDDDDB7
:10200800404B1C68621C1A6004EB84033C4C04EBD4
:1020180083041CAD0FCD0FC42B68236000F0ECFFC8
:10202800054600283BD1354B1B68B3F1FF3F5FD015
:10203800394B19682198FFF7D7FE00283BD0374A5B
:102048001168374B53F821301360B3F1FF3F00F0AC
:10205800CB802F4A52F823202F4B1A602BE00133F4
:10206800284A12689A420FDD03EB8302244901EBE8
:102078008202B2F90C209042F1D103EB830201EB0A
:10208800820200211161EAE70134AC4209DAE1B2C7
:1020980022A800F0B7FFBDF994000023E0E7002470
:1020A800F3E7002127A800F0ADFF289B1B93134BF3
:1020B8006FF001021A60BDF96C200F4BB3F90030C4
:1020C8009A4200F096800C4B1B9A1A600024ADE0EF
:1020D8000F4B53F824102198FFF722FD2CAB03EB8C
:1020E800840343F8740C01340B2CF1DD2E4633E0E5
:1020F8000446F9E73C720020440000203800002024
:1021080080740020C86F0020C42F00200000C8423F
:10211800000000203C0A00203C0000204000002075
:102128000C7200202CAB03EB860353F8741C06EBEF
:10213800460304EB8303804A52F823302CAA02EBAF
:102148008407194457F8740CFFF7E6FC47F8740C39
:1021580001340B2CE6DD01360B2E01DC2C46F8E7AA
:102168002E464FF03F3729E02CAB03EB840353F89E
:10217800741C06EB460304EB8303704A52F83330B1
:102188001944FFF7C9FC01340B2CEDDD874214DD3F
:102198006B4A06EB860102EB810032F92130B0F977
:1021A800020003EB430300EB8303634850F82370FA
:1021B80052F821300393634B1E600136624B1B6853
:1021C800B3420EDD06EB86035D4A02EB8303002172
:1021D8001869FFF749F80028EFD02C464FF03F3038
:1021E800D2E7039B1B9366E7584B1A68584B1A6053
:1021F80061E7BDF96E20554BB3F902309A427FF47E
:1022080062AF51E0534E56F82410504B1868FFF750
:1022180087FC2CAB03EB840545F8A40C56F8241076
:102228002198FFF77DFC45F8740C01340B2CE9DD8F
:1022380000214FF0FF354FF03F3422E001320B2AE6
:102248001EDC2CAB03EB820353F8A43C2CA800EB58
:10225800810050F8740C034401EB410002EB80004C
:10226800354E56F820000344A342E7DA3A480160A5
:10227800384850F821403648046015461C46DDE7CA
:1022880001310B2901DC0022D9E7304B196821986C
:10229800FFF746FCA04233DA2C4B1A682C4B1A6025
:1022A8002D4B4FF0FF321A6000F08CFE2190BDF9E3
:1022B8008430274AB2F90000834205D1BDF986105F
:1022C800B2F90220914231D0214AB2F90260BDF937
:1022D8008620B61AC01AFEF76BF904460D4630463A
:1022E800FEF766F922462B4609F07CFAFEF7A2FCB7
:1022F80000F100401949FFF7A1F92CB0BDE8F087BB
:10230800174B4FF0FF3243F82520134B1B680AE0A8
:1023180003EB430205EB8202124951F822201049CF
:1023280041F8232013469D42F2D1BDE70020014623
:10233800FFF784F9E1E700BFCC6F00203C0A0020DA
:102348008074002038000020C86F0020440000205E
:102358003C00002000000020400000200000F04168
:102368000C7200204072002072B6FEE700B591B0F2
:102378002822002106A803F0A9F90023019302935B
:10238800039304930593012206924FF48033079335
:102398000A9202220D920E934FF4E0130F9306A8AF
:1023A80001F0A8FC80B90F230193022102910023B8
:1023B80003934FF480620492059301A801F0DAFEBA
:1023C80020B911B05DF804FBFFF7CEFFFFF7CCFF93
:1023D80010B501F055FCFFF7C9FF00F08FF802F0C7
:1023E80021FC00F0E5F800F01BF900F04BF900F0D3
:1023F8007BF900F0ABF900F0DDFA02F04FFC02F0D7
:1024080033FC2F4800F066FB2E4800F0A3FF2E4C4B
:102418000021204601F0C4FA0421204601F0C0FA48
:102428000821204601F0BCFA0C21204601F0B8FA38
:102438003C21264801F02EFB3C21254801F02AFBCF
:102448003C21244801F026FB3C21234801F022FBD3
:102458002248234981604FF07E52C260214B0361BC
:1024680021488160C260036120488160C2600361C5
:102478001F488160C26003611E4800F009FD4FF4E7
:10248800E13000F033FB00F04FFB00F05BFB00F0A5
:1024980067FB00F073FB184B1B78002BFBD000F098
:1024A80025FE00F01DFD00F085FD0028F3D000F0AA
:1024B800FDFD0028EFD00128EDD1FFF7ADFCEAE7DC
:1024C80014810020C47C00202C7E00200C7D00207C
:1024D800547D00209C7D0020E47D0020507C00205D
:1024E8003333333F00002041687C0020807C00208B
:1024F800987C002058810020BA7F00202DE9F04107
:1025080088B000240494059406940794254B9A698E
:1025180042F020029A619A6902F020020092009A21
:102528009A6942F010029A619A6902F010020192C7
:10253800019A9A6942F004029A619A6902F00402C7
:102548000292029A9A6942F008029A619B6903F022
:1025580008030393039BDFF85080224640F63C4172
:10256800404602F003F8114D22463021284601F07A
:10257800FDFF40F63C430493012705970694022685
:10258800079604A9404601F0D1FE3023049305972D
:102598000694079604A9284601F0C8FE08B0BDE8CD
:1025A800F08100BF0010024000100140000C014003
:1025B80000B587B000230293039304930593009317
:1025C80001931548154A026047224260836040F231
:1025D800E732C26003614361836101F005F890B995
:1025E8004FF48053029302A90B4801F05DF968B9D2
:1025F8000023009301936946074801F0B1FA40B9F6
:1026080007B05DF804FBFFF7AFFEE9E7FFF7ACFEA4
:10261800EEE7FFF7A9FEF3E7C47C0020002C014099
:1026280000B58DB02422002103A803F04FF8002341
:102638000193029312484FF0804202604360836026
:102648004FF6FF72C2600361836103230393012382
:102658000593099303A901F01FF850B900230193CA
:10266800029301A9064801F07BFA28B90DB05DF87C
:1026780004FBFFF779FEF1E7FFF776FEF6E700BF08
:102688000C7D002000B58DB02422002103A803F0A2
:102698001DF80023019302931148124A0260436017
:1026A80083604FF6FF72C260036183610323039363
:1026B80001230593099303A900F0EEFF50B9002305
:1026C8000193029301A9064801F04AFA28B90DB00E
:1026D8005DF804FBFFF748FEF1E7FFF745FEF6E774
:1026E800547D00200004004000B58DB02422002154
:1026F80003A802F0EBFF0023019302931148124A4A
:102708000260436083604FF6FF72C26003618361B9
:102718000323039301230593099303A900F0BCFF46
:1027280050B900230193029301A9064801F018FA51
:1027380028B90DB05DF804FBFFF716FEF1E7FFF7C7
:1027480013FEF6E79C7D00200008004000B58DB020
:102758002422002103A802F0B9FF00230193029369
:102768001148124A0260436083604FF6FF72C260EC
:10277800036183610323039301230593099303A949
:1027880000F08AFF50B900230193029301A906487B
:1027980001F0E6F928B90DB05DF804FBFFF7E4FD98
:1027A800F1E7FFF7E1FDF6E7E47D0020000C0040CB
:1027B80000B583B00368134A934205D0124A934286
:1027C80015D003B05DF804FB104B9A6942F400621F
:1027D8009A619B6903F400630093009B00221146F1
:1027E800192002F0C3F9192002F0F8F9E9E7074BBC
:1027F8009A6942F400529A619B6903F40053019369
:10280800019BDEE7002C014000340140001002402B
:1028180000B58FB000230A930B930C930D930368B4
:10282800B3F1804F0BD0484A93423FD0474A934276
:1028380056D0474A93426DD00FB05DF804FB03F5BC
:102848000433DA6942F00102DA61DA6902F001025E
:102858000192019A9A6942F004029A619A6902F017
:1028680004020292029A9A6942F008029A619B69EC
:1028780003F008030393039B4FF400430A930AA948
:10288800344801F053FD08230A9300230B930C935B
:102898000AA9314801F04AFD304A536823F44073CD
:1028A80043F0E06343F480735360C5E72C4BDA6967
:1028B80042F00202DA61DA6902F002020492049A32
:1028C8009A6942F004029A619B6903F00403059334
:1028D800059BC0230A930AA91E4801F027FDABE710
:1028E8001F4BDA6942F00402DA61DA6902F0040285
:1028F8000692069A9A6942F008029A619B6903F067
:1029080008030793079BC0230A930AA9124801F0FA
:102918000DFD91E7124BDA6942F00802DA61DA69D3
:1029280002F008020892089A9A6942F004029A6131
:102938009B6903F004030993099B03230A930AA9DB
:10294800044801F0F3FC77E7000400400008004069
:10295800000C004000080140000C0140000001404C
:102968000010024000B587B000230293039304933C
:10297800059302680D4B9A4202D007B05DF804FB3C
:1029880003F55C439A6942F010029A619B6903F06F
:1029980010030193019B4FF4707302930223039376
:1029A800059302A9024801F0C1FCE6E700340140A2
:1029B8000010014010B596B000241294139414949A
:1029C80015941094119409940A940B940C940D94F2
:1029D8000E940F942022214601A802F077FE3B486E
:1029E8003B4B036047234360846040F2E733C36096
:1029F80004614461846100F0F7FD00284BD14FF475
:102A08008053129312A9314800F04EFF002845D197
:102A18002E4800F015FE002843D10023109311938F
:102A280010A92A4801F09CF800283DD16023099399
:102A380000220A920B920C920D920E920F9209A903
:102A4800224800F0BDFE002831D1042209A91F4800
:102A580000F0B6FE70BB082209A91C4800F0B0FEC1
:102A680058BB0C2209A9194800F0AAFE40BB002354
:102A7800019302930393049305934FF40052069233
:102A8800089301A9114801F0A9F8E0B90F48FFF728
:102A980069FF16B010BDFFF767FCB0E7FFF764FCED
:102AA800B6E7FFF761FCB8E7FFF75EFCBEE7FFF7A4
:102AB8005BFCCAE7FFF758FCCDE7FFF755FCD0E70A
:102AC800FFF752FCD3E7FFF74FFCDFE72C7E00202F
:102AD8000034014008B5034B18600B22024902F08C
:102AE8005FFD08BDB87E0020AC7E002008B5B0F5BB
:102AF800E13F03D0B0F5165F09D008BD4FF0FF33B2
:102B0800032207490748006802F0B7FAF5E74FF0D3
:102B1800FF33032202490348006802F0AEFAECE7EB
:102B280050000020B87E002008B54FF0FF33032284
:102B380002490348006802F0A0FA08BD54000020CA
:102B4800B87E002008B54FF0FF330322024903483E
:102B5800006802F092FA08BD4C000020B87E002000
:102B680008B54FF0FF33032202490348006802F01A
:102B780084FA08BD48000020B87E002008B54FF050
:102B8800FF33032202490348006802F076FA08BDC1
:102B980058000020B87E0020014B9868704700BF9D
:102BA800807E002038B5164CE078A37843EA0020F0
:102BB800FEF74AF94FF06051FEF79AF91149FEF70E
:102BC80097F9114D28606079237943EA0020FEF7D0
:102BD8003BF94FF06051FEF78BF90A49FEF788F987
:102BE8006860E079A37943EA0020FEF72DF94FF0F9
:102BF8006051FEF77DF90349FEF77AF9A86038BD00
:102C0800A07E002000003443807E002000000000E9
:102C180038B5274CE078A37843EA0020FEF714F98A
:102C28004FF06051FEF764F94FF08341FEF760F909
:102C3800FDF7D0FC1CA3D3E90023FDF723FDFDF726
:102C4800F9FF1C4D28606079237943EA0020FEF7DC
:102C5800FBF84FF06051FEF74BF94FF08341FEF758
:102C680047F9FDF7B7FC10A3D3E90023FDF70AFDE8
:102C7800FDF7E0FF6860E079A37943EA0020FEF7FA
:102C8800E3F84FF06051FEF733F94FF08341FEF758
:102C98002FF9FDF79FFC04A3D3E90023FDF7F2FC0D
:102CA800FDF7C8FFA86038BD9A999999999923406A
:102CB800A07E0020747E002038B5164CE078A378FA
:102CC80043EA0020FEF7C0F84FF06051FEF710F914
:102CD8001149FEF70DF9114D28606079237943EA0F
:102CE8000020FEF7B1F84FF06051FEF701F90A49EC
:102CF800FEF7FEF86860E079A37943EA0020FEF762
:102D0800A3F84FF06051FEF7F3F80349FEF7F0F827
:102D1800A86038BDA07E00200000FA44907E002004
:102D280008B50D4B5A7A187A40EA02200B4B83FB00
:102D38000030C011FDF73CFC05A3D3E90023FDF7E3
:102D4800EBFAFDF777FF064B186008BDAFF300807C
:102D5800A4703D0AD7434240A07E002061606060B5
:102D68008C7E002008B50A4B5B78DBB2522B09D069
:102D7800532B0AD0512B02D0FFF7D2FF08BDFFF723
:102D880047FFF9E7FFF798FFF6E7FFF70BFFF3E7D1
:102D9800A07E002010B5002410E00A2B1AD01D498F
:102DA8000A5D1D4890F800C062440270581C1B4A16
:102DB80010700A5DD2B21A49CA5401340A2C21DCB7
:102DC800164B1B78002BE8D1124A125DD2B2552A55
:102DD800E3D0F2E70F4A125DD2B20F4909788A426E
:102DE80005D000230D4A13700B4A1370E5E7591CF0
:102DF8000A4A1170074A125DD2B20949CA54FFF74C
:102E0800B1FFEEE70B220349064B186802F0C8FB36
:102E180010BD00BFAC7E0020BC7E00209C7E002040
:102E2800A07E0020B87E002084460023184603E0D8
:102E38001CF80320504001338B42F9DB70470068CF
:102E48007047000008B5084B1B68834200D008BDD6
:102E5800002283F83C2005490A70C8220449184614
:102E680002F0BAFBF3E700BF84800020BA7F00209D
:102E7800BC7F0020044B1B68834200D07047034B83
:102E880001221A70FAE700BF84800020BA7F002070
:102E980070B504460D4DC82632460021284602F07A
:102EA80015FC642200210A4802F010FC9622002139
:102EB800084802F00BFC084B1C60084B00221A70F3
:102EC80032462946204602F087FB70BDBC7F0020B1
:102ED800C07E0020247F002084800020BA7F00204C
:102EE8002DE9F041002411E0642200212C4802F071
:102EF800EDFB002306E008EB03022A49895C284A17
:102F0800D15401339E42F6DC0134A4B2C72C34D824
:102F18002546244B1B5D552BF6D1631C214AD35CF7
:102F2800AA2BF1D1E31CD65EB3B2962BECD8A31929
:102F3800C12B22DC04F106081746314602EB0800D3
:102F4800FFF772FF631DFB5C8342DDD102357B5DB9
:102F5800012BC9D0052BD7D196220021124802F0A7
:102F6800B5FB002306E008EB03020E49895C0E4A14
:102F7800D15401339E42F6DCC6E70A4CC8252A46DE
:102F88000021204602F0A2FB084B00221A702A46B4
:102F98002146074B186802F01FFBBDE8F08100BF0F
:102FA800C07E0020BC7F0020247F0020BA7F002044
:102FB80084800020024B187800B10120704700BFC0
:102FC800247F002082B00B4BB3F90920ADF8002014
:102FD800B3F90B30ADF80230009B01930020BDF827
:102FE800043063F30F00BDF8063063F31F4002B0EE
:102FF800704700BF247F0020014B587C704700BFFA
:10300800247F002070B505464B1C03EBC303114E0B
:1030180036F91330038001EBC1014C0004F11403AD
:10302800F35E438004F11603F35E838004F1180312
:10303800F35EC38004F11A03F358836004F11E00A1
:103048003044FFF7FCFE28612234335FAB81284609
:1030580070BD00BF247F002070B50546124E747DF8
:10306800631C03EBC30336F91330038004EBC40479
:10307800640004F11403F35E438004F11603F35E65
:10308800838004F11803F35EC38004F11A03F35834
:10309800836004F11E003044FFF7D1FE286122341A
:1030A800335FAB81284670BD247F0020014B187820
:1030B800704700BFC07E002010B4CA0002F1020CA5
:1030C800094C34F90CC0A0F800C002F1040C34F922
:1030D8000CC0A0F802C00632A25E8280013134F929
:1030E8003120C28010BC7047C07E002008B54FF068
:1030F800FF33062202490348006801F0BEFF08BDFD
:103108005C0000208480002008B54FF0FF330622C1
:1031180002490348006801F0B0FF08BD62000020C2
:1031280084800020FEE7FEE7FEE7FEE7FEE7704743
:103138007047704708B500F0B5FD08BD08B50248EE
:1031480001F08CFB08BD00BFD080002008B5024804
:1031580001F084FB08BD00BF8C80002008B5024840
:1031680000F039F908BD00BFC47C002008B502484A
:1031780002F09CF808BD00BF1481002008B5024881
:1031880002F094F808BD00BF5881002082B00E4BB1
:103198009A6942F001029A619A6902F0010200926A
:1031A800009ADA6942F08052DA61DB6903F08053F1
:1031B8000193019B054A536823F0E06343F00073D1
:1031C800536002B0704700BF001002400000014089
:1031D80030B4036A23F001030362036A4268846916
:1031E80024F073040D682C4323F0020C8B6843EA27
:1031F8000C03104DA84203D005F50065A84205D17F
:1032080023F00803CD682B4323F00403094DA8429B
:1032180003D005F50065A84205D122F440724D6936
:103228002A438D692A43426084614A684263036283
:1032380030BC7047002C014030B4036A23F480731B
:103248000362036A4268C46924F0730C0C6844EA98
:103258000C0523F400738C6843EA0423114CA04244
:1032680003D004F50064A04206D123F40063CC68BF
:1032780043EA042323F480630A4CA04203D004F5F4
:103288000064A04207D122F440524C6942EA041279
:103298008C6942EA04124260C5614A68C2630362EB
:1032A80030BC7047002C014030B4036A23F48053CB
:1032B8000362036A4468C26922F4E6420D6842EA7E
:1032C800052223F400538D6843EA0533094DA842CB
:1032D80003D005F50065A84204D124F480444D6963
:1032E80044EA85144460C2614A680264036230BCDF
:1032F800704700BF002C014010B4036A046A24F030
:1033080001040462846924F0F00C4CEA021223F0F0
:103318000A030B438261036210BC704710B4046A4D
:1033280024F0100404628469036A24F4704C4CEAA3
:10333800023223F0A00343EA01138261036210BC46
:103348007047836823F070030B4343F007038360DF
:103358007047000090F83D30DBB2012B2FD10223DB
:1033680080F83D300268D36843F00103D3600368F6
:10337800154A934218D002F50062934214D0B3F173
:10338800804F11D0A2F5983293420DD002F5806299
:10339800934209D002F58062934205D01A6842F040
:1033A80001021A60002070479A6802F00702062A94
:1033B80007D01A6842F001021A6000207047012005
:1033C80070470020704700BF002C014070477047CD
:1033D80070477047704710B5044603681A6912F0C1
:1033E800020F11D0DA6812F0020F0DD06FF002024E
:1033F8001A610123037703689B6913F0030F70D0E8
:10340800FFF7E6FF0023237723681A6912F0040FF9
:1034180012D0DA6812F0040F0ED06FF004021A61AD
:103428000223237723689B6913F4407F5FD02046EB
:10343800FFF7CEFF0023237723681A6912F0080FDD
:1034480012D0DA6812F0080F0ED06FF008021A6175
:10345800042323772368DB6913F0030F4ED020463B
:10346800FFF7B6FF0023237723681A6912F0100FBD
:1034780012D0DA6812F0100F0ED06FF010021A6135
:10348800082323772368DB6913F4407F3DD0204667
:10349800FFF79EFF0023237723681A6912F0010FB4
:1034A80003D0DA6812F0010F36D123681A6912F0D6
:1034B800800F03D0DA6812F0800F34D123681A69BC
:1034C80012F0400F03D0DA6812F0400F32D12368AF
:1034D8001A6912F0200F03D0DA6812F0200F30D1E9
:1034E80010BDFFF774FF2046FFF773FF8AE72046F9
:1034F800FFF76DFF2046FFF76CFF9BE72046FFF7BD
:1035080066FF2046FFF765FFACE72046FFF75FFF41
:103518002046FFF75EFFBDE76FF001021A61204603
:10352800FEF7EAF8C1E76FF080021A61204600F062
:103538007FFBC3E76FF040021A612046FFF74AFF9E
:10354800C5E76FF020021A61204600F070FBC7E75C
:103558000368244A904212D002F5006290420ED0CD
:10356800B0F1804F0BD0A2F59832904207D002F507
:103578008062904203D002F58062904203D123F02A
:1035880070034A681343174A904212D002F500624A
:1035980090420ED0B0F1804F0BD0A2F598329042F5
:1035A80007D002F58062904203D002F58062904213
:1035B80003D123F44073CA68134323F080034A6994
:1035C800134303608B68C3620B688362054B9842A0
:1035D80003D003F50063984201D10B69036301230B
:1035E80043617047002C014040B310B5044690F881
:1035F8003D30F3B1022384F83D30214651F8040BE5
:10360800FFF7A6FF012384F8463084F83E3084F89B
:103618003F3084F8403084F8413084F8423084F8F0
:10362800433084F8443084F8453084F83D30002035
:1036380010BD80F83C30FFF7BBF8DBE7012070478E
:1036480040B310B5044690F83D30F3B1022384F836
:103658003D30214651F8040BFFF77AFF012384F827
:10366800463084F83E3084F83F3084F8403084F89F
:10367800413084F8423084F8433084F8443084F888
:10368800453084F83D30002010BD80F83C30FFF70D
:103698009DFEDBE701207047002857D070B50D4626
:1036A800044690F83D30002B4BD0022384F83D307F
:1036B8002268936823F4804323F00703936021462C
:1036C80051F8040BFFF744FF21688A688B690E6A7A
:1036D8002868104323F4407C2CF0030CAA68AB69DB
:1036E80042EA032343EA0C0323F47C4323F0FC035C
:1036F800EA69D5F80CC04CEA022C4CEA030C2A6A99
:1037080013032A6943EA021343EA0C0326F022064C
:103718006A686D6942EA05123243886021688B61E4
:1037280023681A62012384F8463084F83E3084F80E
:103738003F3084F8423084F8433084F83D3000202C
:1037480070BD80F83C30FFF763F8AEE701207047A2
:1037580030B4036A23F010030362036A4468826981
:1037680022F4E6420D6842EA052223F020038D6820
:1037780043EA0513114DA84203D005F50065A84298
:1037880006D123F08003CD6843EA051323F04003F4
:103798000A4DA84203D005F50065A84207D124F4D4
:1037A80040644D6944EA85048D6944EA85044460AF
:1037B80082614A688263036230BC7047002C014012
:1037C80038B590F83C30012B60D004460D460123F3
:1037D80080F83C300C2A1AD8DFE802F007191919CA
:1037E8001D1919193119191944000068FFF7F0FC5F
:1037F8002268936943F0080393612268936923F070
:10380800040393612268936929690B43936100203B
:1038180084F83C0038BD0068FFF79AFF2268936976
:1038280043F4006393612268936923F4806393618E
:1038380022689369296943EA01239361E7E70068ED
:10384800FFF7FAFC2268D36943F00803D3612268C2
:10385800D36923F00403D3612268D36929690B4330
:10386800D361D4E70068FFF71FFD2268D36943F4EA
:103878000063D3612268D36923F48063D36122682B
:10388800D369296943EA0123D361C0E70220C1E76C
:1038980010B4846824F47F4C42EA03220A4342EAC3
:1038A8000C02826010BC704790F83C30012B66D047
:1038B80010B50446012380F83C30022380F83D30DF
:1038C8000268936823F47F4323F0770393600B68BF
:1038D800602B40D022D8402B47D00BD9502B0ED18B
:1038E800CA6849680068FFF707FD50212068FFF79C
:1038F80028FD04E0202B0CD008D9302B09D0012357
:1039080084F83D30002084F83C0010BD0BB1102B2A
:10391800F5D119462068FFF714FDF0E7702B0ED09B
:10392800B3F5005FEBD1CB684A6889680068FFF798
:10393800AFFF2268936843F480439360DFE7CB6866
:103948004A6889680068FFF7A3FF2268936843F014
:1039580077039360D3E7CA6849680068FFF7DEFC1D
:1039680060212068FFF7EDFCC9E7CA68496800686C
:10397800FFF7C2FC40212068FFF7E3FCBFE7022005
:10398800704701F01F01012303FA01FC036A23EACF
:103998000C030362036A02FA01F10B4303627047E6
:1039A80010B50446084600293AD194F83E30DBB2F7
:1039B800013B18BF0123002B66D1002849D10223FF
:1039C80084F83E30012201462068FFF7DAFF2368B9
:1039D8002F4A934203D002F50062934203D15A6CF6
:1039E80042F400425A642368294A934241D002F5BE
:1039F800006293423DD0B3F1804F3AD0A2F598329D
:103A0800934236D002F58062934232D002F580624A
:103A180093422ED01A6842F001021A60002032E068
:103A2800042908D008290DD094F84130DBB2013BB5
:103A380018BF0123BFE794F83F30DBB2013B18BF42
:103A48000123B8E794F84030DBB2013B18BF0123EB
:103A5800B1E7042805D0082807D0022384F84130AC
:103A6800B0E7022384F83F30ACE7022384F8403003
:103A7800A8E79A6802F00702062A07D01A6842F0F7
:103A880001021A60002010BD0120FCE70020FAE7BF
:103A9800002C014038B5044690F83E00C0B294F8B6
:103AA8003F3094F84220D2B294F843C00D46B1B9E1
:103AB800012849D1012A48D1022384F83E3084F8EC
:103AC80042307DB3042D39D0012200212068FFF750
:103AD80058FF012204212068FFF753FF27E0DBB2DB
:103AE8005FFA8CFC042912D0012833D1012B2CD188
:103AF800012A31D1BCF1010F30D1022384F83E30C4
:103B080084F83F3084F8423084F84330D9E7012BF9
:103B18001CD1BCF1010F1BD1022384F83F3084F87B
:103B28004330CEE7012200212068FFF72AFF2268F0
:103B3800136843F001031360002006E0012204210A
:103B48002068FFF71EFFF2E7012038BD0120FCE7DF
:103B58001846FAE70120F8E71846F6E71046F4E7B2
:103B680090F83C30012B34D010B4012380F83C305D
:103B7800022380F83D3003685A689C6822F0700C74
:103B88000A6842EA0C025A600368134A934212D048
:103B980002F5006293420ED0B3F1804F0BD0A2F52C
:103BA8009832934207D002F58062934203D002F51F
:103BB8008062934204D124F080044A6814439C60D4
:103BC800012380F83D30002380F83C30184610BCB3
:103BD80070470220704700BF002C014090F83C302D
:103BE800012B22D0012380F83C30CB6823F44073AA
:103BF8008A68134323F480634A68134323F40063F9
:103C08000A68134323F480530A69134323F40053C7
:103C18004A69134323F48043CA691343026853640F
:103C2800002380F83C3018467047022070477047E0
:103C38007047000010B504460E4B18784FF47A739D
:103C4800B3FBF0F30C4A1068B0FBF3F000F0D4FFBC
:103C580068B90F2C01D901200AE0002221464FF053
:103C6800FF3000F083FF054B1C60002000E00120BE
:103C780010BD00BF68000020700000206C0000200C
:103C880008B5074A136843F010031360032000F0D7
:103C98005BFF0F20FFF7CEFFFFF778FA002008BD83
:103CA80000200240034A1168034B1B780B44136041
:103CB800704700BF8880002068000020014B18680A
:103CC800704700BF8880002082B0084B1B68084AF4
:103CD800A2FB03235B0A00FB03F3019300BF019BD4
:103CE8005A1E0192002BF9D102B0704770000020D3
:103CF800D34D6210002800F0F18170B582B00446FF
:103D0800036813F0010F2CD0994B5B6803F00C0388
:103D1800042B1DD0964B5B6803F00C03082B12D0C4
:103D28006368B3F5803F41D0002B55D103F1804340
:103D380003F504331A6822F480321A601A6822F4F0
:103D480080221A6037E08A4B5B6813F4803FE7D023
:103D5800874B1B6813F4003F03D06368002B00F007
:103D6800BF81236813F0020F75D0814B5B6813F095
:103D78000C0F5FD07E4B5B6803F00C03082B54D00C
:103D88002369002B00F08A807A4B01221A60FFF722
:103D980095FF0546764B1B6813F0020F75D1FFF7A8
:103DA8008DFF401B0228F5D903209EE1704A136855
:103DB80043F480331360636843B3FFF77FFF05461E
:103DC8006B4B1B6813F4003FCBD1FFF777FF401B09
:103DD8006428F5D9032088E1B3F5A02F09D0644BF6
:103DE8001A6822F480321A601A6822F480221A6053
:103DF800E1E703F18043A3F53C331A6842F48022DB
:103E08001A601A6842F480321A60D4E7FFF756FF46
:103E18000546574B1B6813F4003FA2D0FFF74EFF2F
:103E2800401B6428F5D903205FE1514B5B6813F40C
:103E3800803FA5D14E4B1B6813F0020F03D02369B6
:103E4800012B40F04F814A4A136823F0F803616957
:103E580043EAC1031360236813F0080F33D0A36942
:103E6800002B5CD0434B0122C3F88024FFF726FFC8
:103E780005463F4B5B6A13F0020F21D1FFF71EFF87
:103E8800401B0228F5D903202FE1394A136823F093
:103E9800F803616943EAC1031360DCE7354B00228C
:103EA8001A60FFF70BFF0546314B1B6813F0020F32
:103EB800D1D0FFF703FF401B0228F5D9032014E1F6
:103EC8000120FFF701FF236813F0040F00F096802C
:103ED800274BDB6913F0805F34D1254BDA6942F058
:103EE8008052DA61DB6903F080530193019B01255D
:103EF800214B1B6813F4807F26D0E368012B3DD04B
:103F0800002B53D103F1804303F504331A6A22F0DE
:103F180001021A621A6A22F004021A6233E0154B8F
:103F28000022C3F88024FFF7C9FE0546104B5B6AE0
:103F380013F0020FC7D0FFF7C1FE401B0228F5D9C6
:103F48000320D2E00025D3E70B4A136843F48073BB
:103F58001360FFF7B3FE0646074B1B6813F4807F18
:103F6800CBD1FFF7ABFE801B6428F5D90320BCE05A
:103F78000010024000004242007000405F4A136A8D
:103F880043F001031362E36833B3FFF797FE064675
:103F98005A4B1B6A13F0020F2FD1FFF78FFE801BBD
:103FA80041F288339842F3D903209EE0052B09D0CB
:103FB800524B1A6A22F001021A621A6A22F00402AB
:103FC8001A62E0E74D4B1A6A42F004021A621A6A52
:103FD80042F001021A62D6E7FFF770FE0646474B29
:103FE8001B6A13F0020F08D0FFF768FE801B41F22E
:103FF80088339842F3D9032077E0E5B9E369002BC9
:1040080072D03E4A526802F00C02082A56D0022B9F
:1040180017D03B4B00221A66FFF750FE0446374B79
:104028001B6813F0007F47D0FFF748FE001B0228EB
:10403800F5D9032059E0314AD36923F08053D3617D
:10404800DCE72F4B00221A66FFF738FE05462B4B9C
:104058001B6813F0007F06D0FFF730FE401B0228D4
:10406800F5D9032041E0236AB3F5803F1AD02349EC
:104078004B6823F47413226A606A024313434B604B
:104088001F4B01221A66FFF719FE04461B4B1B68DB
:1040980013F0007F0ED1FFF711FE001B0228F5D99F
:1040A800032022E0154A536823F40033A1680B4328
:1040B8005360DCE7002018E0002016E0012B16D042
:1040C8000E4B5B6803F48031226A914211D103F4EC
:1040D8007013626A93420ED1002006E001207047F7
:1040E800012002E0012000E0002002B070BD0120A4
:1040F800FBE70120F9E70120F7E700BF00100240C5
:104108000000424286B0174B0FCB0DF1180C0CE99A
:104118000F0040F20123ADF80430134B5B6803F045
:104128000C02082A02D0114806B07047C3F3834234
:1041380018326A4412F8100C13F4803F0DD00A4B61
:104148005B68C3F3404318336B4413F8143C074AC5
:1041580002FB00F0B0FBF3F0E6E7054B03FB00F0D1
:10416800E2E700BFC8D100080010024000127A0040
:1041780000093D00002800F0A08070B50D460446F7
:10418800524B1B6803F007038B420BD24F4A13684C
:1041980023F007030B431360136803F007038B42F4
:1041A80040F08D80236813F0020F17D013F0040F2E
:1041B80004D0474A536843F4E0635360236813F01C
:1041C800080F04D0424A536843F460535360404A8E
:1041D800536823F0F003A1680B435360236813F07E
:1041E800010F31D06368012B20D0022B25D0384A2B
:1041F800126812F0020F64D035494A6822F00302AF
:1042080013434B60FFF75AFD0646314B5B6803F0DA
:104218000C036268B3EB820F16D0FFF74FFD801BCB
:1042280041F288339842F0D9032045E0284A1268C1
:1042380012F4003FE0D101203EE0254A126812F056
:10424800007FD9D1012037E0204B1B6803F007031A
:10425800AB420AD91D4A136823F007032B431360A6
:10426800136803F00703AB422DD1236813F0040F42
:1042780006D0174A536823F4E063E1680B435360A0
:10428800236813F0080F07D0114A536823F46053CA
:10429800216943EAC1035360FFF734FF0C4B5B68A5
:1042A800C3F303130B4AD35CD8400B4B18600B4B7A
:1042B8001868FFF7BFFC002070BD0120704701207F
:1042C800FAE70120F8E70120F6E700BF00200240E6
:1042D80000100240DCD10008700000206C000020B3
:1042E800014B1868704700BF7000002008B5FFF741
:1042F800F7FF044B5B68C3F30223034AD35CD8403F
:1043080008BD00BF00100240ECD1000808B5FFF757
:10431800E7FF044B5B68C3F3C223034AD35CD8406E
:1043280008BD00BF00100240ECD1000870B582B093
:104338000024A446B0E0874DAA4210D007D9864D84
:10434800AA420CD005F58035AA4208D013E0A5F59D
:104358008015AA4203D005F57025AA4207D18A68BC
:10436800002A62D0012A5BD04361082403E0A5F546
:104378008015AA42F3D0BEF1FF0F58D80646BEF109
:10438800FF0F56D84FEA8C0233680F25954023EA71
:10439800050304FA02F2134333604B6813F0805F9D
:1043A80078D06E4B9A6942F001029A619B6903F0DA
:1043B80001030193019B4FEA9C02951C684B53F83B
:1043C80025600CF003039D000F23AB4026EA03068B
:1043D800644B984233D003F58063984200F098808C
:1043E80003F58063984200F0958003F58063984256
:1043F80000F0928003F58063984200F08F8003F507
:104408008063984219D006231AE0CC68B3E7CC68D9
:104418000434B0E7CC680834ADE7CC680C34AAE7BC
:1044280003610824A7E70024A5E70424A3E7061DE1
:10443800A5E7ACF108029200A6E7052300E00023F7
:10444800AB4033430232464D45F822304B6813F4F3
:10445800803F65D0444A136843EA0E0313604B68F3
:1044680013F4003F62D0404A536843EA0E03536096
:104478004B6813F4801F5FD03B4A936843EA0E03EE
:1044880093604B6813F4001F5CD0374AD36843EA43
:104498000E03D3600CF1010C0A6832FA0CF357D002
:1044A800012303FA0CF302EA030E33EA0202F1D104
:1044B8004A68122A3FF63FAF122A3FF65CAF01A5C1
:1044C80055F822F067430008134400081D4400080B
:1044D8002F4400087F4300087F4300087F430008FB
:1044E8007F4300087F4300087F4300087F4300089C
:1044F8007F4300087F4300087F4300087F4300088C
:104508007F4300087F43000817440008234400083D
:10451800012395E7022393E7032391E704238FE719
:10452800114A136823EA0E03136098E70E4A53688A
:1045380023EA0E0353609BE70B4A936823EA0E03B2
:1045480093609EE7084AD36823EA0E03D360A1E785
:1045580002B070BD000022100000311000100240AF
:104568000000014000080140000401400AB1016157
:10457800704709040161704730B40124056CAC40F0
:10458800C56B6C60046863604368102B05D00368D2
:1045980099600368DA6030BC704703689A60036802
:1045A800D960F8E700283AD010B4024600681D4BDD
:1045B800984229D81C4B03441C49A1FB03131B092F
:1045C8009B0013641A4BD363022382F821300168DD
:1045D80021F47F5121F03001536894682343D46853
:1045E8002343146923435469234394692343D469B7
:1045F80023430B43036000209063012382F821309A
:1046080082F8200010BC70470A4B03440749A1FBFD
:1046180003131B099B001364074BD363D4E70120E2
:10462800704700BF07040240F8FFFDBFCDCCCCCCDB
:1046380000000240F8FBFDBF0004024038B5044604
:1046480090F82000012831D0012084F8200094F847
:104658002100012804D0002384F82030022038BD2E
:10466800022084F821000020A0632568286820F033
:10467800010028602046FFF77FFFE36A5BB12268EC
:10468800136843F00E0313602268136843F00103B4
:1046980013600020E3E72268136823F00403136023
:1046A8002268136843F00A031360EDE70220D6E797
:1046B80090F82130022B06D004238363002380F86E
:1046C8002030012070470268136823F00E0313603E
:1046D8000268136823F001031360036CC16B0122A5
:1046E80002FA03F34B6080F82120002380F8203081
:1046F8001846704708B590F82130022B03D00423E0
:104708008363012008BD0268136823F00E03136059
:104718000268136823F00103136003684B4A93424D
:104728004ED9783A934224D01432934230D014327E
:1047380093422FD0143293422FD0143293422FD069
:10474800143293422FD0143293422FD002F5627262
:1047580093422ED0143293422DD0143293422CD04F
:104768001432934202D04FF4803203E04FF4805267
:1047780000E00122364B5A60012380F821300023E3
:1047880080F82030436B002B5ED098470020B9E7B3
:104798001022EFE74FF48072ECE74FF48052E9E71C
:1047A8004FF48032E6E74FF48012E3E74FF080726F
:1047B800E0E70122DEE71022DCE74FF48072D9E758
:1047C800244A934224D01432934225D0143293427F
:1047D80024D01432934224D01432934224D0143279
:1047E800934224D01432934224D002F56272934249
:1047F80023D01432934222D01432934221D014325F
:10480800934202D04FF4803203E04FF4805200E02C
:104818000122114B5A60AFE71022FAE74FF4807279
:10482800F7E74FF48052F4E74FF48032F1E74FF4A2
:104838008012EEE74FF08072EBE70122E9E71022E1
:10484800E7E74FF48072E4E700205BE7800002406E
:1048580000040240080002400000024038B5C36B63
:104868001A6804682568016C04238B40134200F021
:104878009B8015F0040F00F09780236813F0200F39
:1048880003D1236823F00403236003689A4A934200
:1048980046D9783A934224D01432934228D014321D
:1048A800934227D01432934227D01432934227D010
:1048B8001432934227D01432934227D002F5627201
:1048C800934226D01432934225D01432934224D0F6
:1048D8001432934202D04FF4802203E04FF4804216
:1048E80000E00422854B5A60C36A03B1984738BD7B
:1048F8004022F7E74FF48062F4E74FF48042F1E793
:104908004FF48022EEE74FF48002EBE74FF080622D
:10491800E8E70422E6E74022E4E74FF48062E1E7B3
:10492800774A934224D01432934225D014329342CA
:1049380024D01432934224D01432934224D0143217
:10494800934224D01432934224D002F562729342E7
:1049580023D01432934222D01432934221D01432FD
:10496800934202D04FF4802203E04FF4804200E0EB
:104978000422644B5A60B7E74022FAE74FF480629A
:10498800F7E74FF48042F4E74FF48022F1E74FF461
:104998008002EEE74FF08062EBE70422E9E740226D
:1049A800E7E74FF48062E4E702238B40134200F00C
:1049B800AB8015F0020F00F0A780236813F0200FDA
:1049C80006D1236823F00A032360012380F82130ED
:1049D8000368494A93424BD9783A934224D0143217
:1049E80093422DD0143293422CD0143293422CD0BF
:1049F800143293422CD0143293422CD01432934266
:104A08002CD002F5627293422BD0143293422AD0F2
:104A18001432934229D01432934202D04FF4003218
:104A280003E04FF4005200E00222344B5A600023A6
:104A380080F82030836A002B3FF459AF984756E737
:104A48002022F2E74FF40072EFE74FF40052ECE750
:104A58004FF40032E9E74FF40012E6E74FF0007236
:104A6800E3E70222E1E72022DFE74FF40072DCE708
:104A7800234A934224D01432934225D014329342CD
:104A880024D01432934224D01432934224D01432C6
:104A9800934224D01432934224D002F56272934296
:104AA80023D01432934222D01432934221D01432AC
:104AB800934202D04FF4003203E04FF4005200E07A
:104AC8000222104B5A60B2E72022FAE74FF4007234
:104AD800F7E74FF40052F4E74FF40032F1E74FF4F0
:104AE8000012EEE74FF00072EBE70222E9E720221E
:104AF800E7E74FF40072E4E7800002400004024058
:104B08000800024000000240082303FA01F11142A4
:104B18003FF4EDAE15F0080F3FF4E9AE236823F03B
:104B28000E032360026CC16B012303FA02F24A6090
:104B3800836380F82130002380F82030036B002B3A
:104B48003FF4D5AE9847D2E6074AD36823F4E0632A
:104B58001B041B0C000200F4E060034343F0BF6336
:104B680043F40033D360704700ED00E000B5194B03
:104B7800DB68C3F30223C3F1070CBCF1040F28BFA1
:104B88004FF0040C03F1040EBEF1060F18D9033BD5
:104B98004FF0FF3E0EFA0CFC21EA0C0199400EFA88
:104BA80003F322EA0303194300280BDB0901C9B206
:104BB80000F1604000F5614080F800135DF804FBE7
:104BC8000023E5E700F00F000901C9B2024B1954B0
:104BD800F4E700BF00ED00E014ED00E0002807DB7B
:104BE80000F01F02400901239340024A42F8203096
:104BF800704700BF00E100E00138B0F1807F0BD2C0
:104C08004FF0E0235861054AF02182F82310002074
:104C1800986107221A6170470120704700ED00E093
:104C28007047000000B583B00E4B5A6942F001028C
:104C38005A615B6903F001030193019B002211464D
:104C48000D20FFF793FF0D20FFF7C8FF0022114644
:104C58001020FFF78BFF1020FFF7C0FF03B05DF8AF
:104C680004FB00BF0010024008B50A480A4B036065
:104C78004FF4E133436000238360C36003610C2277
:104C880042618361C36100F0C9F900B908BDFDF74D
:104C98006BFBFBE7148100200044004008B50A487C
:104CA8000A4B03604FF4E133436000238360C36021
:104CB80003610C2242618361C36100F0AFF900B95E
:104CC80008BDFDF751FBFBE7588100200048004074
:104CD80070B588B0044600230493059306930793A0
:104CE8000368494A934204D0484A934245D008B0E1
:104CF80070BD474BDA6942F40032DA61DA6902F4CE
:104D080000320092009A9A6942F004029A619B6903
:104D180003F004030193019B0423049302230593E6
:104D2800032307933B4E04A93046FFF7FFFA0823F5
:104D3800049300250595069504A93046FFF7F6FA71
:104D48003548364B0360456085608023C360056144
:104D580045618561C561FFF725FC58B92E4BA363F2
:104D68005C62002211462620FFF700FF2620FFF78D
:104D780035FFBCE7FDF7F8FAF0E7254BDA6942F4AE
:104D88008022DA61DA6902F480220292029A9A6930
:104D980042F008029A619B6903F008030393039B9E
:104DA8004FF48063049302230593032307931C4E57
:104DB80004A93046FFF7BAFA4FF4006304930025BC
:104DC8000595069504A93046FFF7B0FA1548164B25
:104DD8000360456085608023C36005614561856126
:104DE800C561FFF7DFFB58B90E4BA3635C62002275
:104DF80011462720FFF7BAFE2720FFF7EFFE76E7D8
:104E0800FDF7B2FAF0E700BF004400400048004058
:104E180000100240000801408C8000206C00024015
:104E2800000C0140D0800020300002400FB400B5D3
:104E3800B5B036AA52F8041B339201A800F0C6FC9C
:104E480001A800F095FC4FF0FF3382B201A9044895
:104E580000F013F935B05DF804EB04B0704700BFFB
:104E68005881002008B5034B834200D008BDFDF7E8
:104E780091FFFBE7148100200268D36823F0C00388
:104E8800D360202380F83D3070470268D36823F44C
:104E98009073D3600268536923F001035361036B75
:104EA800012B05D0202380F83E3000230363704790
:104EB8000268D36823F01003D360F3E790F83D301D
:104EC800DBB2212B01D0022070478368B3F5805FE5
:104ED80017D0036A5A1C02621A7803685A60C38C96
:104EE8009BB2013B9BB2C3844BB90268D36823F0E1
:104EF8008003D3600268D36843F04003D360002086
:104F080070470369002BE4D1036A1B880268C3F366
:104F180008035360036A02330362E0E710B50446EE
:104F28000268136923F44053C1680B431361836813
:104F38000269134342691A430168CB6823F4B053EA
:104F480023F00C031343CB600268536923F44073C6
:104F580081690B4353610268134B9A4220D0FFF7D3
:104F6800C5F9024602EB820202EB820263689B00EB
:104F7800B2FBF3F20D48A0FB02314909642303FB9D
:104F880011231B013233A0FB03235B0903F0F0025A
:104F980002EB011203F00F03216813448B6010BD6C
:104FA800FFF7B4F90246DDE7003801401F85EB51F1
:104FB8002DE9F84305460F4616469946DDF8208048
:104FC8002C68246837EA04030CBF4FF0010C4FF03B
:104FD800000CB4451FD1B8F1FF3FF1D0B8F1000F74
:104FE80005D0FEF76BFEA0EB09004045E8D92A681A
:104FF800D36823F4D073D3602A68536923F001037C
:105008005361202385F83D3085F83E30002385F82C
:105018003C30032000E00020BDE8F88358B310B509
:10502800044690F83D300BB3242384F83D302268C1
:10503800D36823F40053D3602046FFF76FFF22683C
:10504800136923F4904313612268536923F02A03F8
:1050580053612268D36843F40053D360002020646E
:10506800202384F83D3084F83E3010BD80F83C3071
:10507800FFF72EFED8E7012070472DE9F04182B0F6
:105088001E4690F83D30DBB2202B54D104460D4625
:105098009046002953D0002A53D090F83C30012B79
:1050A80051D0012380F83C3000230364212380F889
:1050B8003D30FEF703FE0746A4F82480A4F82680B6
:1050C800A368B3F5805F05D04FF00008002384F88B
:1050D8003C3012E0236913B14FF00008F6E7A84608
:1050E8000025F3E738F8023B2268C3F3080353604E
:1050F800E28C92B2013A92B2E284E38C9BB273B131
:1051080000963B46002280212046FFF751FFE0B978
:10511800002DE7D015F8012B23685A60E8E70096C0
:105128003B46002240212046FFF742FF78B9202362
:1051380084F83D3000E0022002B0BDE8F081012093
:10514800FAE70120F8E70220F6E70320F4E7032056
:10515800F2E7704708B50168CA6822F04002CA60E1
:10516800202280F83D20FFF7F4FF002008BD70479B
:1051780010B5446A23685A6994F83D30DBB2212B94
:1051880010D023685A6902F0400294F83E30DBB22E
:10519800222B11D0236C43F0100323642046FDF723
:1051A80051FE10BD02F08002002AEAD00023E384F9
:1051B8002046FFF761FEE4E7002AEBD00023E385F1
:1051C8002046FFF762FEE5E708B5406A0023C3857D
:1051D800C384FDF737FE08BD90F83E30DBB2222BC2
:1051E80060D18368B3F5805F46D0826AB3F5805F8B
:1051F80004D0002B4DD10369002B4AD103685B68AA
:105208001370836A01338362C38D9BB2013B9BB2E7
:10521800C385002B48D100B583B00268D36823F05A
:105228002003D3600268D36823F48073D3600268D4
:10523800536923F001035361202380F83E30036B48
:10524800012B2CD1002303630268D36823F01003D9
:10525800D36003681A6812F0100F06D0002201927A
:105268001A6801925B680193019B818DFDF702FE2C
:10527800002003B05DF804FB0269002AB5D1826AF8
:1052880003685B68C3F308031380836A023383628D
:10529800BAE703685B6803F07F031370B1E7FFF7B1
:1052A800E1FDE5E7022070470020704730B583B084
:1052B800044602681368D068516913F00F0505D1D8
:1052C80013F0200F02D010F0200F19D12DB111F0DA
:1052D800010119D110F4907F16D1216B012975D0E5
:1052E80013F0800F03D010F0800F40F0D78013F038
:1052F800400F03D010F0400F40F0D48003B030BD11
:105308002046FFF769FFF9E713F0010F06D010F404
:10531800807F03D0226C42F00102226413F0040F54
:1053280004D019B1226C42F00202226413F0020F79
:1053380004D019B1226C42F00402226413F0080F61
:1053480007D010F0200F00D119B1226C42F00802EA
:105358002264226C002AD1D013F0200F02D010F062
:10536800200F21D123685B6903F04003226C12F0FF
:10537800080F00D123B32046FFF787FD23685A6939
:1053880012F0400F18D05A6922F040025A61A36BFC
:1053980073B1464A5A63A06BFFF7ACF90028ADD049
:1053A800A06B436B9847A9E72046FFF715FFD9E79D
:1053B8002046FDF747FDA1E72046FDF743FD9DE7A1
:1053C8002046FDF73FFD0023236497E713F0100FF5
:1053D80086D010F0100F83D0002301931368019337
:1053E80053680193019B536913F0400F32D0A16BAE
:1053F8000B685B689BB2002B80D0A08D98427FF62B
:105408007DAFE3858B69202B08D1A18DE38D9BB2FD
:10541800C91A89B22046FDF72DFD6FE7D36823F43A
:105428008073D3602268536923F0010353612268B3
:10543800536923F040035361202384F83E3000234E
:1054480023632268D36823F01003D360A06BFFF7AF
:105458002FF9DAE7A18DE38D9BB2C91A89B2E38DE2
:105468009BB2002B3FF44AAF00293FF447AFD36803
:1054780023F49073D3602268536923F001035361C6
:10548800202384F83E30002323632268D36823F066
:105498001003D3602046FDF7EDFC2FE72046FFF709
:1054A8000DFD2BE72046FFF755FE27E7D1510008F1
:1054B80008B5406A036B012B02D0FFF758FE08BD00
:1054C800818D4908FDF7D6FCF9E708B50346406A1F
:1054D8001B681B6813F0200F16D10023C3850268D0
:1054E800D36823F48073D3600268536923F00103FF
:1054F80053610268536923F040035361202380F805
:105508003E30036B012B05D0036B012B08D0FFF74E
:10551800A9FC08BD0268D36823F01003D360F3E741
:10552800818DFDF7A7FCF4E730B583B00446134638
:105538008162828500250564222280F83E20826BE4
:1055480014489062A26B1448D062A26B134810638F
:10555800A26B556320680A46011DA06BFFF76EF821
:10556800019523681A6801925A680192019A84F891
:105578003C50DA6842F48072DA602268536943F07A
:10558800010353612268536943F04003536128467D
:1055980003B030BDD3540008B9540008795100084D
:1055A80008B590F83E30DBB2202B0DD171B17AB13D
:1055B80090F83C30012B0DD0012380F83C300023BB
:1055C8000363FFF7B1FF00E0022008BD0120FCE7FC
:1055D8000120FAE70220F8E790F83E30DBB2202BF2
:1055E80021D110B582B00446F9B102B390F83C302D
:1055F800012B1FD0012380F83C300363FFF794FF91
:10560800B0B9236B012B01D0012011E000230193D5
:1056180023681A6801925A680192019ADA6842F07E
:105628001002DA6004E002207047012000E0012047
:1056380002B010BD0220FBE70C480D490D4A0023BB
:1056480002E0D458C4500433C4188C42F9D30A4A2F
:105658000A4C002301E013600432A242FBD3FFF797
:10566800DFFA00F00FF8FCF7B3FE704700000020E7
:10567800200A00204CD80008200A0020E8810020D9
:10568800FEE7000070B50D4E0D4D761BB61006D026
:10569800002455F8043B01349847A642F9D1094E35
:1056A800094D07F077FD761BB61006D0002455F893
:1056B800043B01349847A642F9D170BD40D8000890
:1056C80040D8000848D8000840D80008830730B5FB
:1056D80048D0541E002A3FD00346CAB201E0013C1C
:1056E8003AD303F8012B9D07F9D1032C2DD9CDB25C
:1056F80045EA05250F2C45EA054536D9A4F11002DF
:1057080022F00F0C03F1200EE6444FEA121C03F1BD
:10571800100242E9045542E9025510327245F8D1A7
:105728000CF1010214F00C0F03EB021204F00F0C41
:1057380013D0ACF1040323F003030433134442F8F9
:10574800045B9342FBD10CF003042CB1CAB21C4495
:1057580003F8012B9C42FBD130BD64461346002C54
:10576800F4D1F9E703461446BFE71A46A446E0E732
:1057780020F0030110F00300C0F1000051F8043BD1
:1057880000F1040C4FEACC0C6FF000021CBF22FAA7
:105798000CF213434FF0010C4CEA0C2C4CEA0C4C65
:1057A800A3EB0C0222EA030212EACC1204BF51F85E
:1057B800043B0430F4D0C2F1000102EA0102B2FA5B
:1057C80082F2C2F11F0200EBD20070478C4630B55E
:1057D80004466FF000451346084A9BB01068084A13
:1057E800694603926246059502950094049400F078
:1057F80037F80022009B1A701BB030BD74000020DF
:105808000802FFFF024B13B1024800F005B87047C9
:10581800000000002D580008002301461A461846CB
:1058280001F070BD38B5084B084D5B1B9C1007D0C4
:10583800043B1D44013C55F804399847002CF9D124
:10584800BDE8384007F0ACBC4CD8000848D8000880
:10585800704700BF704700BF704700BF704700BF68
:105868002DE9F04FD5B00C460C9191460E930A9055
:1058780002F0DCFE036818461793FFF779FFA38947
:105888001690190603D52369002B00F08F87002492
:105898002BAB224698464D46CDE9294428931294CD
:1058A80000230024CDE914342B78CDE91922CDE961
:1058B8001B2218920892002B00F0CE81AA4604E021
:1058C8001AF8013F002B00F00981252BF8D1BAEB1B
:1058D800050640F007819AF80030002B00F0BC81E3
:1058E80000234FF0FF324FF02B0920241F469AF86F
:1058F800016007920AF1010A8DF8833009930AF1D1
:10590800010AA6F120035A2B00F22081DFE813F0E8
:10591800CA021E011E01C5021E011E011E01A302AC
:105928001E011E016A00F3021E014702D9021E0170
:10593800D4025B005B005B005B005B005B005B000C
:105948005B005B001E011E011E011E011E011E01DF
:105958001E01B0011E010B027A00B001B001B001B6
:105968001E011E011E011E019E021E011E01B6001F
:105978001E011E011E0119021E014C021E011E01FC
:105988003F071E011E011E011E011E011E011E01F0
:105998001E01B0011E010B027C00B001B001B00174
:1059A80091027C0075001E0184021E017002B8007D
:1059B8005E0275001E01190272001C071E011E01FD
:1059C8001F071E0172000022A6F130031AF8016BAE
:1059D80002EB820203EB4202A6F13003092BF5D950
:1059E80009928EE70E9B53F8042B002A09920E9316
:1059F800C0F2D2819AF8006081E79AF8006047F017
:105A080020077CE747F01007BA060E9B40F17D811E
:105A1800073323F007031A465B6852F8084B994688
:105A28000E92002BC0F27F85079B013301F039806D
:105A380054EA090327F0800B00F005850A2C79F158
:105A4800000380F0938701235F4630348DF84F417F
:105A58000B930DF24F15079A0B9900238A42B8BF92
:105A68000A4606929DF883200D930F931393109383
:105A7800002A7CD0069B0133069378E047F0100794
:105A880017F0200900F032810E9B073323F007033B
:105A9800D3F8049053F8084B0E93002327F4806B37
:105AA80000228DF88320079A511C00F02A8254EABC
:105AB80009012BF0800740F02382002A41F02B8057
:105AC800002B40F0C5841BF001030B9300F05485B4
