:020000040800F2
:1000000000C00020F55D0008513800085338000892
:10001000553800085738000859380008000000001B
:100020000000000000000000000000005B38000835
:100030005D380008000000005F38000861380008E3
:100040003D5E00083D5E00083D5E00083D5E000824
:100050003D5E00083D5E00083D5E00083D5E000814
:100060003D5E00083D5E00083D5E00083D5E000804
:100070003D5E0008693800083D5E00083D5E0008EE
:10008000793800083D5E00083D5E00083D5E0008CE
:100090003D5E00083D5E00083D5E00083D5E0008D4
:1000A0003D5E0008893800083D5E00083D5E00089E
:1000B0003D5E00083D5E00083D5E00083D5E0008B4
:1000C0003D5E00083D5E00083D5E00083D5E0008A4
:1000D0003D5E00083D5E000899380008A938000818
:1000E0003D5E00083D5E00083D5E00083D5E000884
:1000F0003D5E00083D5E00083D5E00083D5E000874
:100100003D5E00083D5E00083D5E00083D5E000863
:100110003D5E00083D5E00083D5E00083D5E000853
:100120003D5E00083D5E00083D5E00083D5E000843
:1001300000000000000000000000000000000000BF
:1001400000000000000000000000000000000000AF
:10015000000000000000000000000000000000009F
:10016000000000000000000000000000000000008F
:10017000000000000000000000000000000000007F
:10018000000000000000000000000000000000006F
:10019000000000000000000000000000000000005F
:1001A000000000000000000000000000000000004F
:1001B000000000000000000000000000000000003F
:1001C000000000000000000000000000000000002F
:1001D000000000000000000000000000000000001F
:0401E0005FF8E0F1F3
:1001E80010B5054C237833B9044B13B10448AFF369
:1001F80000800123237010BD280A002000000000A1
:100208004CD9000808B5034B1BB103490348AFF3A9
:10021800008008BD000000002C0A00204CD900080E
:10022800844641EA000313F0030349D1403A23D33B
:100238000B6803604B6843608B688360CB68C3605E
:100248000B6903614B6943618B698361CB69C36146
:100258000B6A03624B6A43628B6A8362CB6AC3622E
:100268000B6B03634B6B43638B6B8363CB6BC36316
:1002780040304031403ADBD230320BD30B68036058
:100288004B6843608B688360CB68C3601030103163
:10029800103AF3D20C3205D351F8043B40F8043B32
:1002A800043AF9D2043208D0D2071CBF11F8013B36
:1002B80000F8013B01D30B8803806046704700BFFC
:1002C800082A13D38B07B1D010F00303AED0C3F1C3
:1002D8000403D21ADB071CBF11F8013B00F8013BED
:1002E800A4D331F8023B20F8023B9FE7043AD9D364
:1002F800013A11F8013B00F8013BF9D20B78037081
:100308004B7843708B7883706046704781F000416A
:1003180002E000BF83F0004330B54FEA41044FEAE2
:10032800430594EA050F08BF90EA020F1FBF54EA7D
:10033800000C55EA020C7FEA645C7FEA655C00F019
:10034800E2804FEA5454D4EB5555B8BF6D420CDDEA
:100358002C4480EA020281EA030382EA000083EA6D
:10036800010180EA020281EA0303362D88BF30BD0D
:1003780011F0004F4FEA01314FF4801C4CEA113163
:1003880002D0404261EB410113F0004F4FEA0333C2
:100398004CEA133302D0524263EB430394EA050F4D
:1003A80000F0A780A4F10104D5F1200E0DDB02FABC
:1003B8000EFC22FA05F2801841F1000103FA0EF250
:1003C800801843FA05F359410EE0A5F120050EF116
:1003D800200E012A03FA0EFC28BF4CF0020C43FA47
:1003E80005F3C01851EBE37101F0004507D54FF054
:1003F800000EDCF1000C7EEB00006EEB0101B1F5A4
:10040800801F1BD3B1F5001F0CD349085FEA3000E9
:100418004FEA3C0C04F101044FEA445212F5800FF4
:1004280080F09A80BCF1004F08BF5FEA500C50F191
:10043800000041EB045141EA050130BD5FEA4C0C74
:10044800404141EB0101013C28BFB1F5801FE9D2D1
:1004580091F0000F04BF01460020B1FA81F308BFF4
:100468002033A3F10B03B3F120020CDA0C3208DDC0
:1004780002F1140CC2F10C0201FA0CF021FA02F19B
:100488000CE002F11402D8BFC2F1200C01FA02F10B
:1004980020FA0CFCDCBF41EA0C019040E41AA2BF30
:1004A80001EB0451294330BD6FEA04041F3C1CDAF8
:1004B8000C340EDC04F11404C4F1200220FA04F018
:1004C80001FA02F340EA030021FA04F345EA0301C2
:1004D80030BDC4F10C04C4F1200220FA02F001FA84
:1004E80004F340EA0300294630BD21FA04F0294606
:1004F80030BD94F0000F83F4801306BF81F480119F
:100508000134013D4EE77FEA645C18BF7FEA655C11
:1005180029D094EA050F08BF90EA020F05D054EAE3
:10052800000C04BF1946104630BD91EA030F1EBFE8
:100538000021002030BD5FEA545C05D140004941EC
:1005480028BF41F0004130BD14F580043CBF01F5DF
:10055800801130BD01F0004545F0FE4141F47001C5
:100568004FF0000030BD7FEA645C1ABF19461046A0
:100578007FEA655C1CBF0B46024650EA013406BFA1
:1005880052EA033591EA030F41F4002130BD00BF60
:1005980090F0000F04BF0021704730B54FF480641D
:1005A80004F132044FF000054FF0000150E700BF9E
:1005B80090F0000F04BF0021704730B54FF48064FD
:1005C80004F1320410F0004548BF40424FF00001EA
:1005D8003EE700BF42004FEAE2014FEA31014FEA2D
:1005E80002701FBF12F07F4393F07F4F81F060517C
:1005F800704732F07F4208BF704793F07F4F04BFC7
:1006080041F40021704730B54FF4607401F00045A3
:1006180021F000411CE700BF50EA010208BF704703
:1006280030B54FF000050AE050EA010208BF7047F4
:1006380030B511F0004502D5404261EB41014FF45D
:10064800806404F132045FEA915C3FF4D8AE4FF065
:1006580003025FEADC0C18BF03325FEADC0C18BF48
:10066800033202EBDC02C2F1200300FA03FC20FA99
:1006780002F001FA03FE40EA0E0021FA02F11444E6
:10068800BDE600BF70B54FF0FF0C4CF4E06C1CEAFF
:1006980011541DBF1CEA135594EA0C0F95EA0C0F70
:1006A80000F0DEF82C4481EA030621EA4C5123EAE3
:1006B8004C5350EA013518BF52EA033541F4801112
:1006C80043F4801338D0A0FB02CE4FF00005E1FBC5
:1006D80002E506F00042E0FB03E54FF00006E1FB0F
:1006E80003569CF0000F18BF4EF0010EA4F1FF0452
:1006F800B6F5007F64F5407404D25FEA4E0E6D4192
:1007080046EB060642EAC62141EA55514FEAC520A2
:1007180040EA5E504FEACE2EB4F1FD0C88BFBCF51E
:10072800E06F1ED8BEF1004F08BF5FEA500E50F1CF
:10073800000041EB045170BD06F0004646EA010195
:1007480040EA020081EA0301B4EB5C04C2BFD4EBC7
:100758000C0541EA045170BD41F480114FF0000EC0
:10076800013C00F3AB8014F1360FDEBF002001F02E
:10077800004170BDC4F10004203C35DA0C341BDCA8
:1007880004F11404C4F1200500FA05F320FA04F07A
:1007980001FA05F240EA020001F0004221F00041AE
:1007A80010EBD37021FA04F642EB06015EEA430E21
:1007B80008BF20EAD37070BDC4F10C04C4F1200551
:1007C80000FA04F320FA05F001FA04F240EA020004
:1007D80001F0004110EBD37041F100015EEA430ED5
:1007E80008BF20EAD37070BDC4F1200500FA05F2F5
:1007F8004EEA020E20FA04F301FA05F243EA020374
:1008080021FA04F001F0004121FA04F220EA020082
:1008180000EBD3705EEA430E08BF20EAD37070BDC8
:1008280094F0000F0FD101F00046400041EB0101A8
:1008380011F4801F08BF013CF7D041EA060195F08A
:10084800000F18BF704703F00046520043EB030344
:1008580013F4801F08BF013DF7D043EA0603704731
:1008680094EA0C0F0CEA135518BF95EA0C0F0CD03C
:1008780050EA410618BF52EA4306D1D181EA030182
:1008880001F000414FF0000070BD50EA410606BF7C
:100898001046194652EA430619D094EA0C0F02D1C1
:1008A80050EA013613D195EA0C0F05D152EA033606
:1008B8001CBF104619460AD181EA030101F0004124
:1008C80041F0FE4141F470014FF0000070BD41F06D
:1008D800FE4141F4780170BD70B54FF0FF0C4CF447
:1008E800E06C1CEA11541DBF1CEA135594EA0C0F66
:1008F80095EA0C0F00F0A7F8A4EB050481EA030EB3
:1009080052EA03354FEA013100F088804FEA033399
:100918004FF0805545EA131343EA12634FEA022267
:1009280045EA111545EA10654FEA00260EF0004128
:100938009D4208BF964244F1FD0404F5407402D27A
:100948005B084FEA3202B61A65EB03055B084FEA0B
:1009580032024FF480104FF4002CB6EB020E75EB08
:10096800030E22BFB61A754640EA0C005B084FEA30
:100978003202B6EB020E75EB030E22BFB61A7546AD
:1009880040EA5C005B084FEA3202B6EB020E75EBF8
:10099800030E22BFB61A754640EA9C005B084FEA70
:1009A8003202B6EB020E75EB030E22BFB61A75467D
:1009B80040EADC0055EA060E18D04FEA051545EA6C
:1009C80016754FEA06164FEAC30343EA52734FEA15
:1009D800C2025FEA1C1CC0D111F4801F0BD141EA8E
:1009E80000014FF000004FF0004CB6E711F4801FF3
:1009F80004BF01430020B4F1FD0C88BFBCF5E06FD3
:100A08003FF6AFAEB5EB030C04BFB6EB020C5FEAE2
:100A1800500C50F1000041EB045170BD0EF0004E37
:100A28004EEA113114EB5C04C2BFD4EB0C0541EA69
:100A3800045170BD41F480114FF0000E013C90E666
:100A480045EA060E8DE60CEA135594EA0C0F08BF2A
:100A580095EA0C0F3FF43BAF94EA0C0F0AD150EA29
:100A680001347FF434AF95EA0C0F7FF425AF1046BC
:100A780019462CE795EA0C0F06D152EA03353FF4E4
:100A8800FDAE1046194622E750EA410618BF52EA61
:100A980043067FF4C5AE50EA41047FF40DAF52EA35
:100AA80043057FF4EBAE12E74FF0FF3C06E000BFD2
:100AB8004FF0010C02E000BF4FF0010C4DF804CDDF
:100AC8004FEA410C7FEA6C5C4FEA430C18BF7FEA9F
:100AD8006C5C1BD001B050EA410C0CBF52EA430CCD
:100AE80091EA030F02BF90EA020F0020704710F14D
:100AF800000F91EA030F58BF994208BF90422CBFDC
:100B0800D8176FEAE37040F0010070474FEA410CD4
:100B18007FEA6C5C02D150EA013C07D14FEA430CF2
:100B28007FEA6C5CD6D152EA033CD3D05DF8040B63
:100B3800704700BF8446104662468C461946634695
:100B480000E000BF01B5FFF7B7FF002848BF10F16C
:100B5800000F01BD4DF808EDFFF7F4FF0CBF0120B1
:100B680000205DF808FB00BF4DF808EDFFF7EAFF2D
:100B780034BF012000205DF808FB00BF4DF808EDE8
:100B8800FFF7E0FF94BF012000205DF808FB00BFDD
:100B98004DF808EDFFF7CEFF94BF012000205DF867
:100BA80008FB00BF4DF808EDFFF7C4FF34BF012074
:100BB80000205DF808FB00BF4FEA410C7FEA6C5C3F
:100BC80002D150EA013C0AD14FEA430C7FEA6C5C3F
:100BD80002D152EA033C02D14FF0000070474FF0B7
:100BE800010070474FEA410212F5001215D211D5E3
:100BF8006FF47873B3EB625212D94FEAC12343F012
:100C0800004343EA505311F0004F23FA02F018BF93
:100C1800404270474FF00000704750EA013005D15C
:100C280011F0004008BF6FF0004070474FF000001F
:100C3800704700BF4FEA4102B2F1E04324BFB3F569
:100C4800001CDCF1FE5C0DD901F0004C4FEAC0023B
:100C58004CEA5070B2F1004F40EB830008BF20F01F
:100C68000100704711F0804F21D113F13872BCBFD9
:100C780001F00040704741F480114FEA5252C2F12E
:100C88001802C2F1200C10FA0CF320FA02F018BF77
:100C980040F001004FEAC1234FEAD32303FA0CFCCA
:100CA80040EA0C0023FA02F34FEA4303CCE77FEA59
:100CB800625307D150EA01331EBF4FF0FE4040F4A3
:100CC8004000704701F0004040F0FE4040F4000052
:100CD800704700BF80F0004002E000BF81F0004193
:100CE80042001FBF5FEA410392EA030F7FEA226CCA
:100CF8007FEA236C6AD04FEA1262D2EB1363C1BF5A
:100D0800D218414048404140B8BF5B42192B88BFC8
:100D1800704710F0004F40F4000020F07F4018BFEB
:100D2800404211F0004F41F4000121F07F4118BF0B
:100D3800494292EA030F3FD0A2F1010241FA03FCB3
:100D480010EB0C00C3F1200301FA03F100F000439B
:100D580002D5494260EB4000B0F5000F13D3B0F163
:100D6800807F06D340084FEA310102F10102FE2AD2
:100D780051D2B1F1004F40EBC25008BF20F0010042
:100D880040EA03007047490040EB0000013A28BFE1
:100D9800B0F5000FEDD2B0FA80FCACF1080CB2EB64
:100DA8000C0200FA0CF0AABF00EBC25052421843E2
:100DB800BCBFD0401843704792F0000F81F4000187
:100DC80006BF80F400000132013BB5E74FEA41035A
:100DD8007FEA226C18BF7FEA236C21D092EA030FC6
:100DE80004D092F0000F08BF0846704790EA010F40
:100DF8001CBF0020704712F07F4F04D1400028BF6D
:100E080040F00040704712F100723CBF00F500004E
:100E1800704700F0004343F0FE4040F40000704784
:100E28007FEA226216BF08467FEA23630146420230
:100E380006BF5FEA412390EA010F40F48000704743
:100E48004FF0000304E000BF10F0004348BF4042E9
:100E58005FEA000C08BF704743F0964301464FF025
:100E680000001CE050EA010208BF70474FF0000381
:100E78000AE000BF50EA010208BF704711F00043C2
:100E880002D5404261EB41015FEA010C02BF844692
:100E98000146002043F0B64308BFA3F18053A3F5F1
:100EA8000003BCFA8CF2083AA3EBC25310DB01FA38
:100EB80002FC634400FA02FCC2F12002BCF1004FBC
:100EC80020FA02F243EB020008BF20F0010070474D
:100ED80002F1200201FA02FCC2F1200250EA4C00A1
:100EE80021FA02F243EB020008BF20EADC707047E7
:100EF8004FF0FF0C1CEAD0521EBF1CEAD15392EAF5
:100F08000C0F93EA0C0F6FD01A4480EA010C4002D0
:100F180018BF5FEA41211ED04FF0006343EA50102A
:100F280043EA5111A0FB01310CF00040B1F5000F6C
:100F38003EBF490041EAD3715B0040EA010062F11B
:100F48007F02FD2A1DD8B3F1004F40EBC25008BF05
:100F580020F00100704790F0000F0CF0004C08BF23
:100F680049024CEA502040EA51207F3AC2BFD2F1F0
:100F7800FF0340EAC250704740F400004FF00003FE
:100F8800013A5DDC12F1190FDCBF00F00040704738
:100F9800C2F10002410021FA02F1C2F1200200FA76
:100FA80002FC5FEA310040F1000053EA4C0308BF3D
:100FB80020EADC70704792F0000F00F0004C02BF8E
:100FC800400010F4000F013AF9D040EA0C0093F009
:100FD800000F01F0004C02BF490011F4000F013B63
:100FE800F9D041EA0C018FE70CEAD15392EA0C0FD1
:100FF80018BF93EA0C0F0AD030F0004C18BF31F03C
:10100800004CD8D180EA010000F00040704790F011
:10101800000F17BF90F0004F084691F0000F91F0B5
:10102800004F14D092EA0C0F01D142020FD193EA7B
:101038000C0F03D14B0218BF084608D180EA010003
:1010480000F0004040F0FE4040F40000704740F0DF
:10105800FE4040F4400070474FF0FF0C1CEAD052AD
:101068001EBF1CEAD15392EA0C0F93EA0C0F69D009
:10107800A2EB030280EA010C49024FEA402037D074
:101088004FF0805343EA111143EA10130CF000406B
:101098008B4238BF5B0042F17D024FF4000C8B425B
:1010A80024BF5B1A40EA0C00B3EB510F24BFA3EB3B
:1010B800510340EA5C00B3EB910F24BFA3EB91030B
:1010C80040EA9C00B3EBD10F24BFA3EBD10340EA65
:1010D800DC001B0118BF5FEA1C1CE0D1FD2A3FF6AB
:1010E80050AF8B4240EBC25008BF20F00100704760
:1010F8000CF0004C4CEA50207F32C2BFD2F1FF0303
:1011080040EAC250704740F400004FF00003013A33
:1011180037E792F0000F00F0004C02BF400010F4D7
:10112800000F013AF9D040EA0C0093F0000F01F0EB
:10113800004C02BF490011F4000F013BF9D041EA0D
:101148000C0195E70CEAD15392EA0C0F08D1420240
:101158007FF47DAF93EA0C0F7FF470AF084676E713
:1011680093EA0C0F04D14B023FF44CAF08466EE7EC
:1011780030F0004C18BF31F0004CCAD130F00042BA
:101188007FF45CAF31F000437FF43CAF5FE700BF12
:101198004FF0FF3C06E000BF4FF0010C02E000BF3B
:1011A8004FF0010C4DF804CD4FEA40024FEA4103DD
:1011B8007FEA226C18BF7FEA236C11D001B052EA93
:1011C800530C18BF90EA010F58BFB2EB030088BF59
:1011D800C81738BF6FEAE17018BF40F001007047C8
:1011E8007FEA226C02D15FEA402C05D17FEA236CAA
:1011F800E4D15FEA412CE1D05DF8040B704700BFF1
:10120800844608466146FFE70FB5FFF7C9FF002887
:1012180048BF10F1000F0FBD4DF808EDFFF7F4FFC0
:101228000CBF012000205DF808FB00BF4DF808ED59
:10123800FFF7EAFF34BF012000205DF808FB00BF7C
:101248004DF808EDFFF7E0FF94BF012000205DF89E
:1012580008FB00BF4DF808EDFFF7D2FF94BF01204F
:1012680000205DF808FB00BF4DF808EDFFF7C8FF48
:1012780034BF012000205DF808FB00BF4FEA4002A0
:10128800B2F1FE4F0FD34FF09E03B3EB12620DD9AC
:101298004FEA002343F0004310F0004F23FA02F016
:1012A80018BF404270474FF00000704712F1610FBD
:1012B80001D1420205D110F0004008BF6FF0004094
:1012C80070474FF00000704742000ED2B2F1FE4F57
:1012D8000BD34FF09E03B3EB126209D44FEA0023FD
:1012E80043F0004323FA02F070474FF000007047C4
:1012F80012F1610F01D1420202D14FF0FF30704765
:101308004FF00000704700BF53B94AB9002908BF21
:1013180000281CBF4FF0FF314FF0FF3000F076B9C6
:10132800ADF1080C6DE904CE00F006F8DDF804E034
:10133800DDE9022304B070472DE9F047089E0D4609
:1013480004468846002B4DD18A42944668D9B2FAA1
:1013580082F252B101FA02F3C2F1200120FA01F13E
:101368000CFA02FC41EA030894404FEA1C41B8FB1E
:10137800F1F71FFA8CFE01FB178807FB0EF0230C10
:1013880043EA084398420AD91CEB030307F1FF35E7
:1013980080F01E81984240F21B81023F63441B1A71
:1013A800B3FBF1F001FB103300FB0EFEA4B244EADC
:1013B8000344A6450AD91CEB040400F1FF3380F06E
:1013C8000981A64540F20681644402380021A4EB55
:1013D8000E0440EA07401EB10023D440C6E900438A
:1013E800BDE8F0878B4208D9002E00F0EE8000217E
:1013F800C6E900050846BDE8F087B3FA83F100297D
:101408004AD1AB4202D3824200F2FC80841A65EBD7
:10141800030301209846002EE2D0C6E90048DFE722
:1014280002B9FFDEB2FA82F2002A40F09180A1EB05
:101438000C0001214FEA1C471FFA8CFEB0FBF7F3A2
:1014480007FB1300250C45EA00450EFB03F0A842F4
:1014580008D91CEB050503F1FF3802D2A84200F2B7
:10146800CE8043462D1AB5FBF7F007FB10550EFB4F
:1014780000FEA4B244EA0544A64508D91CEB0404BE
:1014880000F1FF3502D2A64500F2B6802846A4EB4B
:101498000E0440EA03409EE7C1F120078B4022FA80
:1014A80007FC4CEA030C25FA07FA4FEA1C49BAFB79
:1014B800F9F820FA07F309FB18AA8D401FFA8CFEE9
:1014C8001D4300FA01F308FB0EF02C0C44EA0A4411
:1014D800A04202FA01F20BD91CEB040408F1FF3A0E
:1014E80080F08880A04240F28580A8F10208644418
:1014F800241AB4FBF9F009FB104400FB0EFEADB250
:1015080045EA0444A64508D91CEB040400F1FF355C
:101518006CD2A6456AD90238644440EA0840A0FB68
:101528000295A4EB0E04AC42C846AE4656D353D03F
:10153800002E69D0B3EB080264EB0E0422FA01F323
:1015480004FA07F71F43CC40C6E90074002147E7B7
:101558000CFA02FCC2F1200125FA01F34FEA1C47FC
:1015680020FA01F195400D43B3FBF7F107FB113366
:101578001FFA8CFE280C40EA034001FB0EF383425D
:1015880004FA02F408D91CEB000001F1FF382FD24D
:1015980083422DD902396044C01AB0FBF7F307FB28
:1015A8001300ADB245EA004503FB0EF0A84208D986
:1015B8001CEB050503F1FF3816D2A84214D9023BEB
:1015C8006544281A43EA014138E73146304607E7BF
:1015D8002F46E4E61846F9E64B45A9D2B9EB0208CE
:1015E80065EB0C0E0138A3E74346EAE7284694E783
:1015F8004146D1E7D0467BE76444023847E7023BDF
:1016080065442FE7084606E73146E9E6704700BF1C
:10161800F8B504464069FFF761FB054601462068B6
:10162800FFF75EFB064620602946A068FFF760FCCE
:101638000746E1683046FFF75BFC01463846FFF78E
:101648004FFB0646276961682846FFF747FB0146B6
:101658003846FFF74DFC01463046FFF741FB06468A
:1016680065600749FFF7F6FD30B906493046FFF7D0
:10167800E7FD18B93046F8BD014EFBE7014EF9E722
:1016880000007A4400007AC4024B1860024B1960CB
:10169800704700BF5431002058310020000000007E
:1016A8002DE9F84305460E4601F0E0FD444B196864
:1016B800FFF716FB4349FFF7CFFC4349FFF718FC38
:1016C80004463046FEF786FF80468946294620466E
:1016D800FFF704FB0446FEF77DFF06460F460AF0B7
:1016E800AFFB02460B4640464946FEF7CBFFFFF7E5
:1016F800A1FA0546304639460AF0F4FB02460B4685
:1017080040464946FEF7BEFFFFF794FA07460146F2
:101718002846FFF7E5FA06462C4B58613946284615
:10172800FFF7DCFA07462A4B58612A4B58612A4BC7
:101738005E6121A3D3E9002340464946FEF7A2FF94
:10174800FFF778FA054604E024492046FFF7C8FA6F
:10175800044600212046FFF769FD0028F4D104E083
:1017680019492046FFF7BAFA044617492046FFF7F9
:1017780071FD0028F4D11A492046FFF757FD08B932
:1017880005F1004529463046FFF7AAFA0F4B586184
:1017980029463846FFF7A2FA0D4B586129463846C4
:1017A800FFF79EFA0B4B586129463046FFF796FA29
:1017B800094B5861BDE8F8837B14AE47E17A843F52
:1017C8009C71002000003443DA0F4940A87E0020B5
:1017D800C07E0020D87E0020F07E0020DA0FC940AD
:1017E800DA0FC93F0000000038B502689A4B1B6841
:1017F8009A4200D038BD994B1968994B1868FFF781
:101808004FFF984A136801331360974B1B68586A57
:10181800B0F5004F01DDA0F5803000225A62FEF7D6
:10182800C7FE0022914BFEF72DFF89A3D3E90023C1
:10183800FEF728FFFFF7FEF904468D4D014668685C
:10184800FFF74EFA686021468A48FFF7E1FE044632
:101858000021FFF7EBFC002840F0C080864D0022F5
:101868004FF48061284603F013FA01224FF4006117
:10187800284603F00DFA814B1D682046FFF724FD2A
:1018880068637F4B1B68586AB0F5004F01DDA0F50F
:10189800803000225A62FEF78BFE0022734BFEF75F
:1018A800F1FE6BA3D3E90023FEF7ECFEFFF7C2F9C4
:1018B80004466F4D0146A868FFF712FAA860214652
:1018C8007048FFF7A5FE04460021FFF7AFFC00288B
:1018D80040F09480684D00221021284603F0D8F982
:1018E80001222021284603F0D3F9644B1D682046C5
:1018F800FFF7EAFCA863644B1B68586AB0F5004F11
:1019080001DDA0F5803000225A62FEF751FE002268
:10191800564BFEF7B7FE4EA3D3E90023FEF7B2FEFF
:10192800FFF788F90446524D0146E868FFF7D8F9F1
:10193800E86021465548FFF76BFE04460021FFF793
:1019480075FC002868D1524D00221021284603F06A
:101958009FF901222021284603F09AF9474B1D6878
:101968002046FFF7B1FCE8634A4B1B68586AB0F59C
:10197800004F01DDA0F5803000225A62FEF718FE04
:1019880000223A4BFEF77EFE31A3D3E90023FEF78F
:1019980079FEFFF74FF90446354D01462869FFF7F0
:1019A8009FF9286121463C48FFF732FE0446002192
:1019B800FFF73CFC00283DD12F4D0022042128468A
:1019C80003F066F901220821284603F061F92B4B40
:1019D8001D682046FFF778FC28640BE7264D012296
:1019E8004FF48061284603F053F900224FF4006158
:1019F800284603F04DF904F100443CE71E4D01224E
:101A08001021284603F044F900222021284603F03B
:101A18003FF904F1004468E71D4D012210212846D2
:101A280003F036F900222021284603F031F904F1A9
:101A3800004493E7104D01220421284603F028F9B9
:101A480000220821284603F023F904F10044BEE7E8
:101A580000000040FB210940247F0020583100206D
:101A680054310020947100206C7F002000001A403F
:101A7800107F0020A87E0020001001408C800020EC
:101A8800B47F0020C07E0020FC7F0020D87E00208C
:101A9800000C014044800020F07E002082B0ADF8A8
:101AA8000000ADF80210009B01930020BDF804303F
:101AB80063F30F00BDF8063063F31F4002B07047B0
:101AC8004FEA621C00EB411102F01F02012303FAE6
:101AD80002F251F82C30134341F82C3070478842F9
:101AE800B8BF084670478842A8BF0846704738B54F
:101AF80005460C46FFF7B8FB00B12C46204638BD1A
:101B08002DE9F04383B001900091BDF90000BDF9C3
:101B18000420861ABDF90210BDF90630CD1A121A32
:101B280082EAE270A0EBE2705B1A002BB8BF5B425E
:101B380032211844FFF7D7FF044605FB05F506FBDD
:101B48000650FEF735FD0AF027FA24B306460F467D
:101B580000220023FEF796FD804689462046FEF7C0
:101B680027FD02460B4640464946FEF7B5FE0022D1
:101B78000B4BFEF7B1FE00220A4BFEF783FD0A4B22
:101B8800D3E90023FEF77EFD32463B46FEF7C4FB51
:101B9800FFF728F80446204603B0BDE8F08300BFED
:101BA80000003E40000059403800002038B50025AC
:101BB80014E0294B53F8241053F82500FFF7A0FF31
:101BC80005EB450304EB8303244A42F82300244A27
:101BD80042F8234001340B2CEBDD01350B2D01DCE1
:101BE8000024F8E7002131E001320B2A28DC994271
:101BF800FAD01A4C03EB430002EB800054F8205053
:101C080003EB430001EB800054F8200001EB410C8A
:101C180002EB8C0C54F82C4020448542E4DD03EBA5
:101C2800430402EB84040D4D45F824000C4D03EBEE
:101C3800430001EB800055F8200045F82400D3E765
:101C480001330B2B01DC0022CFE701310B2901DC2A
:101C58000023F6E738BD00BF00000020A471002073
:101C6800987400202DE9F0478A4691461F46DDF812
:101C78002080B8F1010F06D002260021801BFFF753
:101C88002EFF054610E00526F7E708F1FF3022464B
:101C980029460C4B03EB4030FFF712FF013406EBEB
:101CA800070CA445F1DA013506EB0903AB4206DB64
:101CB8000021AAEB0600FFF712FF0446EFE7BDE894
:101CC800F08700BF8831002082B001900091BDF9F3
:101CD8000400BDF90030C01ABDF90630BDF9022074
:101CE8009B1A03FB03F300FB00304028CCBF002005
:101CF800012002B07047002393420DD200B510F8BE
:101D080003C011F803E000F803E001F803C0013351
:101D18009342F4D35DF804FB704700000000000014
:101D28002DE9F04FA9B080460E4692460846FEF7C8
:101D380051FC04460D46924B1F683846FEF74AFC94
:101D48008DA3D3E90023FEF7E7FA02460B462046A7
:101D58002946FEF727FF68B139463046FEF7BEFF31
:101D680001464046FFF778F901460020FFF7BFFE1D
:101D7800814601E04FF00009824B1B6803936422FF
:101D880081490FA8FEF74CFA0AAC804D0FCD0FC45D
:101D98002B6823606DE001357A4B1C68AC4231DD5D
:101DA80005EB8504784B03EB8404784B53F8250046
:101DB800FFF74AF801463046FEF790FF0190236985
:101DC800009394E80F0001F08BFC3946FFF74CFABA
:101DD8000028E0D005EB85046B4B03EB84046B4BC8
:101DE80053F82500FFF730F801463046FEF776FF36
:101DF80001902369009394E80F0001F071FC0746F5
:101E0800AB46C8E74FF080413046FEF769FF06460B
:101E180039464046FEF764FF8046594B19683046FC
:101E2800FEF75CFF01464046FFF716F901464846B3
:101E3800FFF75DFE814654484FEA8B050BEB8B0B91
:101E4800013C04EB8404042200EB840100EB8B00CA
:101E5800FFF751FF4B4C206801384C4B04225919AD
:101E680003EB8000FFF747FF2368013B23600AF17B
:101E7800FF3ABAF1000F07DD424B1B68002B03DD68
:101E880000250027AB4687E70023049305930693B4
:101E980007930893099344E001343D4B1B68A34220
:101EA80015DD04EB84033B4A02EB83039B7B002B89
:101EB800F2D104EB840302EB83031D6939462846FB
:101EC800FFF7D2F90028E7D02F46A346E4E73946C2
:101ED8004046FEF705FF80464FF081413046FEF749
:101EE800FFFE0646264B1968FEF7F8FE01464046F7
:101EF800FFF7B2F801464846FFF7F9FD8146049B13
:101F08000133049328AA02EB830343F890BC0BEB3C
:101F18008B0B204B03EB8B0B01238BF80E30AAF1B4
:101F2800020ABAF1010F12DD00240027A346B4E724
:101F380028AA02EB830353F8902C511E43F8901CF7
:101F480002EB8202134B03EB820200239373049B80
:101F5800002BEDD164220FA90B48FEF761F90B4C59
:101F68000AAD0FCD0FC42B682360064B039A1A6085
:101F7800484629B0BDE8F08F48AFBC9AF2D77A3E00
:101F8800087F00208C74002028740020E47300204F
:101F980098710020D87600202DE9F04F89B080464E
:101FA80008460591114606920793704B1A68A2EBF2
:101FB8000802FFF7B5FE044601466D4B1868FFF7A7
:101FC80053F9002840F0CF80684B1B68434506D082
:101FD800684B1B68042B57DD4FF0000ABFE0664BC7
:101FE8001A68664B1A60624B1C60BCE00134644B93
:101FF8001B68A342F0DD04EB8403624A02EB83030F
:102008009B7B002BF2D1154604EB8406B70002EB4C
:10201800860671680798FFF773FD5B4B83FB002307
:102028000344C017C0EB6310FEF70EFF01460123FF
:10203800B37355F807A0504B43F828A00698FEF74D
:102048004FFE81464B4F3D68FFF718F94F4B43F859
:1020580025006B1C3B6005EB85034D4D05EB8305A7
:10206800B446BCE80F000FC5DCF800302B605346BF
:102078004A46059908F10100FFF78EFF3B68013BCE
:102088003B600023B373B1E70024B0E7DFF80091A9
:102098004FEA8A070AEB8A0409EB84046168079807
:1020A800FFF72EFD384B83FB00230344C017C0EB1A
:1020B8006310FEF7C9FE01460698FEF711FE0546B5
:1020C800324E56F82A00FEF7BFFE01460495284610
:1020D800FEF704FE01902369009394E80F0001F0D5
:1020E800FFFA0390DFF890B063684BF82830214D71
:1020F8002968013901EB8101042209EB810120469D
:10210800FFF7F9FD2868013837440422394606EB01
:102118008000FFF7F0FD2B68013B2B6003990598C1
:10212800FEF7DEFD01465BF82830049A08F101004D
:10213800FFF732FF29684B1C2B6001EB8101042259
:1021480009EB81012046FFF7D6FD286801380422F3
:10215800394606EB8000FFF7CEFD0AF1010A054B70
:102168001B68534592DC09B0BDE8F08FA0710020D0
:102178008C7100208C7400205C3100208871002054
:1021880098710020D8760020B7600BB6E473002061
:1021980028740020000000002DE9F047AEB0C44BC1
:1021A8001D68D5B11FA801F0E7FABDF98820B2F182
:1021B800FF3F00F07B81BF4B1C68002C00F066815C
:1021C800013C04EB8404BC4B03EB8404B4F90C30ED
:1021D8009A4200F06B81002458E101221A604FF402
:1021E80080420021B54803F04BFE2C4610E0E1B2D6
:1021F80012A801F0F3FA02230093BDF94E30BDF99D
:102208004C20BDF94A10BDF94800FFF72BFD0134F9
:10221800042CECDD0124009428236B222621084697
:10222800FFF720FD00942823D82226219320FFF7CA
:1022380019FD00946B23282226210846FFF712FD7A
:102248000094D823282293212620FFF70BFD009421
:10225800D8236B22D6212620FFF704FD0094D8232B
:102268001A46D6219320FFF7FDFC00946B23D82251
:102278002621D620FFF7F6FC0094D8231A4693218E
:10228800D620FFF7EFFC8B4B1F688B4E07EB8704BC
:102298004FEA840906EB84047E212720FFF7FEFB22
:1022A80046F809007E212820FFF7F8FB6060844B80
:1022B80023616423A3600022A2732E462AE0DFF87C
:1022C800F4A1DAF80040DFF8FC91DFF8EC8104EBC8
:1022D800840359F8261058F82300FFF711FC7A4FA9
:1022E80004EB440406EB840347F83300DAF80040B3
:1022F80004EB840308EB830859F82610D8F8040087
:10230800FFF7FEFB04EB440406EB840307EBC3036F
:10231800586001360B2ED2DD664B1C6801341C60F8
:10232800654F04EB84064FEA860907EB86067E2193
:10233800D720FFF7B3FB47F809007E21D620FFF727
:10234800ADFB70605E4B33616423B3600022B273EF
:102358002E462AE0DFF85CA1DAF80040DFF8649145
:10236800DFF8548104EB840359F8261058F8230049
:10237800FFF7C6FB544F04EB440406EB840347F80D
:102388003300DAF8004004EB840308EB830859F8BB
:102398002610D8F80400FFF7B3FB04EB440406EB5F
:1023A800840307EBC303586001360B2ED2DD414B83
:1023B8001C6801341C60404F04EB84064FEA860910
:1023C80007EB860627217E20FFF768FB47F8090000
:1023D80028217E20FFF762FB7060394B336164234C
:1023E800B3600022B27328E0DFF8C890D9F8004043
:1023F800DFF8D080304F04EB840358F8251057F8E5
:102408002300FFF77DFB304E04EB440405EB840307
:1024180046F83300D9F8004004EB840307EB830740
:1024280058F825107868FFF76BFB04EB440405EBBC
:10243800840306EBC303586001350B2DD4DD1D4A18
:10244800136801331360FFF7B1FBABE6DFF8648074
:10245800D8F800501B4F57F824101F98FFF750FB6F
:10246800194E05EB450504EB850346F83300D8F80B
:10247800005057F824102098FFF742FB05EB45055C
:1024880004EB850306EBC303586001340B2CDDDD38
:10249800084B1C68621C1A6004EB8403064C04EBAE
:1024A80083041FAD0FCD0FC42B682360002637E0CF
:1024B8009074002098710020D87600208831002080
:1024C8000000C84200000020440A00200134A84B44
:1024D8001B68A34223DD04EB8403A64A02EB8303B3
:1024E800B3F90C309D42F1D104EB840302EB830372
:1024F8009B7B002BEAD104EB840302EB83030122CC
:102508009A7301F0BFF89C4B83FB0023C017C0EB04
:10251800A310FEF799FC994B43F82400D6E701363F
:1025280001F0D8F8B04207DDF1B224A801F0FAF8BA
:10253800BDF99C500024CAE701F0B2F81E90BDF91D
:102548007840A4F114039BB2DC2B05D8BDF97A308E
:10255800132B01DDF02B33DD894BB3F90000B0F10B
:10256800FF3F68D1874B19681E98FFF7ADFBB0B1E4
:10257800854B1B68002B0BDB03EB83017D4A02EBC9
:102588008102927B22B17B4A02EB81027F49116171
:10259800022B40F289807C4B4FF0FF321A6001F029
:1025A80099F80746774B1B680593794A1360794B6E
:1025B80000221A60C0F10A08774B01221A60C8E0AD
:1025C80001F060F8754B1B68C31A754A9342C3DD66
:1025D8006B4BB3F90030B3F1FF3F13D1684BB3F93C
:1025E8000030B3F1FF3F16D001F04CF86D4B1B687B
:1025F800C31AB3F57A7F16DB00F038FE6A49FFF795
:1026080043F8C6E101F03EF8664B1B68C31AB3F500
:10261800FA6FA1DCE2E75A4B1E9A1A6001F032F811
:10262800604B1860E0E700200146FFF72DF8544B97
:102638001E9A1A60ADE1BDF97A701E46B3F90230F0
:10264800FF1A201AFDF7B4FF04460D463846FDF779
:10265800AFFF22462B4609F09DFC0022534B01F1A7
:1026680000452946FEF70EF83FA3D3E90023FEF7FD
:1026780033F904460D4600F0F9FDFDF7ABFF0246BD
:102688000B4620462946FDF745FEFEF7D3FA484B90
:1026980018604FF0FF310846FFF700FA306000F08D
:1026A800F1FF3E4B18605DE701F0C0F873E70134B5
:1026B8002F4B1B68A3422BDD04EB84032D4A02EB4E
:1026C8008303B3F90C309D42F1D1DFF8E8A0DAF8C2
:1026D80000902A4B53F82400FEF7D0FD364B43F800
:1026E800290009F10103CAF8003009EB890904EB54
:1026F800840E324B03EB890C1E4B03EB8E0EBEE8A7
:102708000F00ACE80F00DEF80030CCF80030CEE760
:102718000136BE4207DAF1B229A801F003F8BDF983
:10272800B0500024C4E700F0ADFFFDF741FF0022E0
:10273800234BFEF7D1F8FEF77DFA0246214B1860CD
:102748001E9B00210020FFF727FC134A1368013362
:102758001360114B1B68434536DC0026154B1E6081
:10276800D7E700BFAFF3008000000040FB2109401D
:1027780098710020D8760020D34D6210C42F002015
:10278800300000204C000020400000200000C8C29B
:10279800887100208C710020A071002094740020A2
:1027A800BF2709000C7F00200000F0410080664030
:1027B8009C7100208C740020E47300202874002091
:1027C80000408F40087F0020834B1B680593834B94
:1027D8001C68B4F1FF3F12D0814B19681E98FFF7AF
:1027E80073FA60B17F4B53F824307C4A1360B3F11D
:1027F800FF3F26D07C4A52F82320794B1A60BDF956
:1028080014207A4BB3F900309A421FD0774B059ABF
:102818001A6000240B2C21DC734E56F82410734BDD
:102828001868FFF76DF92EAB03EB840545F8A00C8B
:1028380056F824101E98FFF763F945F8700C013418
:10284800E8E76A4B1A68664B1A60D8E7BDF91620A4
:10285800664BB3F902309A42D8D13BE000214FF0E1
:10286800FF354FF03F3422E001320B2A1EDC2EAB3D
:1028780003EB820353F8A03C2EA800EB810050F82C
:10288800700C034401EB410002EB8000584E56F8EF
:1028980020000344A342E7DA50480160524850F848
:1028A80021404F48046015461C46DDE701310B29DD
:1028B80001DC0022D9E74D4B19681E98FFF720F973
:1028C800A04239DA494B1A68454B1A60434B4FF01E
:1028D800FF321A6000F0E4FE1E90BDF97850404BBC
:1028E800B3F90000854205D1BDF97A20B3F9023069
:1028F8009A4237D0401B3A4BB3F90280BDF97A307F
:10290800A8EB030808FB08F400FB0044FDF750FEA1
:1029180006460F464046FDF74BFE32463B4609F059
:1029280039FBFEF787F900F10040B4F5C87F1EDADD
:10293800632C31DD2F491BE02A4B4FF0FF3243F85F
:102948002520264B1B680AE003EB430205EB8202B5
:10295800294951F82220234941F8232013469D4252
:10296800F2D1B7E700200146FEF78EFE02E02349C8
:10297800FEF78AFE224B1A68511C1960214981FB17
:102988000231D317C3EBA10303EB8303B2EB430F6D
:1029980004D02EB0BDE8F0871B49E9E7104BB3F926
:1029A8000210124AB2F90000B2F902200292019014
:1029B8000091B3F90030BDF97A202946134802F096
:1029C80019FE00F053FCFDF705FE02460B461048C1
:1029D80002F010FEDDE700BF8871002048000020EB
:1029E80044000020F8730020000000204C00002064
:1029F800A47100200000204298740020000070425A
:102A080090710020676666660000704168D900080A
:102A180084D9000872B6FEE700B591B028220021DB
:102A280006A803F02DFA002301930293039304935D
:102A38000593012206924FF4803307930A920222EB
:102A48000D920E934FF4E0130F9306A801F0E4FCE7
:102A580080B90F23019302210291002303934FF4BD
:102A680080620492059301A801F016FF20B911B005
:102A78005DF804FBFFF7CEFFFFF7CCFF10B501F0C0
:102A880091FCFFF7C9FF00F0A3F802F05DFC00F02D
:102A9800F9F800F02FF900F05FF900F08FF900F075
:102AA800BFF900F0F1FA02F0A5FC02F089FC02F08F
:102AB8006DFC364800F078FB354800F0DDFF354CFA
:102AC8000021204601F0FEFA0421204601F0FAFA1E
:102AD8000821204601F0F6FA0C21204601F0F2FA0E
:102AE8003C212D4801F068FB3C212C4801F064FB97
:102AF8003C212B4801F060FB3C212A4801F05CFB9B
:102B080029482A4981604FF07E52C260284B0361F0
:102B180028488160C260036127488160C260036100
:102B280026488160C2600361254800F019FD4FF412
:102B3800E13000F045FB00F061FB00F06DFB00F0B8
:102B480079FB00F085FB00F09DFD1E4B186000F03E
:102B580099FD1D4B186004E000F03AFE08B1012809
:102B680010D01A4B1B78002BFBD000F051FE00F060
:102B78001FFD00F08DFD0028EED100200146FEF774
:102B880083FDEEE7FFF708FBEBE700BFB883002003
:102B9800247F00208C8000206C7F0020B47F0020E0
:102BA800FC7F002044800020A87E00203333333F80
:102BB80000002041C07E0020D87E0020F07E00204A
:102BC800FC830020947400200C7F00201A820020CF
:102BD8002DE9F04188B000240494059406940794E4
:102BE800254B9A6942F020029A619A6902F0200204
:102BF8000092009A9A6942F010029A619A6902F06A
:102C080010020192019A9A6942F004029A619A6943
:102C180002F004020292029A9A6942F008029A614A
:102C28009B6903F008030393039BDFF85080224657
:102C380040F63C41404602F02BF8114D2246302127
:102C4800284602F025F840F63C43049301270597EF
:102C580006940226079604A9404601F0F9FE30239F
:102C6800049305970694079604A9284601F0F0FEF8
:102C780008B0BDE8F08100BF00100240001001401C
:102C8800000C014000B587B000230293039304931E
:102C98000593009301931548154A02604722426044
:102CA800836040F2E732C26003614361836101F0EF
:102CB8002DF890B94FF48053029302A90B4801F004
:102CC80085F968B90023009301936946074801F024
:102CD800D9FA40B907B05DF804FBFFF79BFEE9E7B6
:102CE800FFF798FEEEE7FFF795FEF3E7247F002055
:102CF800002C014000B58DB02422002103A803F068
:102D0800BFF800230193029312484FF080420260FB
:102D1800436083604FF6FF72C260036183610323DF
:102D2800039301230593099303A901F047F850B9C8
:102D380000230193029301A9064801F0A3FA28B9D8
:102D48000DB05DF804FBFFF765FEF1E7FFF762FEE3
:102D5800F6E700BF6C7F002000B58DB0242200216B
:102D680003A803F08DF80023019302931148124A37
:102D78000260436083604FF6FF72C2600361836143
:102D88000323039301230593099303A901F016F87C
:102D980050B900230193029301A9064801F072FA81
:102DA80028B90DB05DF804FBFFF734FEF1E7FFF733
:102DB80031FEF6E7B47F00200004004000B58DB076
:102DC8002422002103A803F05BF800230193029357
:102DD8001148124A0260436083604FF6FF72C26076
:102DE800036183610323039301230593099303A9D3
:102DF80000F0E4FF50B900230193029301A90648AB
:102E080001F040FA28B90DB05DF804FBFFF702FEA7
:102E1800F1E7FFF7FFFDF6E7FC7F00200008004020
:102E280000B58DB02422002103A803F029F800235F
:102E3800019302931148124A0260436083604FF67F
:102E4800FF72C26003618361032303930123059327
:102E5800099303A900F0B2FF50B90023019302932C
:102E680001A9064801F00EFA28B90DB05DF804FB77
:102E7800FFF7D0FDF1E7FFF7CDFDF6E7448000202E
:102E8800000C004000B583B00368134A934205D094
:102E9800124A934215D003B05DF804FB104B9A69AF
:102EA80042F400629A619B6903F400630093009BFB
:102EB80000221146192002F0EBF9192002F020FA3D
:102EC800E9E7074B9A6942F400529A619B6903F457
:102ED80000530193019BDEE7002C014000340140C0
:102EE8000010024000B58FB000230A930B930C9397
:102EF8000D930368B3F1804F0BD0484A93423FD0FB
:102F0800474A934256D0474A93426DD00FB05DF876
:102F180004FB03F50433DA6942F00102DA61DA6985
:102F280002F001020192019A9A6942F004029A6140
:102F38009A6902F004020292029A9A6942F008021F
:102F48009A619B6903F008030393039B4FF40043C2
:102F58000A930AA9344801F07BFD08230A93002349
:102F68000B930C930AA9314801F072FD304A53685B
:102F780023F4407343F0E06343F480735360C5E780
:102F88002C4BDA6942F00202DA61DA6902F00202D5
:102F98000492049A9A6942F004029A619B6903F0C8
:102FA80004030593059BC0230A930AA91E4801F050
:102FB8004FFDABE71F4BDA6942F00402DA61DA69C8
:102FC80002F004020692069A9A6942F008029A618F
:102FD8009B6903F008030793079BC0230A930AA978
:102FE800124801F035FD91E7124BDA6942F0080208
:102FF800DA61DA6902F008020892089A9A6942F0DE
:1030080004029A619B6903F004030993099B032353
:103018000A930AA9044801F01BFD77E70004004061
:1030280000080040000C004000080140000C01406E
:10303800000001400010024000B587B00023029351
:1030480003930493059302680D4B9A4202D007B08C
:103058005DF804FB03F55C439A6942F010029A613B
:103068009B6903F010030193019B4FF47073029363
:1030780002230393059302A9024801F0E9FCE6E75D
:10308800003401400010014010B596B0002412949D
:103098001394149415941094119409940A940B940D
:1030A8000C940D940E940F942022214601A802F04E
:1030B800E7FE3B483B4B036047234360846040F294
:1030C800E733C36004614461846100F01FFE002897
:1030D8004BD14FF48053129312A9314800F076FF78
:1030E800002845D12E4800F03DFE002843D100239A
:1030F8001093119310A92A4801F0C4F800283DD173
:103108006023099300220A920B920C920D920E9260
:103118000F9209A9224800F0E5FE002831D10422C7
:1031280009A91F4800F0DEFE70BB082209A91C4847
:1031380000F0D8FE58BB0C2209A9194800F0D2FEAD
:1031480040BB0023019302930393049305934FF428
:1031580000520692089301A9114801F0D1F8E0B98C
:103168000F48FFF769FF16B010BDFFF753FCB0E733
:10317800FFF750FCB6E7FFF74DFCB8E7FFF74AFC4E
:10318800BEE7FFF747FCCAE7FFF744FCCDE7FFF7C8
:1031980041FCD0E7FFF73EFCD3E7FFF73BFCDFE756
:1031A8008C8000200034014008B5034B18600B22C6
:1031B800024902F0CFFD08BD188100200C810020D3
:1031C80008B5B0F5E13F03D0B0F5165F09D008BDEA
:1031D8004FF0FF33032207490748006802F027FB36
:1031E800F5E74FF0FF33032202490348006802F075
:1031F8001EFBECE7580000201881002008B54FF0AE
:10320800FF33032202490348006802F010FB08BD9F
:103218005C0000201881002008B54FF0FF3303221E
:1032280002490348006802F002FB08BD5400002070
:103238001881002008B54FF0FF33032202490348E4
:10324800006802F0F4FA08BD500000201881002040
:1032580008B54FF0FF33032202490348006802F023
:10326800E6FA08BD6000002018810020014B98682C
:10327800704700BFE080002038B5164CE078A3788E
:1032880043EA0020FDF7E0FD4FF06051FDF730FE06
:103298001149FDF72DFE114D28606079237943EA25
:1032A8000020FDF7D1FD4FF06051FDF721FE0A49DE
:1032B800FDF71EFE6860E079A37943EA0020FDF778
:1032C800C3FD4FF06051FDF713FE0349FDF710FEF3
:1032D800A86038BD0081002000003443E080002051
:1032E80038B5274CE078A37843EA0020FDF7ACFD19
:1032F8004FF06051FDF7FCFD4FF08341FDF7F8FDFD
:10330800FDF768F91CA3D3E90023FDF7BBF9FDF726
:1033180091FC1C4D28606079237943EA0020FDF771
:1033280093FD4FF06051FDF7E3FD4FF08341FDF74A
:10333800DFFDFDF74FF910A3D3E90023FDF7A2F94C
:10334800FDF778FC6860E079A37943EA0020FDF78F
:103358007BFD4FF06051FDF7CBFD4FF08341FDF74A
:10336800C7FDFDF737F904A3D3E90023FDF78AF970
:10337800FDF760FCA86038BD9A99999999992340FE
:1033880000810020D480002038B5164CE078A3785E
:1033980043EA0020FDF758FD4FF06051FDF7A8FD06
:1033A8001149FDF7A5FD114D28606079237943EA9D
:1033B8000020FDF749FD4FF06051FDF799FD0A49DE
:1033C800FDF796FD6860E079A37943EA0020FDF7F0
:1033D8003BFD4FF06051FDF78BFD0349FDF788FD7C
:1033E800A86038BD008100200000FA44F080002069
:1033F80008B50D4B5A7A187A40EA02200B4B83FB2A
:103408000030C011FDF7D4F805A3D3E90023FCF779
:1034180083FFFDF70FFC064B186008BDAFF3008073
:10342800A4703D0AD743424000810020616060607B
:10343800EC80002008B50A4B5B78DBB2522B09D030
:10344800532B0AD0512B02D0FFF7D2FF08BDFFF74C
:1034580047FFF9E7FFF798FFF6E7FFF70DFFF3E7F8
:103468000081002010B5002410E00A2B1AD01D4955
:103478000A5D1D4890F800C062440270581C1B4A3F
:1034880010700A5DD2B21A49CA5401340A2C21DCE0
:10349800164B1B78002BE8D1124A125DD2B2552A7E
:1034A800E3D0F2E70F4A125DD2B20F4909788A4297
:1034B80005D000230D4A13700B4A1370E5E7591C19
:1034C8000A4A1170074A125DD2B20949CA54FFF775
:1034D800B1FFEEE70B220349064B186802F03AFCED
:1034E80010BD00BF0C8100201C810020FC80002042
:1034F800008100201881002084460023184603E03C
:103508001CF80320504001338B42F9DB70470068F8
:103518007047000008B5084B1B68834200D008BDFF
:10352800002283F83C2005490A70C822044918463D
:1035380002F02CFCF3E700BFE48200201A8200208E
:103548001C820020044B1B68834200D07047034B49
:1035580001221A70FAE700BFE48200201A820020D4
:1035680070B504460D4DC82632460021284602F0A3
:1035780087FC642200210A4802F082FC962200217E
:10358800084802F07DFC084B1C60084B00221A70AA
:1035980032462946204602F0F9FB70BD1C82002005
:1035A8002081002084810020E48200201A820020EB
:1035B8002DE9F041002411E0642200212C4802F09A
:1035C8005FFC002306E008EB03022A49895C284ACD
:1035D800D15401339E42F6DC0134A4B2C72C34D84E
:1035E8002546244B1B5D552BF6D1631C214AD35C21
:1035F800AA2BF1D1E31CD65EB3B2962BECD8A31953
:10360800C12B22DC04F106081746314602EB0800FC
:10361800FFF772FF631DFB5C8342DDD102357B5DE2
:10362800012BC9D0052BD7D196220021124802F0D0
:1036380027FC002306E008EB03020E49895C0E4ACA
:10364800D15401339E42F6DCC6E70A4CC8252A4607
:103658000021204602F014FC084B00221A702A466A
:103668002146074B186802F091FBBDE8F08100BFC6
:10367800208100201C820020848100201A820020E2
:10368800E4820020014BD3F80100704784810020B8
:10369800024B187800B10120704700BF84810020D8
:1036A80082B00B4BB3F90920ADF80020B3F90B3009
:1036B800ADF80230009B01930020BDF8043063F39D
:1036C8000F00BDF8063063F31F4002B0704700BF1B
:1036D80084810020014B587C704700BF8481002002
:1036E80084B038B504AC84E80F00089D1046FDF797
:1036F800ABFB01460998FDF7F1FA00240849FDF7EC
:10370800F7FB2146FEF7F3F901462846FDF7E6FAEE
:1037180001462046FEF7EBF9BDE8384004B0704793
:103728000000A04070B505464B1C03EBC303114EC7
:1037380036F91330038001EBC1014C0004F1140386
:10374800F35E438004F11603F35E838004F11803EB
:10375800F35EC38004F11A03F358836004F11E007A
:103768003044FFF7D4FE28612234335FAB8128460A
:1037780070BD00BF8481002070B50546134E747D6E
:10378800631C03EBC30336F91330038004EBC40452
:10379800640004F11403F35E438004F11603F35E3E
:1037A800838004F11803F35EC38004F11A03F3580D
:1037B800836004F11E003044FFF7A9FE286122341B
:1037C800335FAB810023AB73284670BD8481002032
:1037D800014B1878704700BF2081002010B4CA0040
:1037E80002F1020C094C34F90CC0A0F800C002F137
:1037F800040C34F90CC0A0F802C00632A25E828024
:10380800013134F93120C28010BC7047208100207A
:1038180008B54FF0FF33062202490348006802F05A
:1038280006F808BD64000020E482002008B54FF0C7
:10383800FF33062202490348006801F0F8FF08BD7B
:103848006A000020E4820020FEE7FEE7FEE7FEE7CC
:10385800FEE770477047704708B500F0B5FD08BD32
:1038680008B5024801F08CFB08BD00BF308300207A
:1038780008B5024801F084FB08BD00BFEC820020B7
:1038880008B5024800F039F908BD00BF247F0020C0
:1038980008B5024802F0E4F808BD00BFB88300206C
:1038A80008B5024802F0DCF808BD00BFFC83002020
:1038B80082B00E4B9A6942F001029A619A6902F04D
:1038C80001020092009ADA6942F08052DA61DB69FB
:1038D80003F080530193019B054A536823F0E0638A
:1038E80043F00073536002B0704700BF00100240FD
:1038F8000000014030B4036A23F001030362036A45
:103908004268846924F073040D682C4323F0020C88
:103918008B6843EA0C03104DA84203D005F50065F7
:10392800A84205D123F00803CD682B4323F00403F4
:10393800094DA84203D005F50065A84205D122F437
:1039480040724D692A438D692A43426084614A68FE
:103958004263036230BC7047002C014030B4036AF4
:1039680023F480730362036A4268C46924F0730C09
:103978000C6844EA0C0523F400738C6843EA0423BA
:10398800114CA04203D004F50064A04206D123F4F0
:103998000063CC6843EA042323F480630A4CA04202
:1039A80003D004F50064A04207D122F440524C69C8
:1039B80042EA04128C6942EA04124260C5614A680C
:1039C800C263036230BC7047002C014030B4036A04
:1039D80023F480530362036A4468C26922F4E6420E
:1039E8000D6842EA052223F400538D6843EA053343
:1039F800094DA84203D005F50065A84204D124F476
:103A080080444D6944EA85144460C2614A6802648E
:103A1800036230BC704700BF002C014010B4036A39
:103A2800046A24F001040462846924F0F00C4CEA6E
:103A3800021223F00A030B438261036210BC704731
:103A480010B4046A24F0100404628469036A24F43C
:103A5800704C4CEA023223F0A00343EA011382615E
:103A6800036210BC7047836823F070030B4343F074
:103A7800070383607047000090F83D30DBB2012BEC
:103A88002FD1022380F83D300268D36843F0010348
:103A9800D3600368154A934218D002F50062934236
:103AA80014D0B3F1804F11D0A2F5983293420DD0C3
:103AB80002F58062934209D002F58062934205D0F4
:103AC8001A6842F001021A60002070479A6802F0F2
:103AD8000702062A07D01A6842F001021A6000207D
:103AE8007047012070470020704700BF002C01403C
:103AF8007047704770477047704710B504460368B1
:103B08001A6912F0020F11D0DA6812F0020F0DD004
:103B18006FF002021A610123037703689B6913F0AF
:103B2800030F70D0FFF7E6FF0023237723681A6995
:103B380012F0040F12D0DA6812F0040F0ED06FF0F2
:103B480004021A610223237723689B6913F4407FD8
:103B58005FD02046FFF7CEFF0023237723681A693A
:103B680012F0080F12D0DA6812F0080F0ED06FF0BA
:103B780008021A61042323772368DB6913F0030F13
:103B88004ED02046FFF7B6FF0023237723681A6933
:103B980012F0100F12D0DA6812F0100F0ED06FF07A
:103BA80010021A61082323772368DB6913F4407F26
:103BB8003DD02046FFF79EFF0023237723681A692C
:103BC80012F0010F03D0DA6812F0010F36D1236822
:103BD8001A6912F0800F03D0DA6812F0800F34D11E
:103BE80023681A6912F0400F03D0DA6812F0400F08
:103BF80032D123681A6912F0200F03D0DA6812F064
:103C0800200F30D110BDFFF774FF2046FFF773FF78
:103C18008AE72046FFF76DFF2046FFF76CFF9BE71A
:103C28002046FFF766FF2046FFF765FFACE7204612
:103C3800FFF75FFF2046FFF75EFFBDE76FF0010269
:103C48001A612046FDF7D0FDC1E76FF080021A61C6
:103C5800204600F07FFBC3E76FF040021A61204660
:103C6800FFF74AFFC5E76FF020021A61204600F00F
:103C780070FBC7E70368244A904212D002F500623D
:103C880090420ED0B0F1804F0BD0A2F598329042FE
:103C980007D002F58062904203D002F5806290421C
:103CA80003D123F070034A681343174A904212D095
:103CB80002F5006290420ED0B0F1804F0BD0A2F511
:103CC8009832904207D002F58062904203D002F504
:103CD8008062904203D123F44073CA68134323F0EF
:103CE80080034A69134303608B68C3620B6883626D
:103CF800054B984203D003F50063984201D10B6944
:103D08000363012343617047002C014040B310B5A1
:103D1800044690F83D30F3B1022384F83D30214643
:103D280051F8040BFFF7A6FF012384F8463084F806
:103D38003E3084F83F3084F8403084F8413084F8CD
:103D4800423084F8433084F8443084F8453084F8AD
:103D58003D30002010BD80F83C30FFF793F8DBE7DA
:103D68000120704740B310B5044690F83D30F3B1D8
:103D7800022384F83D30214651F8040BFFF77AFFFF
:103D8800012384F8463084F83E3084F83F3084F8C4
:103D9800403084F8413084F8423084F8433084F865
:103DA800443084F8453084F83D30002010BD80F858
:103DB8003C30FFF79DFEDBE701207047002857D015
:103DC80070B50D46044690F83D30002B4BD00223C9
:103DD80084F83D302268936823F4804323F0070376
:103DE8009360214651F8040BFFF744FF21688A6865
:103DF8008B690E6A2868104323F4407C2CF0030C6E
:103E0800AA68AB6942EA032343EA0C0323F47C4320
:103E180023F0FC03EA69D5F80CC04CEA022C4CEA02
:103E2800030C2A6A13032A6943EA021343EA0C03C0
:103E380026F022066A686D6942EA051232438860F4
:103E480021688B6123681A62012384F8463084F85C
:103E58003E3084F83F3084F8423084F8433084F8A8
:103E68003D30002070BD80F83C30FFF73BF8AEE7EE
:103E78000120704730B4036A23F010030362036A19
:103E88004468826922F4E6420D6842EA052223F07A
:103E980020038D6843EA0513114DA84203D005F5A8
:103EA8000065A84206D123F08003CD6843EA0513D4
:103EB80023F040030A4DA84203D005F50065A84247
:103EC80007D124F440644D6944EA85048D6944EAC5
:103ED8008504446082614A688263036230BC70472B
:103EE800002C014038B590F83C30012B60D00446D6
:103EF8000D46012380F83C300C2A1AD8DFE802F07E
:103F0800071919191D1919193119191944000068C7
:103F1800FFF7F0FC2268936943F008039361226875
:103F2800936923F0040393612268936929690B4319
:103F38009361002084F83C0038BD0068FFF79AFFC1
:103F48002268936943F4006393612268936923F4B8
:103F58008063936122689369296943EA0123936125
:103F6800E7E70068FFF7FAFC2268D36943F0080323
:103F7800D3612268D36923F00403D3612268D3692B
:103F880029690B43D361D4E70068FFF71FFD226856
:103F9800D36943F40063D3612268D36923F480634F
:103FA800D3612268D369296943EA0123D361C0E751
:103FB8000220C1E710B4846824F47F4C42EA03224B
:103FC8000A4342EA0C02826010BC704790F83C3009
:103FD800012B66D010B50446012380F83C3002233B
:103FE80080F83D300268936823F47F4323F0770319
:103FF80093600B68602B40D022D8402B47D00BD958
:10400800502B0ED1CA6849680068FFF707FD502198
:104018002068FFF728FD04E0202B0CD008D9302BAE
:1040280009D0012384F83D30002084F83C0010BDFD
:104038000BB1102BF5D119462068FFF714FDF0E7F6
:10404800702B0ED0B3F5005FEBD1CB684A68896856
:104058000068FFF7AFFF2268936843F480439360DA
:10406800DFE7CB684A6889680068FFF7A3FF226822
:10407800936843F077039360D3E7CA684968006898
:10408800FFF7DEFC60212068FFF7EDFCC9E7CA688E
:1040980049680068FFF7C2FC40212068FFF7E3FC8D
:1040A800BFE70220704701F01F01012303FA01FC5A
:1040B800036A23EA0C030362036A02FA01F10B4361
:1040C8000362704710B50446084600293AD194F8AF
:1040D8003E30DBB2013B18BF0123002B66D100281C
:1040E80049D1022384F83E30012201462068FFF7B7
:1040F800DAFF23682F4A934203D002F50062934205
:1041080003D15A6C42F400425A642368294A934204
:1041180041D002F5006293423DD0B3F1804F3AD0CE
:10412800A2F59832934236D002F58062934232D09B
:1041380002F5806293422ED01A6842F001021A609A
:10414800002032E0042908D008290DD094F8413025
:10415800DBB2013B18BF0123BFE794F83F30DBB265
:10416800013B18BF0123B8E794F84030DBB2013BAC
:1041780018BF0123B1E7042805D0082807D0022377
:1041880084F84130B0E7022384F83F30ACE70223DB
:1041980084F84030A8E79A6802F00702062A07D098
:1041A8001A6842F001021A60002010BD0120FCE7E5
:1041B8000020FAE7002C014038B5044690F83E008C
:1041C800C0B294F83F3094F84220D2B294F843C079
:1041D8000D46B1B9012849D1012A48D1022384F8F2
:1041E8003E3084F842307DB3042D39D001220021BD
:1041F8002068FFF758FF012204212068FFF753FFCA
:1042080027E0DBB25FFA8CFC042912D0012833D1F5
:10421800012B2CD1012A31D1BCF1010F30D102235D
:1042280084F83E3084F83F3084F8423084F84330D4
:10423800D9E7012B1CD1BCF1010F1BD1022384F853
:104248003F3084F84330CEE7012200212068FFF791
:104258002AFF2268136843F001031360002006E078
:10426800012204212068FFF71EFFF2E7012038BD74
:104278000120FCE71846FAE70120F8E71846F6E7B8
:104288001046F4E790F83C30012B34D010B40123E9
:1042980080F83C30022380F83D3003685A689C68F7
:1042A80022F0700C0A6842EA0C025A600368134A4A
:1042B800934212D002F5006293420ED0B3F1804FC0
:1042C8000BD0A2F59832934207D002F58062934250
:1042D80003D002F58062934204D124F080044A6836
:1042E80014439C60012380F83D30002380F83C3063
:1042F800184610BC70470220704700BF002C0140D0
:1043080090F83C30012B22D0012380F83C30CB6858
:1043180023F440738A68134323F480634A68134381
:1043280023F400630A68134323F480530A69134390
:1043380023F400534A69134323F48043CA6913439F
:1043480002685364002380F83C3018467047022006
:10435800704770477047000010B504460E4B187838
:104368004FF47A73B3FBF0F30C4A1068B0FBF3F028
:1043780000F0D4FF68B90F2C01D901200AE000220F
:1043880021464FF0FF3000F083FF054B1C600020F2
:1043980000E0012010BD00BF700000207800002060
:1043A8007400002008B5074A136843F0100313602F
:1043B800032000F05BFF0F20FFF7CEFFFFF778FA2E
:1043C800002008BD00200240034A1168034B1B78F7
:1043D8000B441360704700BFE88200207000002083
:1043E800014B1868704700BFE882002082B0084B74
:1043F8001B68084AA2FB03235B0A00FB03F3019333
:1044080000BF019B5A1E0192002BF9D102B07047E0
:1044180078000020D34D6210002800F0F18170B5BB
:1044280082B00446036813F0010F2CD0994B5B68E7
:1044380003F00C03042B1DD0964B5B6803F00C03B0
:10444800082B12D06368B3F5803F41D0002B55D1BB
:1044580003F1804303F504331A6822F480321A60AA
:104468001A6822F480221A6037E08A4B5B6813F4DA
:10447800803FE7D0874B1B6813F4003F03D0636885
:10448800002B00F0BF81236813F0020F75D0814B19
:104498005B6813F00C0F5FD07E4B5B6803F00C0376
:1044A800082B54D02369002B00F08A807A4B012214
:1044B8001A60FFF795FF0546764B1B6813F0020F4D
:1044C80075D1FFF78DFF401B0228F5D903209EE127
:1044D800704A136843F480331360636843B3FFF78B
:1044E8007FFF05466B4B1B6813F4003FCBD1FFF7EA
:1044F80077FF401B6428F5D9032088E1B3F5A02F86
:1045080009D0644B1A6822F480321A601A6822F4BF
:1045180080221A60E1E703F18043A3F53C331A686F
:1045280042F480221A601A6842F480321A60D4E792
:10453800FFF756FF0546574B1B6813F4003FA2D000
:10454800FFF74EFF401B6428F5D903205FE1514B6C
:104558005B6813F4803FA5D14E4B1B6813F0020F24
:1045680003D02369012B40F04F814A4A136823F096
:10457800F803616943EAC1031360236813F0080F65
:1045880033D0A369002B5CD0434B0122C3F88024AD
:10459800FFF726FF05463F4B5B6A13F0020F21D158
:1045A800FFF71EFF401B0228F5D903202FE1394AE7
:1045B800136823F0F803616943EAC1031360DCE779
:1045C800354B00221A60FFF70BFF0546314B1B687D
:1045D80013F0020FD1D0FFF703FF401B0228F5D9D3
:1045E800032014E10120FFF701FF236813F0040FF3
:1045F80000F09680274BDB6913F0805F34D1254BA0
:10460800DA6942F08052DA61DB6903F08053019382
:10461800019B0125214B1B6813F4807F26D0E3689A
:10462800012B3DD0002B53D103F1804303F5043314
:104638001A6A22F001021A621A6A22F004021A6245
:1046480033E0154B0022C3F88024FFF7C9FE054666
:10465800104B5B6A13F0020FC7D0FFF7C1FE401B77
:104668000228F5D90320D2E00025D3E70B4A1368C6
:1046780043F480731360FFF7B3FE0646074B1B68CD
:1046880013F4807FCBD1FFF7ABFE801B6428F5D9EC
:104698000320BCE0001002400000424200700040CD
:1046A8005F4A136A43F001031362E36833B3FFF709
:1046B80097FE06465A4B1B6A13F0020F2FD1FFF7DD
:1046C8008FFE801B41F288339842F3D903209EE085
:1046D800052B09D0524B1A6A22F001021A621A6A93
:1046E80022F004021A62E0E74D4B1A6A42F0040213
:1046F8001A621A6A42F001021A62D6E7FFF770FEE0
:104708000646474B1B6A13F0020F08D0FFF768FEF6
:10471800801B41F288339842F3D9032077E0E5B94A
:10472800E369002B72D03E4A526802F00C02082A54
:1047380056D0022B17D03B4B00221A66FFF750FECB
:104748000446374B1B6813F0007F47D0FFF748FE3D
:10475800001B0228F5D9032059E0314AD36923F018
:104768008053D361DCE72F4B00221A66FFF738FE2F
:1047780005462B4B1B6813F0007F06D0FFF730FE71
:10478800401B0228F5D9032041E0236AB3F5803F96
:104798001AD023494B6823F47413226A606A0243CF
:1047A80013434B601F4B01221A66FFF719FE04469C
:1047B8001B4B1B6813F0007F0ED1FFF711FE001B87
:1047C8000228F5D9032022E0154A536823F4003360
:1047D800A1680B435360DCE7002018E0002016E0D6
:1047E800012B16D00E4B5B6803F48031226A91428C
:1047F80011D103F47013626A93420ED1002006E0CF
:1048080001207047012002E0012000E0002002B0F2
:1048180070BD0120FBE70120F9E70120F7E700BFA1
:10482800001002400000424286B0174B0FCB0DF13A
:10483800180C0CE90F0040F20123ADF80430134BBB
:104848005B6803F00C02082A02D0114806B07047D2
:10485800C3F3834218326A4412F8100C13F4803FF1
:104868000DD00A4B5B68C3F3404318336B4413F80D
:10487800143C074A02FB00F0B0FBF3F0E6E7054BF7
:1048880003FB00F0E2E700BF8CD9000800100240EB
:1048980000127A0000093D00002800F0A08070B5E1
:1048A8000D460446524B1B6803F007038B420BD29C
:1048B8004F4A136823F007030B431360136803F090
:1048C80007038B4240F08D80236813F0020F17D046
:1048D80013F0040F04D0474A536843F4E06353606D
:1048E800236813F0080F04D0424A536843F4605316
:1048F8005360404A536823F0F003A1680B435360A8
:10490800236813F0010F31D06368012B20D0022BEC
:1049180025D0384A126812F0020F64D035494A6827
:1049280022F0030213434B60FFF75AFD0646314B52
:104938005B6803F00C036268B3EB820F16D0FFF7D5
:104948004FFD801B41F288339842F0D9032045E09F
:10495800284A126812F4003FE0D101203EE0254ABF
:10496800126812F0007FD9D1012037E0204B1B6874
:1049780003F00703AB420AD91D4A136823F0070363
:104988002B431360136803F00703AB422DD1236850
:1049980013F0040F06D0174A536823F4E063E16864
:1049A8000B435360236813F0080F07D0114A53686C
:1049B80023F46053216943EAC1035360FFF734FFCE
:1049C8000C4B5B68C3F303130B4AD35CD8400B4B07
:1049D80018600B4B1868FFF7BFFC002070BD012062
:1049E80070470120FAE70120F8E70120F6E700BF49
:1049F8000020024000100240A0D9000878000020E2
:104A080074000020014B1868704700BF7800002030
:104A180008B5FFF7F7FF044B5B68C3F30223034AAB
:104A2800D35CD84008BD00BF00100240B0D90008D0
:104A380008B5FFF7E7FF044B5B68C3F3C223034ADB
:104A4800D35CD84008BD00BF00100240B0D90008B0
:104A580070B582B00024A446B0E0874DAA4210D0B9
:104A680007D9864DAA420CD005F58035AA4208D050
:104A780013E0A5F58015AA4203D005F57025AA42D2
:104A880007D18A68002A62D0012A5BD043610824D2
:104A980003E0A5F58015AA42F3D0BEF1FF0F58D860
:104AA8000646BEF1FF0F56D84FEA8C0233680F2531
:104AB800954023EA050304FA02F2134333604B6876
:104AC80013F0805F78D06E4B9A6942F001029A61C8
:104AD8009B6903F001030193019B4FEA9C02951C1B
:104AE800684B53F825600CF003039D000F23AB407F
:104AF80026EA0306644B984233D003F58063984254
:104B080000F0988003F58063984200F0958003F5E3
:104B18008063984200F0928003F58063984200F029
:104B28008F8003F58063984219D006231AE0CC6879
:104B3800B3E7CC680434B0E7CC680834ADE7CC6898
:104B48000C34AAE703610824A7E70024A5E7042496
:104B5800A3E7061DA5E7ACF108029200A6E7052326
:104B680000E00023AB4033430232464D45F8223083
:104B78004B6813F4803F65D0444A136843EA0E0338
:104B880013604B6813F4003F62D0404A536843EA0D
:104B98000E0353604B6813F4801F5FD03B4A936841
:104BA80043EA0E0393604B6813F4001F5CD0374A46
:104BB800D36843EA0E03D3600CF1010C0A6832FA99
:104BC8000CF357D0012303FA0CF302EA030E33EA7D
:104BD8000202F1D14A68122A3FF63FAF122A3FF685
:104BE8005CAF01A555F822F08B4A0008374B000846
:104BF800414B0008534B0008A34A0008A34A000889
:104C0800A34A0008A34A0008A34A0008A34A0008C8
:104C1800A34A0008A34A0008A34A0008A34A0008B8
:104C2800A34A0008A34A0008A34A00083B4B00080F
:104C3800474B0008012395E7022393E7032391E7F5
:104C480004238FE7114A136823EA0E03136098E7D9
:104C58000E4A536823EA0E0353609BE70B4A936896
:104C680023EA0E0393609EE7084AD36823EA0E03FB
:104C7800D360A1E702B070BD00002210000031101F
:104C880000100240000001400008014000040140FB
:104C98000AB10161704709040161704730B4012409
:104CA800056CAC40C56B6C60046863604368102B8E
:104CB80005D0036899600368DA6030BC7047036800
:104CC8009A600368D960F8E700283AD010B4024621
:104CD80000681D4B984229D81C4B03441C49A1FB72
:104CE80003131B099B0013641A4BD363022382F836
:104CF8002130016821F47F5121F030015368946814
:104D08002343D46823431469234354692343946990
:104D18002343D46923430B4303600020906301239A
:104D280082F8213082F8200010BC70470A4B0344F7
:104D38000749A1FB03131B099B001364074BD363AB
:104D4800D4E70120704700BF07040240F8FFFDBF09
:104D5800CDCCCCCC00000240F8FBFDBF00040240E3
:104D680038B5044690F82000012831D0012084F895
:104D7800200094F82100012804D0002384F8203072
:104D8800022038BD022084F821000020A063256895
:104D9800286820F0010028602046FFF77FFFE36ABB
:104DA8005BB12268136843F00E031360226813682E
:104DB80043F0010313600020E3E72268136823F03F
:104DC800040313602268136843F00A031360EDE7D5
:104DD8000220D6E790F82130022B06D00423836303
:104DE800002380F82030012070470268136823F000
:104DF8000E0313600268136823F001031360036C49
:104E0800C16B012202FA03F34B6080F821200023D2
:104E180080F820301846704708B590F82130022BEA
:104E280003D004238363012008BD0268136823F0BC
:104E38000E0313600268136823F00103136003680C
:104E48004B4A93424ED9783A934224D01432934233
:104E580030D0143293422FD0143293422FD01432D0
:104E680093422FD0143293422FD0143293422FD032
:104E780002F5627293422ED0143293422DD014322E
:104E880093422CD01432934202D04FF4803203E084
:104E98004FF4805200E00122364B5A60012380F81B
:104EA8002130002380F82030436B002B5ED09847D8
:104EB8000020B9E71022EFE74FF48072ECE74FF4D7
:104EC8008052E9E74FF48032E6E74FF48012E3E7D7
:104ED8004FF08072E0E70122DEE71022DCE74FF4B2
:104EE8008072D9E7244A934224D01432934225D0C1
:104EF8001432934224D01432934224D01432934271
:104F080024D01432934224D01432934224D002F590
:104F18006272934223D01432934222D014329342C5
:104F280021D01432934202D04FF4803203E04FF480
:104F3800805200E00122114B5A60AFE71022FAE7D5
:104F48004FF48072F7E74FF48052F4E74FF4803261
:104F5800F1E74FF48012EEE74FF08072EBE70122A1
:104F6800E9E71022E7E74FF48072E4E700205BE707
:104F78008000024000040240080002400000024095
:104F880038B5C36B1A6804682568016C04238B4024
:104F9800134200F09B8015F0040F00F097802368FF
:104FA80013F0200F03D1236823F004032360036860
:104FB8009A4A934246D9783A934224D0143293427B
:104FC80028D01432934227D01432934227D0143277
:104FD800934227D01432934227D01432934227D0D9
:104FE80002F56272934226D01432934225D01432CD
:104FF800934224D01432934202D04FF4802203E02B
:105008004FF4804200E00422854B5A60C36A03B122
:10501800984738BD4022F7E74FF48062F4E74FF431
:105028008042F1E74FF48022EEE74FF48002EBE78D
:105038004FF08062E8E70422E6E74022E4E74FF415
:105048008062E1E7774A934224D01432934225D014
:105058001432934224D01432934224D0143293420F
:1050680024D01432934224D01432934224D002F52F
:105078006272934223D01432934222D01432934264
:1050880021D01432934202D04FF4802203E04FF42F
:10509800804200E00422644B5A60B7E74022FAE7F6
:1050A8004FF48062F7E74FF48042F4E74FF4802230
:1050B800F1E74FF48002EEE74FF08062EBE704225D
:1050C800E9E74022E7E74FF48062E4E702238B40F8
:1050D800134200F0AB8015F0020F00F0A7802368A0
:1050E80013F0200F06D1236823F00A03236001235D
:1050F80080F821300368494A93424BD9783A934261
:1051080024D0143293422DD0143293422CD014322E
:1051180093422CD0143293422CD0143293422CD088
:10512800143293422CD002F5627293422BD014327F
:1051380093422AD01432934229D01432934202D097
:105148004FF4003203E04FF4005200E00222344BE7
:105158005A60002380F82030836A002B3FF459AF4F
:10516800984756E72022F2E74FF40072EFE74FF432
:105178000052ECE74FF40032E9E74FF40012E6E79B
:105188004FF00072E3E70222E1E72022DFE74FF465
:105198000072DCE7234A934224D01432934225D08C
:1051A8001432934224D01432934224D014329342BE
:1051B80024D01432934224D01432934224D002F5DE
:1051C8006272934223D01432934222D01432934213
:1051D80021D01432934202D04FF4003203E04FF44E
:1051E800005200E00222104B5A60B2E72022FAE790
:1051F8004FF40072F7E74FF40052F4E74FF400322F
:10520800F1E74FF40012EEE74FF00072EBE70222ED
:10521800E9E72022E7E74FF40072E4E78000024064
:10522800000402400800024000000240082303FA7C
:1052380001F111423FF4EDAE15F0080F3FF4E9AE6D
:10524800236823F00E032360026CC16B012303FA69
:1052580002F24A60836380F82130002380F820300E
:10526800036B002B3FF4D5AE9847D2E6074AD368C4
:1052780023F4E0631B041B0C000200F4E06003430A
:1052880043F0BF6343F40033D360704700ED00E0A0
:1052980000B5194BDB68C3F30223C3F1070CBCF15B
:1052A800040F28BF4FF0040C03F1040EBEF1060FE3
:1052B80018D9033B4FF0FF3E0EFA0CFC21EA0C0113
:1052C80099400EFA03F322EA0303194300280BDB83
:1052D8000901C9B200F1604000F5614080F800138F
:1052E8005DF804FB0023E5E700F00F000901C9B2EF
:1052F800024B1954F4E700BF00ED00E014ED00E0A4
:10530800002807DB00F01F02400901239340024AEE
:1053180042F82030704700BF00E100E00138B0F1EA
:10532800807F0BD24FF0E0235861054AF02182F8C4
:1053380023100020986107221A61704701207047E6
:1053480000ED00E07047000000B583B00E4B5A69CD
:1053580042F001025A615B6903F001030193019B6A
:10536800002211460D20FFF793FF0D20FFF7C8FF1D
:10537800002211461020FFF78BFF1020FFF7C0FF17
:1053880003B05DF804FB00BF0010024008B50A48EE
:105398000A4B03604FF41653436000238360C360D5
:1053A80003610C2242618361C36100F011FA00B904
:1053B80008BDFDF72FFBFBE7748300200038014090
:1053C80008B50A480A4B03604FF4E13343600023F1
:1053D8008360C36003610C2242618361C36100F092
:1053E800F7F900B908BDFDF715FBFBE7B883002006
:1053F8000044004008B50A480A4B03604FF4E13303
:10540800436000238360C36003610C2242618361AF
:10541800C36100F0DDF900B908BDFDF7FBFAFBE751
:10542800FC8300200048004070B58AB00023069332
:1054380007930893099303685F4A934208D0044688
:105448005E4A93422ED05E4A93426FD00AB070BD36
:105458005C4B9A6942F480429A619A6902F48042EC
:105468000092009A9A6942F004029A619B6903F0DB
:1054780004030193019B4FF40073069302230793DF
:1054880003230993504C06A92046FFF7E1FA4FF48D
:105498008063069300230793089306A92046FFF725
:1054A800D7FAD3E7474BDA6942F40032DA61DA69AE
:1054B80002F400320292029A9A6942F004029A6156
:1054C8009B6903F004030393039B042306930223BD
:1054D8000793032309933C4E06A93046FFF7B8FA11
:1054E8000823069300250795089506A93046FFF777
:1054F800AFFA3648364B0360456085608023C36049
:10550800056145618561C561FFF7DEFB58B92F4B21
:10551800A3635C62002211462620FFF7B9FE26200D
:10552800FFF7EEFE92E7FDF775FAF0E7254BDA692B
:1055380042F48022DA61DA6902F480220492049A41
:105548009A6942F008029A619B6903F0080305937F
:10555800059B4FF480630693022307930323099363
:105568001C4E06A93046FFF773FA4FF40063069302
:1055780000250795089506A93046FFF769FA1648E9
:10558800164B0360456085608023C36005614561F3
:105598008561C561FFF798FB58B90F4BA3635C623F
:1055A800002211462720FFF773FE2720FFF7A8FEE9
:1055B8004CE7FDF72FFAF0E70038014000440040BF
:1055C800004800400010024000080140EC82002022
:1055D8006C000240000C0140308300203000024083
:1055E80008B5034B834200D008BDFDF73BFFFBE73E
:1055F800B88300200FB400B5B5B036AA52F8041B22
:10560800339201A800F0BCFC01A800F08BFC4FF01D
:10561800FF3382B201A9044800F009F935B05DF8FA
:1056280004EB04B0704700BF748300200268D3689D
:1056380023F0C003D360202380F83D307047026810
:10564800D36823F49073D3600268536923F001038D
:105658005361036B012B05D0202380F83E300023D3
:10566800036370470268D36823F01003D360F3E73D
:1056780090F83D30DBB2212B01D0022070478368BF
:10568800B3F5805F17D0036A5A1C02621A78036860
:105698005A60C38C9BB2013B9BB2C3844BB902686E
:1056A800D36823F08003D3600268D36843F04003D3
:1056B800D360002070470369002BE4D1036A1B887C
:1056C8000268C3F308035360036A02330362E0E726
:1056D80010B504460268136923F44053C1680B43AC
:1056E800136183680269134342691A430168CB68EE
:1056F80023F4B05323F00C031343CB6002685369BF
:1057080023F4407381690B4353610268134B9A4237
:1057180020D0FFF77DF9024602EB820202EB8202FB
:1057280063689B00B2FBF3F20D48A0FB0231490904
:10573800642303FB11231B013233A0FB03235B0902
:1057480003F0F00202EB011203F00F032168134487
:105758008B6010BDFFF76CF90246DDE700380140A9
:105768001F85EB512DE9F84305460F461646994625
:10577800DDF820802C68246837EA04030CBF4FF05A
:10578800010C4FF0000CB4451FD1B8F1FF3FF1D028
:10579800B8F1000F05D0FEF723FEA0EB0900404545
:1057A800E8D92A68D36823F4D073D3602A68536988
:1057B80023F001035361202385F83D3085F83E30FE
:1057C800002385F83C30032000E00020BDE8F88382
:1057D80058B310B5044690F83D300BB3242384F831
:1057E8003D302268D36823F40053D3602046FFF786
:1057F8006FFF2268136923F4904313612268536989
:1058080023F02A0353612268D36843F40053D3601A
:1058180000202064202384F83D3084F83E3010BDF9
:1058280080F83C30FFF700FED8E7012070472DE9EB
:10583800F04182B01E4690F83D30DBB2202B54D1A7
:1058480004460D469046002953D0002A53D090F8BC
:105858003C30012B51D0012380F83C3000230364F5
:10586800212380F83D30FEF7BBFD0746A4F82480CD
:10587800A4F82680A368B3F5805F05D04FF0000830
:10588800002384F83C3012E0236913B14FF000087C
:10589800F6E7A8460025F3E738F8023B2268C3F389
:1058A80008035360E28C92B2013A92B2E284E38C2C
:1058B8009BB273B100963B46002280212046FFF739
:1058C80051FFE0B9002DE7D015F8012B23685A6085
:1058D800E8E700963B46002240212046FFF742FFBA
:1058E80078B9202384F83D3000E0022002B0BDE8FA
:1058F800F0810120FAE70120F8E70220F6E703200B
:10590800F4E70320F2E7704708B50168CA6822F097
:105918004002CA60202280F83D20FFF7F4FF0020F3
:1059280008BD704710B5446A23685A6994F83D3039
:10593800DBB2212B10D023685A6902F0400294F898
:105948003E30DBB2222B11D0236C43F010032364CA
:105958002046FDF7DFFD10BD02F08002002AEAD0E4
:105968000023E3842046FFF761FEE4E7002AEBD03A
:105978000023E3852046FFF762FEE5E708B5406AA5
:105988000023C385C384FDF7C5FD08BD90F83E30EC
:10599800DBB2222B60D18368B3F5805F46D0826A80
:1059A800B3F5805F04D0002B4DD10369002B4AD199
:1059B80003685B681370836A01338362C38D9BB28B
:1059C800013B9BB2C385002B48D100B583B0026868
:1059D800D36823F02003D3600268D36823F480736C
:1059E800D3600268536923F001035361202380F8D0
:1059F8003E30036B012B2CD1002303630268D3686C
:105A080023F01003D36003681A6812F0100F06D051
:105A1800002201921A6801925B680193019B818DB3
:105A2800FDF790FD002003B05DF804FB0269002A31
:105A3800B5D1826A03685B68C3F308031380836A7D
:105A480002338362BAE703685B6803F07F0313706D
:105A5800B1E7FFF7C5FDE5E7022070470020704772
:105A680030B583B0044602681368D068516913F0F2
:105A78000F0505D113F0200F02D010F0200F19D117
:105A88002DB111F0010119D110F4907F16D1216BBD
:105A9800012975D013F0800F03D010F0800F40F06B
:105AA800D78013F0400F03D010F0400F40F0D4809F
:105AB80003B030BD2046FFF769FFF9E713F0010F87
:105AC80006D010F4807F03D0226C42F001022264D9
